:020000021000EC
:10F0000080FF0020353602005D3602006D3F0200B1
:10F01000613602006336020065360200000000001F
:10F02000000000000000000000000000BD1E040001
:10F030006936020000000000DD1E04006D3602008B
:10F0400009A403006F3602007D3D050081C0030066
:10F05000A5C003006F36020021FF04001103050064
:10F060006F3602006F3602006F3602006F36020004
:10F070006F3602006F3602006F3602006F360200F4
:10F080006F360200815C02006F3602006F360200AC
:10F09000F93A02006F3602008DA603006F360200B7
:10F0A0006F3602006F3602006F3602006F360200C4
:10F0B0006F3602006F360200000000000000000002
:10F0C0006F3602006F3602006F360200C9C00300BF
:10F0D0006F3602006F360200657E030000000000FC
:10F0E0000000000000000000000000000000000020
:10F0F0000000000000000000000000000000000010
:10F1000000000000000000000000000000000000FF
:10F1100000000000000000000000000000000000EF
:10F1200000000000000000000000000000000000DF
:10F1300000000000000000000000000000000000CF
:10F1400000000000000000000000000000000000BF
:10F1500000000000000000000000000000000000AF
:10F16000000000000000000000000000000000009F
:10F17000000000000000000000000000000000008F
:10F18000000000000000000000000000000000007F
:10F19000000000000000000000000000000000006F
:10F1A000000000000000000000000000000000005F
:10F1B000000000000000000000000000000000004F
:10F1C000000000000000000000000000000000003F
:10F1D000000000000000000000000000000000002F
:10F1E000000000000000000000000000000000001F
:10F1F000000000000000000000000000000000000F
:10F2000010B5054C237833B9044B13B10448AFF360
:10F2100000800123237010BD582900200000000049
:10F22000CCC6060008B5034B1BB103490348AFF336
:10F23000008008BD000000005C290020CCC606004C
:10F24000154B002B08BF134B9D46A3F5803A0021B8
:10F250008B460F461348144A121A37F0FCFC0F4B2A
:10F26000002B00D098470E4B002B00D09847002071
:10F27000002104000D000D48002802D00C4837F092
:10F2800026FA37F0F3FA2000290007F09FFB37F049
:10F290002BFA00BF0000080080FF002000000000E3
:10F2A0000000000058290020B8FA0020CF660500B1
:10F2B00000000000044B054A1A60054B054A1A601D
:10F2C000054B064A1A60704734260020908B0500D3
:10F2D000382600209A8B050030260020A08B0500E0
:10F2E00008B5FFF7E7FFC02006F0CCFF054A064946
:10F2F0001060064A0968116018B1BDE8084000F0C6
:10F300005BBA08BD74290020E08D05007C2900202F
:10F31000012070470120704701207047012070478D
:10F32000012070470120704700207047002070477F
:10F330000020704701207047054A064900231360EA
:10F3400053600B604B60044B044A1A60704700BF67
:10F35000742900207C29002030DF0020E1F2010028
:10F36000704700000B4B10B503F10802026003F177
:10F370007002AC330446426240F82C3F01F0B0FD0D
:10F3800004F1240002F098FB204602F07BFD2046A9
:10F3900010BD00BFD08E0500A0F12400FFF7E2BF32
:10F3A000A0F12C00FFF7DEBF10B50446FFF7DAFF2F
:10F3B000204636F0CBFA204610BDA0F12C00FFF716
:10F3C000F3BFA0F12400FFF7EFBF10B5044636F0FD
:10F3D000BDFA204610BD000010B5064A04460221C1
:10F3E000243002F005FCC82806BF012084F8300054
:10F3F000002010BDE08B0500A0F12C00FFF7ECBF52
:10F4000010B5054A04460221243002F00FFC002307
:10F4100084F8303010BD00BFE08B0500A0F12C0057
:10F42000FFF7EEBF002310B5C0F88C30022304466E
:10F4300080F83030012241F27071243002F032FC49
:10F44000A4F88800012010BDA0F12C00FFF7EABF4E
:10F4500030B50D460749044603C985B002AB83E8C1
:10F46000030000932946044B204602F04FFC05B0F0
:10F4700030BD00BF902900209829002030B590F8B9
:10F4800048308BB004460D4663BB1849012003F099
:10F4900031FE236D0093164B164A1B6814210DEBA9
:10F4A000010037F0D3FC144B04F1440205A92046B7
:10F4B00002F094FE20F002039BB2C82B01D0642816
:10F4C00011D10023039303238DF810300B4B0093CD
:10F4D000042202AB616C0295204602F0C9FF0123B1
:10F4E00084F84830C8200BB030BD00BF728D0500D5
:10F4F00010260020988D0500CC290020DC29002052
:10F5000070B50C4606461349012003F0F3FD63680D
:10F51000114A43F00F03934206F1240513D10F491A
:10F52000012003F0E7FD06F140013046FFF7A6FF9A
:10F53000C828024618BF40F2F71221462846BDE807
:10F540007040FFF785BF0649012003F0D3FD4FF45B
:10F55000C872F2E7E48B05001F000064088C050008
:10F560002E8C0500A0F12400FFF7CABF10B590F85B
:10F57000483086B0044603B31149012003F0BAFDB8
:10F580000023CDE9033302238DF814300D4B009393
:10F59000052203AB616C204602F06AFF20F00203F3
:10F5A0009BB2C82B024605D0642803D0064901202F
:10F5B00003F0A0FD002384F84830C82006B010BD39
:10F5C000498C0500DC2900206D8C050010B5B0F8D1
:10F5D00088100446243002F08AFB032384F830307C
:10F5E0004FF6FF73A4F888302046BDE81040FFF7BF
:10F5F000BDBFA0F12C00FFF7E9BF000010B5054921
:10F600000446012003F076FD2046BDE81040FFF7D8
:10F61000ADBF00BF108E0500A0F12400FFF7EEBFC4
:10F6200010B505490446012003F064FD2046BDE8FD
:10F630001040FFF79BBF00BFE48D0500A0F1240040
:10F64000FFF7EEBF70B50C4606461149012003F0E6
:10F6500051FD63680F4A43F00F03934206F12405FE
:10F6600009D128462146C822FFF7F2FE3046BDE800
:10F670007040FFF77BBF0849012003F03BFD2146A6
:10F6800028464FF4C872BDE87040FFF7E1BE00BFE6
:10F690009D8D05001F000064C38D0500A0F12400AE
:10F6A000FFF7D0BF2DE9F0411646DFF8C0804A6869
:10F6B000044643460D4642F00F022849012003F05C
:10F6C00019FD94F83030022B04F1240707D040F2E2
:10F6D000F71229463846BDE8F041FFF7B9BE6B681E
:10F6E00043F00F03434536D194F84880B8F1000F3A
:10F6F00002D02046FFF73AFF73683BB9184B19490F
:10F700001948812203F084FC03F092FC083646F28B
:10F710000141304602F014F9304602F06BF90368FB
:10F72000D0ED017A04F16802216D8B4205D052F8C8
:10F73000041B8B42F8D12365F6E767EEA77AC4ED88
:10F74000137AB8F1000F04D004F140012046FFF70E
:10F7500095FEC822BDE740F2F512BAE7B88C050065
:10F76000F48C0500108D0500568D05001F00016406
:10F77000A0F12400FFF796BF30B500230D4DC0F86F
:10F7800094304FF07E52C0F89830C0F89C30C0F8EA
:10F79000A4300024C0F8B030C0F8B430C0F8B8309D
:10F7A0000023C0F89020C0F8A020C0E92A45C0F886
:10F7B0008C3030BD0000F03FF8B501220446002136
:10F7C00002F068FC0122002104F1240002F0B6F9E5
:10F7D00001222349234F04F12C0001F071FB224B3D
:10F7E00003F10802226003F17002AC33E3621F4BA5
:10F7F000E364D023626223650FCF00254FF0000C35
:10F8000004F1640684F848C084F854C0A565E56531
:10F8100025660FC697E80F0086E80F004FF07E536D
:10F82000C4F89030C4F8A030114BC4F884C0002252
:10F83000C4F89450C4F89850C4F89C50C4F8A4502C
:10F84000C4E92A234FF6FF732046C4F8B050C4F829
:10F85000B450C4F8B850A4F88830FFF78DFFF8BD55
:10F86000658E0500C08B0500D08E05006F12833AAF
:10F870000000F03F90F8483013B1012380F8543075
:10F88000704700002DE9F0412DED028B90F83030EB
:10F89000022B90B00446884600F1240705D040F2C0
:10F8A000F7123846FFF7D4FD5DE04B68324A43F06B
:10F8B0000F0393425CD131499FED318A012004F15D
:10F8C000B80603F017FC96E803008DE80300F7EE96
:10F8D000008A04F1A80595E80F00B0EE680AF0EE82
:10F8E000480AB0EE481A00F090FB96E803008DE855
:10F8F000030084ED240A95E80F00B0EE480AC4ED39
:10F90000250A84ED261AF0EE680AB0EE481A00F0D7
:10F910007CFB0023C4F88C30204684ED270AC4ED1C
:10F92000280A84ED291AFFF727FFFFF7A3FFD4F871
:10F9300090300A93D4F894300B93D4F898300C9309
:10F94000A36D0D93E36D0E93236E0F934FF4593314
:10F9500002930AAB039302AB0093C822094B4146C2
:10F96000384602F0D3F910B0BDEC028BBDE8F0814F
:10F9700040F2F51295E700BF1F000064978C050068
:10F980000000000098290020A0F12400FFF77ABFB2
:10F9900038B503888B4205460C4607D8064B074905
:10F9A00007485E2203F034FB03F042FB6B680C2037
:10F9B00000FB043038BD00BF718E0500848E050049
:10F9C000568D0500000000002DE9F04FA84B2DEDED
:10F9D000048B41F00F019942A9B0044615463CD171
:10F9E000104643F6024101F0ABFF284602F002F850
:10F9F000838807468BB394F8546000F1040A8EB3F1
:10FA00000025B6EE008ABB88AB4223D92946504672
:10FA1000FFF7BEFF94ED166AD0ED006A90ED017A13
:10FA2000D0ED027A76EE866A013566EE886AC4ED1C
:10FA3000166AD4ED176A37EE267A27EE087A84ED37
:10FA4000177A94ED187A77EE877A67EE887AC4EDA4
:10FA5000187AD8E7002384F8543029B0BDEC048B21
:10FA6000BDE8F08F9FED839ADFF818B2BB88B342F0
:10FA7000F3D931465046FFF78BFFD0ED018A90ED68
:10FA8000028A0546206D36F0BBF877A3D3E9002340
:10FA900036F030F995ED007AD4ED167A77EE677A84
:10FAA0008046894617EE900A36F0CCF842464B461F
:10FAB00036F04AFA36F0E0FBD4ED177A139078EE80
:10FAC000E77A17EE900A36F0BDF842464B4636F01C
:10FAD0003BFA36F0D1FBD4ED187A149078EE677AC1
:10FAE00017EE900A36F0AEF842464B4636F02CFA46
:10FAF00036F0C2FB159013A800F03CF9D4ED137A50
:10FB000020EE007AB0EE408AB4EEE77AF1EE10FA19
:10FB10002CDD0DF17008F0EE401ADDED140A9DEDBC
:10FB2000130A9DED151A404604F1A80500F03FFAAE
:10FB30000FCD0DF1100CACE80F0095E803008CE838
:10FB400003001EAB0FCB8DE80F000AA898E80C004D
:10FB500000F033F90DF1280CBCE80F0004F1A80EF9
:10FB6000AEE80F009CE8030085E80300D4F8843079
:10FB7000226D042192FBF1F2934270DB28EE098A98
:10FB80005946FCEEC87A012017EE902A04F1B80815
:10FB900003F0B0FA98E803008DE803009FED368A81
:10FBA000F7EE008A04F1A80595E80F00B0EE680AA8
:10FBB000F0EE480AB0EE481ACDED168A8DED178AA0
:10FBC0008DED188A00F021FA98E803008DE8030013
:10FBD00084ED240A95E80F00B0EE480AC4ED250A2A
:10FBE00084ED261AF0EE680AB0EE481A8DED198AF7
:10FBF000CDED1A8A8DED1B8A00F007FA04F1900012
:10FC0000C4ED280A84ED291A84ED270A00F0B2F821
:10FC100004F19C0000F0AEF80023C4F88430D4F85E
:10FC200090302293D4F894302393D4F898302493CE
:10FC3000139B2593149B2693159B27934FF45933BD
:10FC4000119322AB12930D4B00930D4A11AB4FF45D
:10FC5000B23104F1240002F0A3F8013606E70133C3
:10FC6000C4F88430F9E700BFA79196CADBA54C40E1
:10FC70001F00023C00007A4400000000DC29002044
:10FC800098290020478E050010B586B00124039402
:10FC9000064C02944FF003140494089C059402ACA3
:10FCA000009402F0E5FB06B010BD00BFB88B050064
:10FCB0002DE9F043B0F888308B4289B0044631D149
:10FCC00090F848308BBBD0F88C3003F5BB53103321
:10FCD000C4F88C30D4F88C201D4B9A4204AF0DF13F
:10FCE0000E0824D9012500264FF003093B462A4679
:10FCF0001849CDF800802046CDE904668DF81890AB
:10FD00008DF80E50FFF7C0FFCDF800803B462A4625
:10FD100011498DF818902046CDE904668DF80E50F3
:10FD2000FFF7B2FF09B0BDE8F0830023D0E702235C
:10FD3000ADF80E30094B0493094B00970122CDE931
:10FD400006380849084B0592204602F091FBE9E786
:10FD50001FBF02001F00030B1F000009B88B050026
:10FD6000050003000F0000429C290020A0F12400A0
:10FD7000FFF79EBF90ED010A90ED007AD0ED027A78
:10FD800020EE000A10B5A7EE070A0446A7EEA70A60
:10FD900034F088FFD4ED006A86EE807AD4ED016AF3
:10FDA00084ED007A86EE807AD4ED026A84ED017AE1
:10FDB00086EE807A84ED027A10BD82B02DE9F0479C
:10FDC0002DED068B0EA981E80C00DDE91445DDE977
:10FDD0000E6782469DED10AADDED168A9DED119A03
:10FDE000DDED179A9DED128ADDED18AA22462B460D
:10FDF0003046394635F07EFF6AEE287A804617EEA7
:10FE0000900A894635F01EFF02460B464046494699
:10FE100035F0B8FD69EE297A804617EE900A8946DA
:10FE200035F010FF02460B464046494635F0AAFD24
:10FE300068EE2A7A804617EE900A894635F002FF6E
:10FE400002460B464046494635F09CFDCAE9000192
:10FE500018EE900A35F0F6FE32463B4635F04AFF82
:10FE600080461AEE100A894635F0ECFE22462B46F3
:10FE700035F040FF02460B464046494635F084FDCA
:10FE800069EE2A7A804617EE900A894635F0DAFE46
:10FE900002460B464046494635F076FD68EE297A23
:10FEA000804617EE900A894635F0CCFE02460B4696
:10FEB0004046494635F066FD36F0DEF9CAF80800DE
:10FEC00019EE900A35F0BEFE32463B4635F012FF81
:10FED0006AEE2A7A804617EE900A894635F0B2FE1D
:10FEE00002460B464046494635F04CFD804619EE29
:10FEF000100A894635F0A6FE22462B4635F0FAFE5A
:10FF000002460B464046494635F03EFD68EE287AEB
:10FF1000804617EE900A894635F094FE02460B465D
:10FF20004046494635F030FD36F0A6F9CAF80C00D7
:10FF30001AEE900A35F086FE32463B4635F0DAFE80
:10FF40006AEE297A064617EE900A0F4635F07AFED9
:10FF500002460B463046394635F016FD69EE287AE2
:10FF6000064617EE900A0F4635F06CFE02460B4629
:10FF70003046394635F006FD064618EE100A0F46A3
:10FF800035F060FE22462B4635F0B4FE02460B46A5
:10FF90003046394635F0F8FC36F06EF9BDEC068B8C
:10FFA000CAF810005046BDE8F04702B0704710B5DF
:10FFB0002DED048BB6EE008A21EE888A84B0F0EE37
:10FFC000409AB0EE480A0446B0EE609AF0EE418ADC
:10FFD00034F0CEFD10EE100A35F034FEB0EE480AD3
:10FFE000C4E9000134F014FE20EE099A60EE288A7C
:10FFF00069EE809A2046C4ED029A84ED039AC4ED1E
:020000022000DC
:10000000048A04B0BDEC048B10BD84B070B5AEB0F2
:1000100032AC84E80F00002200238DED0F0ACDEDF5
:10002000100A8DED111ACDE91C230FAA07CA1EABC9
:1000300083E807001CAD0FCD04AC0FC495E80300A6
:1000400084E8030034AB0FCB8DE80F0022AE32AB57
:1000500030460CCBFFF7B1FEDDE932239DED357A5A
:10006000DDED367ADDED346ACDE92823B1EE477A4D
:10007000F1EE677AF1EE666ACDED2C7ACDED2A6A63
:100080008DED2B7A28AD0FCD04AC0FC495E803009D
:1000900084E8030024AB0FCB8DE80F0016A896E888
:1000A0000C00FFF78AFE18AA07CA13AB83E8070003
:1000B0009DED130ADDED140A9DED151A2EB0BDE875
:1000C000704004B07047F7B502AE0546186846F8B0
:1000D000040D00200446A24204D8814282BFA75DDD
:1000E0002F5401300134042CF5D102AE5F6846F87C
:1000F000047DA24206D8814281BF371917F8047CDB
:100100002F5401300134082CF3D102AE9F6846F819
:10011000047DA24206D8814281BF371917F8087CB6
:100120002F54013001340C2CF3D102AEDF6846F8B5
:10013000047DA24206D8814281BF371917F80C7C92
:100140002F5401300134102CF3D102AE1F6946F850
:10015000047DA24206D8814281BF371917F8107C6E
:100160002F5401300134142CF3D15E6902AB43F8F3
:10017000046DA24206D8814281BF1E1916F8146C84
:100180002E5401300134182CF3D103B0F0BDF7B573
:10019000002407460DF1040C20461D88AC424FEAAE
:1001A000840614D25D6855F824500195002506EBAD
:1001B000050E724506D8814282BF15F80CE007F89B
:1001C00000E001300135042DF1D10134E5E702AC46
:1001D0009B6844F8043D0023F518AA4204D88142E4
:1001E00082BF1D5D3D5401300133042BF4D103B0B7
:1001F000F0BDF7B502AD0746186845F8040D0020BC
:100200000446944204D3814282BF665D3E5401306D
:100210000134042CF5D100259E88B54215D29E6884
:10022000944236F8156003D388423CBF3E540130F7
:1002300004F1010C944505D3814282BFC6F3072621
:100240003E54013002340135E6E703B0F0BDF7B5A6
:1002500002AD0646586845F8040D00200446A24247
:1002600004D8814282BF675D375401300134042CC9
:10027000F5D11D6802AB43F8045DA24206D8814265
:1002800081BF1D1915F8045C355401300134082C68
:10029000F3D103B0F0BDF7B5D3E9006702AD65E96E
:1002A000026700231C46A24204D8994282BF665DC1
:1002B000C65401330134082CF5D1184603B0F0BD03
:1002C000F7B502AD0646586845F8040D002004460F
:1002D000A24204D8814282BF675D375401300134A5
:1002E000042CF5D11D6802AB43F8045DA24206D888
:1002F000814281BF1D1915F8045C35540130013469
:10030000082CF3D103B0F0BD8389808803440C200E
:100310005843043070478389808803440C20584335
:100320000430704783898288808A134418440C23E0
:10033000584304307047B0F5E06F0FD006D840F254
:10034000091398420AD04FF0FF307047B0F5785F3C
:1003500004D0B0F5C84FF6D1182070470820704778
:10036000B0F5E06F70B513D00A4C00220C2505FBE8
:1003700002F31E5B864206D123445E688E4202D1A0
:100380009B68188870BD0132432AF0D10020F9E73C
:100390000420F7E7E89B0500392070474D2070479F
:1003A0003920704713B50446082101F0C9FA616885
:1003B0000822684636F02BFCDDE9000102B010BDD2
:1003C000B0F5785F10B502460C467BD025D843F6D1
:1003D0000233984215D00CD840F2091398427FD0CE
:1003E000B0F5E06F77D001203F4902F083FE002096
:1003F0003AE043F60243984203D043F60253984250
:10040000F1D11146204601F09BFA204601F0F2FAA4
:1004100083880C205843043026E044F2026398425B
:100420002FD011D8B0F5804F1FD044F2013398423D
:10043000D9D10146204601F083FA204601F0DAFACC
:100440000088013080000FE044F2046188422ED021
:1004500023D3B0F5C84FC6D10146204601F070FA4B
:10046000204601F0C7FA182010BD40F203212046B3
:1004700001F066FA204601F0BDFA808802304000A3
:10048000F2E7204644F2036101F05AFA204601F0F7
:10049000B1FABDE81040FFF737BF204601F050FA2F
:1004A000204601F0A7FABDE81040FFF734BF204610
:1004B000194601F045FA204601F09CFABDE81040CB
:1004C000FFF730BF43F60161204601F039FA2046BC
:1004D00001F090FA02E00846FFF764FF0820C3E746
:1004E00040F20111F0E700BFB89105002DE9F04F8F
:1004F00085B091469A461A6804AB002443F8042D4F
:10050000074688462546A94504D8A04582BFEA5C2F
:100510003A5501340135042DF5D10AF104030026C2
:1005200000930DF10C0BBAF804309E4246D23146CE
:100530000098FFF72DFA036803930023EA184A4551
:1005400005D3A04582BF13F80B203A55013401337F
:10055000042BF3D12A1D314600980192FFF718FAB7
:10056000019A43680393ABEB050105F1080391453C
:1005700006D8A04581BF881810F8040C38550134FE
:1005800001329A42F3D1314600980193FFF700FA05
:10059000019B8268039205F10C02ABEB05059945BE
:1005A00006D8A04581BFE91811F8081C3955013457
:1005B00001339A42F3D101361546B4E7204605B01F
:1005C000BDE8F08F2DE9F04F85B091469A461A6844
:1005D00004AB002443F8042D074688462546A94568
:1005E00004D8A04582BFEA5C3A5501340135042D98
:1005F000F5D10AF10403002600930DF10C0BBAF8B3
:1006000004309E4246D231460098FFF7C1F9036894
:1006100003930023EA184A4505D3A04582BF13F887
:100620000B203A5501340133042BF3D12A1D3146F6
:1006300000980192FFF7ACF9019A43680393ABEB82
:10064000050105F10803914506D8A04581BF88182A
:1006500010F8040C3855013401329A42F3D1314676
:1006600000980193FFF794F9019B8268039205F1CA
:100670000C02ABEB0505994506D8A04581BFE918EA
:1006800011F8081C3955013401339A42F3D101366F
:100690001546B4E7204605B0BDE8F08F2DE9F04FD0
:1006A00087B0904601931A6806AB002443F8042DE6
:1006B00006460F462546A84504D8A74282BFEA5CF5
:1006C000325501340135042DF5D1019B04334FF02F
:1006D000000A02930DF1140B019B9A88924559D39D
:1006E0000C3305F108094FF0000B6D4202930DF138
:1006F000140AA9F108030393019B9A89934580F09A
:10070000918059460298FFF743F9039B02680592CE
:1007100000229918884505D8A74282BF12F80A100E
:10072000315501340132042AF3D1A9F104035946A9
:1007300002980393FFF72CF9039B426805920AEB9A
:100740000502984506D8A74281BFD11811F8041CAC
:100750003155013401334B45F3D159460298FFF727
:1007600017F98368059309F104024B460AEB05016A
:10077000984506D8A74281BFC81810F8080C305514
:10078000013401339342F3D10BF1010B09F10C0950
:100790000C3DAEE751460298FFF7FAF80268059261
:1007A0000022A918884505D8A74282BF12F80B106D
:1007B000315501340132042AF3D12A1D51460298E1
:1007C0000392FFF7E5F8039A4168059105F10809DE
:1007D000ABEB0501904506D8A74281BF881810F8F9
:1007E000040C3055013401329145F3D15146029841
:1007F000FFF7CEF88268059205F10C02ABEB050518
:10080000C84507D8A74281BF05EB090111F8081CAC
:100810003155013409F101099145F1D10AF1010A7B
:100820004D4659E7204607B0BDE8F08F2DE9F04F5F
:1008300087B0904601931A6806AB002443F8042D54
:1008400006460F462546A84504D8A74282BFEA5C63
:10085000325501340135042DF5D1019B04334FF09D
:10086000000A02930DF1140B019B9A88924559D30B
:100870000C3305F108094FF0000B6D4202930DF1A6
:10088000140AA9F108030393019B9A89934580F008
:10089000918059460298FFF77BF8039B0268059206
:1008A00000229918884505D8A74282BF12F80A107D
:1008B000315501340132042AF3D1A9F10403594618
:1008C00002980393FFF764F8039B426805920AEBD2
:1008D0000502984506D8A74281BFD11811F8041C1B
:1008E0003155013401334B45F3D159460298FFF796
:1008F0004FF88368059309F104024B460AEB0501A2
:10090000984506D8A74281BFC81810F8080C305582
:10091000013401339342F3D10BF1010B09F10C09BE
:100920000C3DAEE751460298FFF732F80268059297
:100930000022A918884505D8A74282BF12F80B10DB
:10094000315501340132042AF3D12A1D514602984F
:100950000392FFF71DF8039A4168059105F1080914
:10096000ABEB0501904506D8A74281BF881810F867
:10097000040C3055013401329145F3D151460298AF
:10098000FFF706F88268059205F10C02ABEB05054E
:10099000C84507D8A74281BF05EB090111F8081C1B
:1009A0003155013409F101099145F1D10AF1010AEA
:1009B0004D4659E7204607B0BDE8F08F2DE9F04FCE
:1009C00087B0904601931A6806AB002443F8042DC3
:1009D00006460F462546A84504D8A74282BFEA5CD2
:1009E000325501340135042DF5D1019B4FF000093A
:1009F00003F1040A0DF1140B019B9B8899456AD3FE
:100A0000019B0C3305F108094FF0000B6D42029376
:100A10000DF1140A019A92899345A9F10803C0F0D7
:100A2000A280019B1433C9F108054FF0000B02931B
:100A30000DF1140AA9F108030393019B9A8A9345C7
:100A400080F0DB8059460298FEF7A2FF039B026804
:100A5000059200229918884505D8A74282BF12F84E
:100A60000A10315501340132042AF3D1A9F10403EB
:100A7000594602980393FEF78BFF039B4268059249
:100A80000AEB0502984506D8A74281BFD11811F894
:100A9000041C3155013401334B45F3D159460298BA
:100AA000FEF776FF8368059309F104024B460AEBD3
:100AB0000501984506D8A74281BFC81810F8080C50
:100AC0003055013401339A42F3D10BF1010B09F196
:100AD0000C090C3DAEE749465046FEF759FF036846
:100AE00005930023EA18424505D3A74282BF13F8B5
:100AF0000B20325501340133042BF3D12A1D494612
:100B000050460292FEF744FF029A43680593ABEB0E
:100B1000050105F10803904506D8A74281BF881852
:100B200010F8040C3055013401329A42F3D1494691
:100B300050460293FEF72CFF029B8268059205F156
:100B40000C02ABEB0505984506D8A74281BFE91812
:100B500011F8081C3155013401339A42F3D109F1DF
:100B60000109154648E7594602980393FEF710FF1E
:100B7000039B0268059200229918414505D3A742BC
:100B800082BF12F80A10315501340132042AF3D120
:100B9000A9F10403594602980393FEF7F9FE039B5B
:100BA000426805920AEB0502984506D8A74281BF24
:100BB000D11811F8041C3155013401339945F3D192
:100BC00059460298FEF7E4FE8368059309F1040292
:100BD0004B460AEB0501984506D8A74281BFC818C5
:100BE00010F8080C3055013401339A42F3D10BF15F
:100BF000010B09F10C090C3D0CE7204607B0BDE8DC
:100C0000F08F2DE9F04F85B091469A461A6804ABF3
:100C1000002443F8042D074688462546A94504D8F4
:100C2000A04582BFEA5C3A5501340135042DF5D167
:100C30000AF10403002600930DF10C0BBAF80430FE
:100C40009E4246D231460098FEF7A2FE0368039307
:100C50000023EA184A4505D3A04582BF13F80B20AC
:100C60003A5501340133042BF3D12A1D3146009843
:100C70000192FEF78DFE019A43680393ABEB0501E9
:100C800005F10803914506D8A04581BF881810F8E2
:100C9000040C3855013401329A42F3D131460098A0
:100CA0000193FEF775FE019B8268039205F10C0229
:100CB000ABEB0505994506D8A04581BFE91811F8A9
:100CC000081C3955013401339A42F3D101361546D7
:100CD000B4E7204605B0BDE8F08F0000F7B5B3F5E6
:100CE000785F0E46054617461946089C00F0AE8010
:100CF00029D843F60233994254D00FD840F2091351
:100D0000994200F0BE80B1F5E06F00F0AE800A4677
:100D10000120634902F0EEF9002041E043F602436E
:100D200099424CD043F602539942F0D1204600F04C
:100D300007FE204600F05EFE3A460346314628464E
:100D4000FFF75FFF2CE044F20263994253D013D8BF
:100D5000B1F5804F40D044F201339942D7D12046BB
:100D600000F0EEFD204600F045FE3A4603463146CF
:100D70002846FFF70CFA13E044F20462914257D080
:100D800048D3B1F5C84FC2D1204600F0D9FD204666
:100D900000F030FE3A46034631462846FFF793F905
:100DA00003B0F0BD204600F0CBFD204600F022FE4F
:100DB0003A46034631462846FFF798FBF0E72046BF
:100DC00000F0BEFD204600F015FE3A4603463146CF
:100DD0002846FFF7F7FBE3E740F20321204600F047
:100DE000AFFD204600F006FE3A460346314628464F
:100DF000FFF7FFF9D4E744F20361204600F0A0FDBD
:100E0000204600F0F7FD3A46034631462846FFF7F4
:100E100045FCC5E71146204600F092FD204600F053
:100E2000E9FD3A46034631462846FFF7FFFCB7E79F
:100E30001946204600F084FD204600F0DBFD3A46CE
:100E4000034631462846FFF7B9FDA9E743F601619D
:100E5000204600F075FD204600F0CCFD3A460346E2
:100E600031462846FFF7F3F99AE72046FFF79AFA4A
:100E700002AB63E902013A4631462846FFF70BFA16
:100E80008EE740F20111204600F05AFD204600F0A6
:100E9000B1FD3A46034631462846FFF711FA7FE78F
:100EA000E99105000149024800F0A4BBA0A8050093
:100EB00084290020014800F095BB00BF8429002050
:100EC00010B5064B03600023044603718160027372
:100ED000036100F071F9204610BD00BF6CFB0500F6
:100EE00010B5034B0360044600F0A8F9204610BD7E
:100EF0006CFB0500407970470223037301207047A3
:100F0000A0F10800FFF7F8BF032303737047A0F1B7
:100F10000800FFF7F9BF70477047C26883684068F0
:100F200012F0010F4FEA620218BF8158104418BF37
:100F3000CB581847C2688368406812F0010F4FEA27
:100F4000620218BF8158104418BFCB58184713B518
:100F500002AA40F2111322F8023D0121044600F0DA
:100F600047FEC8280BBF0120002001230423237360
:100F700002B010BDA0F10800FFF7E9BF13B502AA47
:100F800040F2111322F8023D0121044600F04EFE0A
:100F90000023237302B010BDA0F10800FFF7EEBFDD
:100FA00010B503790446D80709D5206803689B6803
:100FB0009847A07118B9237923F00203237123798C
:100FC000990704D5206803681B699847A0712379A5
:100FD0005A0705D5206803685B6998470123A37108
:100FE00023791B0705D520680368DB689847012330
:100FF000A3710123637123681B7B23B10020BDE82B
:10100000104001F018BE10BD10B5044601F0D8FF25
:10101000204610BD10B5044601F0D2FF204610BD99
:1010200038B543688B4204460D4607D8054B064940
:101030000648812201F0ECFF01F0FAFF04EBC50045
:10104000083038BDF48C0500ACFB0500568D05005A
:1010500013B500210068FFF7E3FF0446052100F007
:101060006FFC022261680DF1060035F0D0FDBDF87D
:10107000060002B010BD00002DE9F0433A4BC9B0A4
:101080001C685368039206460F469BB10021104628
:10109000FFF7C6FF03880E2B02D813F0FF0F09D00D
:1010A00003A8FFF7D5FF002C45D018B101382469FB
:1010B00080B2F8E700230DF120081A4648F83320E3
:1010C0000133202BFAD100254FF040099CB1202D8F
:1010D00011D0A06835F09CFF09308144B9F5EB7F51
:1010E00009D8A36848F8353008EBC50322791A718E
:1010F00024690135EAE74FF48A72ADF818209DF8AB
:101100001A20ADF8105042F0030202F0C3026FF350
:101110008712002C06AB04A98DF81A204FF00002AC
:101120008DF81B200093CDF8148007910F4B14BF4E
:101130006422C82210E003A8FFF78AFF01460C488A
:1011400001F066FF0B4A92E8030008AB83E8030056
:101150000093064B4FF4D0723946304600F0D6FD6E
:1011600049B0BDE8F08300BF8C29002098290020F9
:10117000C0FB05009029002010B500210068FFF792
:101180004FFF0C21044600F0DBFB2046BDE8104079
:1011900000F0FCBB38B50B46044601211868FFF788
:1011A0003FFF0546032100F0CBFB01226968204682
:1011B00035F02DFD204638BD70B5044681681848CD
:1011C00001F026FFA06835F023FF202807D9154B32
:1011D000154916488E2201F01BFF01F029FF2369F3
:1011E0003BB1134B10491148912201F011FF01F05E
:1011F0001FFF104D2E6876B1A168B06835F0F6FE7D
:1012000038B90D4B08490948992201F001FF01F056
:101210000FFF3669EFE72B6823612C6070BD00BFBC
:10122000E9FB0500FBFB0500ACFB0500568D050046
:101230004CFC05008C2900206ABB060010B58168B3
:1012400004460F4801F0E4FE0E4B1A68944202D1A6
:1012500022691A6010BD13693BB1A34202D11B6918
:10126000136110BD1A461B69F6E7074B074908488A
:10127000BC2201F0CDFEBDE8104001F0D9BE00BF98
:1012800069FC05008C2900206ABB0600ACFB050048
:10129000568D05000A780379032A1DD8DFE802F08D
:1012A00002080F1613F0FB0F0CBF0120002070473F
:1012B00003F0FD02012A11D0052B13D10EE0022B01
:1012C0000ED0052B14BF00200420704703F0FD0250
:1012D000012A0DD108207047FF2070470220704777
:1012E0000420704713F0FB0F14BF00200320704749
:1012F000022B04D0052B14BF00200C2070470C20BB
:1013000070470000F0B58BB000230646087B0193C0
:101310000D4600918DF8042001F06BFC044618B1D5
:101320006846FFF73DFE3DE0214B02930590214BBF
:10133000287BCDF80CD002A9049301F09EFC07464F
:1013400038B91D4B1B787BB31C4A214601F014FEB3
:101350002AE0214601F0BEFC194B06932046194BAA
:10136000CDF81CD00893099401F043FC18B106A8ED
:1013700001F049FC13E00836B54208D0124B13497E
:10138000134840F2131201F043FE01F051FE06A88B
:10139000FFF7C3FD18B9022001F0D6FDF7E7384684
:1013A00001F080FC9DF8064020460BB0F0BD00BF68
:1013B000A0FB0500A10F0200142600207EFC050002
:1013C0008CFB0500F50E02009CFC0500ACFB050043
:1013D000568D050037B504460022114604F1080574
:1013E00000F0ACFB002215492846FFF769FD144BBD
:1013F00023604C33A36020221249134801F008FEF9
:10140000124B1B689D4201D1A3693BB1104B11499E
:1014100011485A2201F0FCFD01F00AFE02A9012345
:1014200001F8043D2846FFF735FF294602462046CD
:10143000FFF768FF204603B030BD00BFD1FC0500B8
:10144000B8FD05001CFE0500E1FC05008C2900200C
:10145000F1FC0500ACFB0500568D0500154B37B5BA
:10146000054603604C3345F8083F134B1B689D420B
:10147000044601D183693BB1104B114911486422E4
:1014800001F0C6FD01F0D4FD02A9032301F8043DDB
:101490002846FFF7FFFE294602462046FFF732FFA7
:1014A0002846FFF71DFD204600F006FB204603B04E
:1014B00030BD00BFB8FD05008C290020F1FC0500FF
:1014C000ACFB0500568D0500A0F10800FFF7C6BF74
:1014D00010B50446FFF7C2FF204634F037FA204625
:1014E00010BDA0F10800FFF7F3BF000038B5084BAE
:1014F0001C680D4629462CB1A06835F077FD20B157
:101500002469F7E7034801F083FD204638BD00BF9A
:101510008C29002022FD05002DE9F04186B006ACA3
:10152000064644F80C2D20468846FFF725FE014666
:101530003046FFF7DBFF04AD074648B92046FFF70A
:101540001BFE0146224801F063FD4FF4CA722CE0F5
:1015500021462846FFF71EFE29463846FFF79AFE29
:10156000FF28024616D080B339463046FFF7CAFE40
:1015700058BB21462846FFF70DFE20469DF8107007
:10158000FFF7FAFD39460246124801F041FD4FF4DB
:10159000FA720AE021462846FFF7FCFD9DF810107C
:1015A0000D4801F035FD4FF4C8720C4B93E8030071
:1015B00042F4803285E80300094B009541463046ED
:1015C00000F0A4FB06B0BDE8F081C822EDE700BF43
:1015D0003DFD050083FD05005DFD0500902900200F
:1015E00098290020704710B5044634F0AFF9204622
:1015F00010BD0000014A02604160704734FE0500E2
:10160000406810B510B94FF4C87010BD8207FAD108
:1016100002680A4B9A420ED14168B1F1807FF2D242
:101620008B07F0D184680C390C3001F086FB8442C2
:10163000E9D1C82010BD40F2F91010BD5742523018
:101640004FF6FF73994208D04268B2F854308B428B
:1016500003D9D3680B44D0187047002070474FF669
:10166000FF73994270B519D04268CEB2B2F86230B9
:1016700009120131994211D2946A14444D0034F890
:101680001130B3420AD92C44516A34F8023C334435
:101690009BB2062000FB0310104470BD002070BDFB
:1016A00038B505460C4621882846FFF7D8FF28B1F3
:1016B0000378012B02D183882380F4E738BD436887
:1016C000B3F86000884270B515D9986A00241844B0
:1016D000E5B26E1C013430F81660B142F8D230F831
:1016E000150001EB0524201A10805A6A062000FB21
:1016F0000121581870BD002070BD4FF6FF7399424C
:101700000AD04368B3F858208A4205D95A6906209E
:1017100000FB012158187047002070474FF6FF73F7
:10172000994209D04268B2F85A308B4204D9936981
:1017300003EB4103D0187047002070474FF6FF734A
:101740009A4217D04B68B3F85C108A4205D2D96927
:1017500001EB4202134401220AE0521AB3F85E1070
:1017600092B2914206D9196A01EBC20213440022D7
:10177000027001E000230370436070474FF6FF736F
:1017800099420AD04368B3F864208A4205D9DA6ADC
:10179000062000FB012158187047002070474FF6C3
:1017A000FF73994209D04268B2F866308B4204D97F
:1017B000136B03EB4103D0187047002070474FF6BE
:1017C000FF73994209D04268B2F868308B4204D95D
:1017D000536B03EB8103D0187047002070474FF61E
:1017E000FF73994209D04268B2F86A308B4204D93B
:1017F000936B03EB4103D0187047002070474FF6FE
:10180000FF7399420AD04368B3F86C208A4205D925
:10181000DA6B0C2000FB012158187047002070473C
:101820004FF6FF7399420AD04368B3F86E208A429C
:1018300005D91A6C0C2000FB0121581870470020B4
:101840007047FF2909D04268B2F870308B4204D942
:10185000536C03EB4103D018704700207047426877
:10186000D368B2F85400D1180344134400209942BD
:1018700006D011F8012B002AF9D1013080B2F6E729
:10188000704773B50B880380837803F0E00343F05F
:10189000140303F0DF036FF3871383700446887823
:1018A000E0704B6863600B88DBB102AD002305F884
:1018B000013D8DF806300BF035FC03681B69984735
:1018C000036861681E680DF106022B46B047A378D5
:1018D0009DF8072062F300039DF8062062F34103A0
:1018E000A370204602B070BD38B50D46044650B115
:1018F000837843F0030303F0C3036FF3871383700C
:101900000023C37043602B7823800C2B02D1AB687B
:1019100063600DE003F0FD030D2B07D1054B064975
:1019200006484E2201F074FB01F082FB0835656029
:10193000204638BD3CFE05009DFE0500568D050085
:1019400008B503888B420FD00F2901D10F2B0BD87C
:101950000F2B09D0054B06490648662201F058FBBB
:10196000BDE8084001F064BB08BD00BFA7FE05004C
:101970009DFE0500568D0500436818787047436842
:1019800093F90000704743681878704740687047C3
:10199000406870470B880E2B37B505460C460DD9AD
:1019A000A37803F00C03042B11D00E4B0E490F4803
:1019B000962201F02DFB01F03BFB08E00C4B0A499D
:1019C0000A48922201F024FB01F032FBE8E7636849
:1019D0000093E27821880023284614F0B1F92846C4
:1019E00003B030BD3CFF05009DFE0500568D05008F
:1019F0006DFF050030B5837803F00C030C2B85B028
:101A0000044607D11D4B1E491E48A62201F000FBCB
:101A100001F00EFBA37803F00C03042B2BD1E0782C
:101A20000BF080FB05460BF057FF03AA21882C30F2
:101A30000EF0C4F9B0B12B6828461B699847039A89
:101A4000036800925D68218862680023A84760608F
:101A500040B1A37803F0F20343F009036FF30413DA
:101A6000A37008E0084B06490648B32201F0D0FAFB
:101A700001F0DEFAEDE7606805B030BD93FF0500C8
:101A80009DFE0500568D0500C7340600064A937872
:101A900043F00303002103F0C30361F387131180B4
:101AA0009370D17051607047902900207047704743
:101AB00070470BF011BF000010B5054B03600446E2
:101AC0000BF00AFF21460BF0CDFF204610BD00BFF2
:101AD000D4FF050010B50446FFF7EEFF204633F0B3
:101AE00035FF204610BD0000036810B5044643B919
:101AF000054B064906484FF4767201F089FA01F069
:101B000097FA206810BD00BF080006001E000600FE
:101B1000568D050038B5084B5B78044653B10388F1
:101B200023F00205C82D05D0642B03D0CC2B01D0A7
:101B30000DF0B4FD208838BD142600200F4B10B5E1
:101B4000036000230371437903F0F00362F307138A
:101B500043714FF6FF730446C3800BF0BDFE214670
:101B60000BF044FFC82807D0054B06490648292238
:101B700001F04EFA01F05CFA204610BDD4FF0500DA
:101B8000330006001E000600568D05000048704711
:101B9000836D06004379C28800201B096FF30300A0
:101BA00063F307106FF30F2062F31F407047C08884
:101BB0007047000038B581F4004247F6FE739A4240
:101BC00005460C4607D8054B054906484B2201F04F
:101BD0001FFA01F02DFAEC8038BD00BF4A00060064
:101BE0001E000600568D0500407900097047000070
:101BF0000368F7B59B680E461746044698470546A6
:101C00002046FFF7C7FF3A460346314628460CF008
:101C100079FE02AB5B2223F8020D03491846FFF759
:101C200079FF03B0F0BD00BF1E000600F0B50368E9
:101C300085B09B680E4617460446984705462046E1
:101C4000FFF7A8FF012300933A4603463146284692
:101C50000CF0C2FD04AB602223F8020D02491846C5
:101C6000FFF758FF05B0F0BD1E000600036873B50E
:101C70009B680E460446984705462046FFF78AFFB4
:101C80003246014628460CF00BFB02AB652223F8D6
:101C9000020D03491846FFF73DFF02B070BD00BFBB
:101CA0001E000600036873B59B68164604460D4681
:101CB00098472030FFF718FF6379E28800921B09EC
:101CC000324629460DF0B6FD02B070BD036870B50E
:101CD0009B680D461646044698472030FFF704FFE0
:101CE000E38832462946BDE870400DF0F3BD38B5B3
:101CF00003689B680D46044698472030FFF7F4FEC2
:101D00002A46E188BDE838400DF040BEF0B585B008
:101D100014461F4605460E46FFF73CFFE3030390BB
:101D200008D503A800F054FF037843F001030370C3
:101D300024F480342B6828469B6898470A9B0193BB
:101D40003246A3B2039900970CF060FB04AB8622E5
:101D500023F8060D02491846FFF7DCFE05B0F0BD7A
:101D60001E00060007B5054B009340F2F512044B28
:101D7000FFF7CCFF03B05DF804FB00BF9029002003
:101D80009829002007B5044B0093C822034BFFF7A6
:101D9000BDFF03B05DF804FB9029002098290020C6
:101DA000F0B585B01F4605460C461646FFF7F2FE15
:101DB000CB03039006D503A800F00AFF037843F095
:101DC000010303702B6828469B6898470A9B019380
:101DD000A2B23346039900970CF072FB04AB922237
:101DE00023F8060D02491846FFF794FE05B0F0BD32
:101DF0001E0006002DE9F04105460F461646002458
:101E000073689C4218D221463046FFF709F90388CF
:101E10000E2B01D80D2B01D00134F1E7072C0BD884
:101E20002B6821463046D3F81480FFF7F9F839467D
:101E300002464346284604E02B681B693246394671
:101E40002846BDE8F0411847014B00221A70704740
:101E50009829002070477047704770477047704757
:101E6000704770477047C2688368406812F0010F7E
:101E70004FEA620218BF8158104418BFCB58184768
:101E80000BF02ABD10B5054B036004460BF024FD92
:101E900021460BF085FE204610BD00BFE80006007D
:101EA00010B50446FFF7EEFF204633F04FFD204605
:101EB00010BD10B5044633F049FD204610BD10B5E5
:101EC000044633F043FD204610BD000030B5816963
:101ED00087B0044619B9214801F09AF83CE004ADF6
:101EE000CB8902690393103128460292FFF7FCFC6C
:101EF000217B029A039B052924D8DFE801F003081F
:101F00000F14191E206800952189456903E0206897
:101F10000095218985692046A8471BE02068009527
:101F20002189C56AF7E7206800952189056BF2E7EA
:101F3000206800952189C569EDE720680095218911
:101F4000056AE8E7064B07490748FD2201F060F8FB
:101F500001F06EF80023A36107B030BD6590060064
:101F60006ABB060024010600568D050010B5044624
:101F700001F026F8204610BD10B5044B036004465E
:101F8000406900F08FFE204610BD00BFD40006005F
:101F9000038813B15A1C92B201E00222012302808D
:101FA00001B10B8018467047036810B5044643B969
:101FB000054B064906484FF4767201F029F801F006
:101FC00037F8206810BD00BF080006002401060095
:101FD000568D050010B50446FFF7CEFF14B120461C
:101FE00000F0EEFF204610BD38B54569044600F00C
:101FF0006CFF0146284600F04EFE40B9074B0849E9
:1020000008484FF4957201F003F801F011F8201D13
:10201000FFF729FF2046FFF7DDFF38BD3701060037
:1020200024010600568D05001FB5044600780128DE
:102030001DD0114BA2681B788BB16168C2F30723D6
:10204000120C090C029301920C4B0D4A00910021D5
:10205000022808BF13460B4A084600F08DFF0A4BC2
:102060000A490B48702200F0D3FF00F0E1FF022381
:10207000237004B010BD00BF1426002071010600BB
:10208000610106007B010600C7340600240106003A
:10209000568D0500092110B501731349134B0968CA
:1020A0000360016100234FF6FF7104464360038122
:1020B000C381838283618183C38380F8202080F879
:1020C000213080F822100BF007FC21460BF028FD90
:1020D000C82807D0064B07490748522200F098FF4E
:1020E00000F0A6FF204610BD40030600E8000600F1
:1020F0003300060024010600568D05000048704795
:10210000836D0600838B90F8202000206FF303007E
:1021100062F307106FF30F2063F31F407047808B4B
:102120007047000038B50B0405460C4607D4054B34
:1021300005490648732200F06BFF00F079FFAC837D
:1021400038BD00BFA001060024010600568D050021
:1021500090F8200070470000F7B5089E00249E46C6
:102160003460002933D01C4C246801948C89002CE5
:102170002FD00C78092C05D09EF800703C1B6742CC
:10218000674100E001270D891DB114880134A54283
:1021900007DC4D893DB11488AC42ACBF0025012558
:1021A00002E0002500E001254C68019BA34203D01A
:1021B000031B5C425C4100E0012437B12DB124B126
:1021C000138831600133138001E02831CEE70846DF
:1021D00000E0204603B0F0BD400306002DE9FF41BA
:1021E000984603689B6804460E461746984798F839
:1021F0000030054623B12046FFF784FF034601E087
:102200000A4B1B680122009231463A4628460BF0E1
:1022100017FD04AB40F2071223F8020D04491846DB
:10222000FFF778FC04B0BDE8F08100BF480306006A
:10223000240106002DE9F04385B004AE062306F81C
:10224000023D00F118030093044688461746416892
:1022500000F108021F4833460068FFF77DFF05467E
:10226000B8B13B680BB122891A802B7C43B11A4B61
:102270001A491B4840F21B1200F0CAFE00F0D8FEBB
:1022800023686A68DE682189EB892046B047A889FF
:102290001DE0236820469B68984705462046FFF7C7
:1022A00031FF3968814604F11E00FFF771FE7B683B
:1022B00000934A460346414628460BF06FFF40F222
:1022C0002512ADF80E0005493046FFF723FC05B096
:1022D000BDE8F0834003060000020600240106006A
:1022E000568D05002DE9F04F9A4690F82230FF2BCD
:1022F00097B004468946174640F0998003689B686A
:102300009847836A054643B9524B5349534840F2B4
:10231000DF3200F07DFE00F08BFEAE6A06F11008A1
:102320000021404613F0F4FAC0B2FF2884F82200DE
:102330007AD07B6800935D1E29463846FEF770FE12
:102340000D218346FFF7FCFA5846FFF721FB019069
:1023500040B9434B404941484FF4C97200F058FE20
:1023600000F066FE3F4B0795072D069307D93E4BBD
:1023700039493A48912200F04BFE00F059FE012500
:10238000009BAB4205F1FF3B16D0079B9B4507D353
:10239000364B314931487A2200F03AFE00F048FECF
:1023A00059463846FEF73CFE03C806AB03EBC503AF
:1023B00083E803000135E3E7B36994F822509B8872
:1023C000376A5D437E19B9F8023073807B53DAF8BF
:1023D00004307360019BB360DAF8043004939DF815
:1023E000143043F003034FF0000A03F0F3036AF3E1
:1023F00007138DF814302368CDF80CA09B68204695
:10240000984703AB06AA49460DF026F9ADF80A0035
:1024100020F00200C8280DD14FF4D6720E490DF1FC
:102420000A00FFF777FB12E040F2FB100FE040F2EA
:10243000A7100CE0A6F802A027F805A0404694F8E3
:10244000221013F071F9FF2384F82230E4E717B06B
:10245000BDE8F08F3002060024010600568D05000D
:1024600047020600B00006004F020600F48C05008B
:102470002DE9F0478CB088461D468DF80F200446A4
:10248000149FFFF73FFE0CAB43F8200D184600F0F9
:102490009EFB9DF80F301906064607D503F07F0313
:1024A0008DF80F30037843F0020303702B7A9A07FC
:1024B00010D49DF80F30042B08D0584B5849594878
:1024C00040F2511200F0A4FD00F0B2FD337843F069
:1024D000010333702B7A5B0706D5337843F004038E
:1024E0003370012384F8213029689DF80FA004F18E
:1024F0001E00FFF74DFD814605A8049E00F0ECF993
:1025000001238DF814309DF8153007966AF3030304
:1025100003F08F036FF3C7138DF8153004F1180320
:10252000009304F108020DF10F036168ADF81690F5
:102530004046CDF81880FFF70FFE9DF80F30064695
:1025400000283DD02A680AB121891180F2892189A9
:102550008DF82030CDF82480ADF82210ADF8282079
:102560000B960CAB13E90F0004F10C0585E80F0086
:10257000182094F8207000F021FD2B4B03602B4BAA
:1025800043602B4BC3600023054684600361014612
:10259000384600F072FB686140B9264B204921485B
:1025A0004FF48A7200F034FD00F042FD68690021AA
:1025B000017200F08FFB05A8FFF736FDB48926E015
:1025C000012B11D1796879B101393846FEF728FD20
:1025D00003880E2B08D80D2B06D12B463A4605A9A9
:1025E0002046FFF77FFE11E0236820469B6898474E
:1025F0002B463A4605A90DF02FF80CAB4FF4BD72EF
:1026000023F8100D06491846FFF784FA044605A87A
:1026100000F066F920460CB0BDE8F0877A020600AB
:1026200024010600568D0500D4000600C0000600F7
:10263000CD1E02009B020600036873B59B68164618
:1026400004460D4698472030FFF7AEFCA28B00925F
:1026500094F82030324629460DF0ECF802B070BDF7
:1026600038B503689B680D46044698472030FFF74D
:102670009BFC2A46A18BBDE838400DF087B90000CD
:102680002DE9F04F9A4690F82230FF2B8FB0044688
:102690008B46914600F08B8003689B689847836A5D
:1026A000054643B94A4B4B494B4840F2DF3200F0F4
:1026B000AFFC00F0BDFCD5F8288094F82250D8F883
:1026C0001830D8F820709B885D437E197B5B002B07
:1026D0006DD073885B456AD1BAF1640F59D13F4B15
:1026E0000A930D23B268ADF830309DF832300D9268
:1026F00043F003034FF0000A03F0C3036FF38713A3
:1027000051464FF0010B04F11E008DF832308DF868
:1027100033A0CDF82CB0FFF73BFC7080039020462F
:10272000FFF7F0FC029004A800F0D6F89DF81130F5
:10273000029906916BF3030303F08F036AF3C71347
:10274000CDF814908DF81130736808939DF82430FB
:10275000039AADF8122043F0030303F0F3036AF386
:1027600007138DF824302368CDF81CA09B688DF8E2
:1027700010B02046984707AB0AAA04A90CF06CFFDA
:1027800020F002039BB2C82B82461AD004A800F0A6
:10279000A7F8002337F805B073807B5308F11000C9
:1027A00094F8221012F0C0FFFF2384F8223023682F
:1027B000189A00929D694A46534659462046A847B2
:1027C00002E004A800F08CF80FB0BDE8F08F00BF65
:1027D0003002060024010600568D0500B88B050066
:1027E0002DE9FF41044604A81E468B6840F8043DCD
:1027F00015460F46D1F8048000F0E9F903785A072E
:1028000007D4236879880096DF6942462B46204624
:10281000B84733880E2B00D833B1236832465F6A3D
:10282000074B41462046B84794F821302BB9A5F113
:10283000C8035D425D4184F8215004B0BDE8F081D9
:10284000DC2900201E491F4B01221A700A7A02F06F
:10285000FE0242F00202002302F0F30263F30712C9
:102860000A720B604B6018490A7A0B6042F003024F
:1028700002F0F30263F307120A72144A4B60117AF2
:10288000136001F0F00163F30711117210495360F6
:102890000A7A0B6002F0FE0242F0060202F0F70232
:1028A00063F307120A724B600A490A7A0B6002F05E
:1028B000F00242F00A0263F307124B600A7270479B
:1028C0009C290020CC290020B4290020A829002020
:1028D000C0290020D029002000220270704700008B
:1028E0001FB50378012B044619D10E4A127872B134
:1028F00042880392427802F00F02029242890192CA
:10290000C28800920021084A084600F035FB074BB8
:10291000074908481F2200F07BFB00F089FB204696
:1029200004B010BD14260020AB020600C734060018
:10293000F0020600568D050038B50B78012B0446D1
:102940000D4607D01F4B204920482C2200F060FB89
:1029500000F06EFB2378012B07D11D4B1A491B4851
:102960002F2200F055FB00F063FB2B7823706A7870
:10297000637862F3030363706B886380AB68A36062
:102980006B6863606B786278C3F3001363F30412BF
:1029900062706B78D2B2C3F3401363F34512627076
:1029A0006B78D2B2C3F3801363F3861262706B78D4
:1029B000D2B2DB0963F3C712002362702B7020468A
:1029C00038BD00BFFC020600F0020600568D05006F
:1029D00017030600024B034A1A6000225A60704730
:1029E000DC2900203403060038B50A460C460021D5
:1029F000054634F0ADF808B1401B38BD204638BD5F
:102A000008460C22002134F026B910B501460446D0
:102A1000FFF7F6FF204610BDF8B508460E461546EE
:102A200034F0F6FA033507463446A31B9F423ED9DD
:102A300004212046FFF7D8FF431E032B28D8DFE8E8
:102A400003F01E100702E3782F3B9B00DBB200E08F
:102A50000023A1782F3943EA21130901DBB2C9B25F
:102A600001E00023194694F801E0AEF12F0E41EA8F
:102A7000AE014FEA8E1EC9B25FFA8EFE02E000235D
:102A800019469E4622782F3A42EA0E02D2B202E05E
:102A9000002319461A46032805F8032C05F8021CE2
:102AA00005F8013C04F1040405F10305BDD8F8BDA7
:102AB000F0B5151D01F10C0691F801E00F7888784A
:102AC0004FEA8E0404F03C04030144EA971417F023
:102AD0003F0703F0300318BF2F3743EA1E13800867
:102AE00005F8047C04B12F3405F8034C0BB12F33E7
:102AF000DBB205F8023C08B12F30C0B203318E4280
:102B000005F8010C05F10405D6D100231374F0BDBE
:102B10000A460146FFF7CCBF70B50C4609B9002044
:102B200070BD084634F074FA431E0F2BF7D82518F1
:102B300014F8016B304633F0C6FE20B9304633F04E
:102B4000CBFE0028EBD0A542F2D1012070BD10B51C
:102B5000037886B0044643B1014601AAFFF7A8FFF7
:102B600001A92046FFF7D8FF00E0184606B010BDC7
:102B700038B504460D46FFF7EAFF38B10C22294666
:102B8000204634F035F8B0FA80F0400938BD38B549
:102B900004460D460146FFF733FF29462046FFF75E
:102BA000BBFF30B1224629462046BDE83840FFF73A
:102BB00033BF38BD10B50446FFF7E9FF204610BD0E
:102BC00010B50446FFF7E3FF204610BD704770477D
:102BD00070470B4610B5014618460BF0B5F8044691
:102BE00030B100F072F96469231A5842584110BD9F
:102BF00010BD10B504460AF06FFE01462046BDE840
:102C00001040FFF7E6BF38B505460AF065FE0BF049
:102C100009FB0F28044601D1002038BD0AF05CFEF4
:102C200021460BF091F80028F6D029460C300FF021
:102C3000A7F9012038BD10B504460AF04DFE214623
:102C40000BF082F840B1036980699B7801219940BB
:102C5000BDE8104000F0CAB810BD38B505460C46B6
:102C60000AF03AFE29460BF06FF828B121460C30E5
:102C7000BDE838400FF078BA38BD38B505460C4687
:102C80000AF02AFE29460BF079F821460C30BDE8FF
:102C900038400FF071B803689868431A5842584199
:102CA00070470000036810B504463BB9064B07495E
:102CB00007481D2200F0ACF900F0BAF9214620685F
:102CC000BDE810400FF0CAB84C03060067030600C9
:102CD000568D050038B5036804460D463BB9074BD1
:102CE00007490848232200F093F900F0A1F92A4689
:102CF00021462068BDE838400FF076B84C03060046
:102D000067030600568D050030B508238022114266
:102D1000044614BF0125002545EA4000002CBFBF32
:102D200080F0986080F48E3080F4DB7080F00100D9
:102D3000013B4FEA6202EAD130BD38B5044645187E
:102D40000020A54204D014F8011BFFF7DDFFF8E7CF
:102D500038BD000030B50C4D0A44914212D011F834
:102D6000013B83EA000404F00F0455F8244084EA90
:102D7000101080EA131303F00F0355F8233083EA91
:102D80001010EAE730BD00BF7003060010B5002345
:102D900004460322194602F0BDF9204610BD7047D3
:102DA00037B505460C4600F090F8854207D00C4B2D
:102DB0000C490D48182200F02BF900F039F902AA4D
:102DC0000020A4024FF47A7342F8040DB4FBF3F32D
:102DD0004FF0FF3102F044F900B1019803B030BD6B
:102DE000B00306000F040600568D050000230122E3
:102DF00002F090B91FB504AA002342F8043D0092E6
:102E0000012202F0EBF90849039A0B6813430B60A7
:102E10003AB1064B4FF080521A60BFF34F8FBFF3A9
:102E20006F8F05B05DF804FBE429002004ED00E09D
:102E30002DE9F041064686B00C200F46154698460F
:102E400000F0BCF80C9B0F4983606A1C05AB0025A1
:102E500080E84001AE4218BF31468DE80C000446C0
:102E60000346039502953A46074801F05BFB0128AB
:102E700003D0204600F0A4F80595059806B0BDE8FB
:102E8000F08100BF836D0600E12E020038B50446D4
:102E900000F06EF80021204602F03CF8C5B2012D8A
:102EA00004D102220021204602F028F800F062F846
:102EB000012D09D1012001F0F5FD0021204602F08D
:102EC00029F8C0B20228F4E738BD08B502F036F898
:102ED000012803D0BDE8084002F02AB8002008BD50
:102EE00070B5044661C800F0B5F8204600F068F8F7
:102EF00000210846012202F001F83046A84700F000
:102F000037F800210322084601F0F8FF00F032F8FC
:102F1000FFF7DBFFBDE8704001F0F6BB10B5FFF72F
:102F2000D4FF01220446002101F0E8FF204610BD35
:102F300001F086BC002108B5084601F0EBFFC0B2E5
:102F4000831E5842584108BD80024FF47A73B0FB8B
:102F5000F3F001F0A7BD0000044B4FF080521A605F
:102F6000BFF34F8FBFF36F8F704700BF04ED00E0DA
:102F700002F028BE02F040BE0CB430B50C4B0D4A36
:102F800053F8213052F820200B4987B00AAC02A830
:102F900054F8045B33F08EFF234601462A4602A80C
:102FA000019400F023F807B0BDE8304002B070474C
:102FB0006C040600280406003C04060002F072BF00
:102FC00003F006B802460249042000F0B3BC00BF7B
:102FD0007C040600034B08B118607047024A1A606F
:102FE000704700BF28260020C52F020010B55021D1
:102FF000054834F073FB054B1B681BB10248BDE864
:103000001040184710BD00BFE829002028260020E6
:103010000FB407B504AB002153F8042B0193084605
:10302000FFF7E4FF03B05DF804EB04B07047000065
:1030300000BEBFF34F8F0549054BCA6802F4E0623A
:103040001343CB60BFF34F8F00BFFDE700ED00E0FF
:103050000400FA057047000010B5054C236813B949
:1030600000F03CFA2060206800F082FA012010BDD8
:1030700024E6002010B500208EB000F0F8F905A974
:10308000019001A800F08CFF07990A2291FBF2F34E
:1030900003F130008DF8080002FB131306983A2163
:1030A00030338DF809308DF80A1090FBF2F38DF86B
:1030B0000D1003F1300405998DF80B4002FB13034A
:1030C00030338DF80C3091FBF2F303F1300002FB4A
:1030D000131330338DF80F3020238DF80E008DF848
:1030E000103002A800238DF8113000F0CDF90EB099
:1030F00010BD00000EB477B50646FFF7ADFF70B304
:10310000194D079A08AB4FF480712846019334F0AB
:10311000E5FA002819DBFF284FF000041248C4BF6D
:1031200085F8FF40114C03F0A3F880B1FFF7A2FF30
:103130000D4800F0A9F916B10D4800F0A5F90D4BA6
:103140002BB1094820F050FE01E00B4C00E014B117
:10315000204600F099F9094B186800F045FA03B0D1
:10316000BDE8704003B07047382A0020880406008C
:10317000816D0600E93D0400AE04060024E600204F
:10318000D0B5EFF305833BB9EFF3108472B6E4B228
:10319000B4FA84F4640900E0002400F083FE0C4BD0
:1031A0001A6890420B4A07D2D2E9006716F180767E
:1031B00047F10007C2E90067186004B162B6D2E9BE
:1031C0000023161843F1000730463946D0BD00BF32
:1031D000402B0020502B002037B5FFF7D1FF4FF4D4
:1031E0007A73A0FB034503FB0155164BD3E900019D
:1031F000A20A42EA855280184FEA95235941124AA1
:103200004FF4B0738B4208BF824218D20F4BD3E900
:10321000004514F5FA7445F100058D4208BF84425B
:103220000DD2C3E90001CDE90001002214461DF8CA
:1032300004500134082C82EA0502F8D11A7203B056
:1032400030BD00BF382B0020009004AF80FF00206D
:103250002DE9F041DFF83C80D8E90067FFF790FFE7
:103260004FF47A73A0FB034503FB0155A20A42EA1F
:103270008552B21A4FEA9523054967EB0303C1E96A
:10328000002300220023C8E90023BDE8F08100BF2D
:10329000382B0020482B00200C4BD3E9002313438C
:1032A00010B501D0FFF7D4FFFFF796FF00234FF4CE
:1032B0007A7233F081F8064B1B68014623B1054A48
:1032C000BDE810401068184710BD00BF482B002013
:1032D000602B00205C2B0020024B1860024B196011
:1032E000704700BF602B00205C2B00200000000016
:1032F00030B5394B394C002587B01D60384B002163
:103300000020C3E9000100F033FD01223549364BAE
:1033100000954FF47A7000F0BFF8344B186000F05D
:10332000CAF84FF47A720023D4E9000133F044F86C
:1033300002460B4601202E49FFF7DCFED4E90023AC
:10334000CDE902232A462B4602A9595C0133082BFA
:1033500082EA0102F8D1237A26490120FFF7CAFE4A
:10336000D4E9002352EA03011ED0CDE9042300234F
:103370001A4604A9515C0132082A83EA0103F8D1F4
:10338000227A9A4210D11C490120FFF7B3FE134B59
:10339000D3E9000140F6340212184FF000034B410C
:1033A0001649C1E900230FE015490120FFF7A2FEED
:1033B00000230022C4E9002305A1D1E900017B23F9
:1033C00023720E4BC3E9000107B030BDAFF300809C
:1033D00000B0CAA24A010000402B002080FF00205C
:1033E000502B0020D504060099320200582B0020F3
:1033F000DA040600F60406000A050600382B002051
:103400002305060038B5054638B9FFF7E5FE4FF449
:103410007A72002332F0D0FF38BDFFF7DDFE4FF4A3
:103420007A720023044632F0C7FFC0EB401300EB72
:103430008303A4EBC3042C8038BD0000044BC3E914
:103440000001D3E90023134301D0FFF701BF704708
:10345000482B002010B5FFF793FE4FF47A74A0FBC1
:10346000042304FB0133900A40EA835010BD10B5D9
:103470000446FFF7B1FE4FF47A72002332F09CFF4E
:1034800004B1206010BD000002460249042000F093
:1034900051BA00BF4A64060010B40C46019901936A
:1034A00080020B464FF47A71B0FBF1F120465DF8D3
:1034B000044B00F009BE13B5044601F0BBF94FF010
:1034C000FF330093024600230121204600F020FE36
:1034D000431E5842584102B010BD000010B50120F3
:1034E00002F0A4F8044620B901221721024802F094
:1034F00001FF204610BD00BF5105060010B5042095
:1035000002F094F8044620B901222721024802F073
:10351000F1FE204610BD00BF5105060010B504465F
:1035200020B901223121044802F0E4FE2046BDE822
:10353000104002F04BBA00BF5105060038B50C46EA
:10354000054620B901224B21084802F0D3FE002392
:103550001946A40228464FF47A72B4FBF2F202F044
:1035600037F9431E5842584138BD00BF5105060087
:1035700010B5044620B901224321054802F0BAFEE5
:1035800042F210712046FFF7D9FF0028F8D010BD95
:103590005105060038B50C46054620B901225921CF
:1035A000074802F0A7FEA40228464FF47A71B4FB44
:1035B000F1F102F0C3F9431E5842584138BD00BF33
:1035C0005105060010B5044620B9012251210548D5
:1035D00002F090FE42F210712046FFF7DBFF002858
:1035E000F8D010BD5105060010B5044620B90122DF
:1035F0005F21064802F07EFE00231A461946204647
:1036000001F066FF431E5842584110BD51050600A7
:1036100010B5044620B901226521054802F06AFE72
:10362000204602F025F8431E5842584110BD00BF05
:10363000510506000649074A074B9B1A03DD043B68
:10364000C858D050FBDC00F04DF8FBF7F9FD000046
:10365000D8C606000826002058290020FEE7FEE70D
:10366000FEE7FEE7FEE7FEE7FEE7FEE7FEE7FEE732
:10367000094B1B78062B0CD1084B1B681A0708D185
:10368000074B186800F0F000A0F130035842584191
:1036900070470020704700BFE00F00F0E40F00F01B
:1036A000E80F00F00C4B1B78062B10D10B4B1B685E
:1036B0001A070CD10A4B186800F0F003302B08D021
:1036C00000F0E000A0F1400358425841704700204C
:1036D00070470120704700BFE00F00F0E40F00F0DA
:1036E000E80F00F008B5FFF7DDFF28B16C4B6D4A1D
:1036F0001B68C3F304231360FFF7BAFF10B16A4BD2
:103700006A4A1A60FFF7CEFF28B1694B694A1B6805
:10371000C3F342331360FFF7ABFF20B1664AD368AF
:1037200023F08073D360FFF7BDFF40B14FF08043BB
:103730000022C3F80C21C3F81021C3F83825FFF785
:1037400097FF10B15D4B03221A60FFF791FF40B164
:103750005B4B05221A6001229A6700229A603F2281
:103760005A60584B1B78062B09D1574B1B681A0718
:1037700005D1564B1B6803F0F003502B47D0FFF7E1
:1037800091FF28B1524B534A1B6803F04F0313605B
:10379000514AD2F8883043F47003C2F88830BFF33E
:1037A0004F8FBFF36F8F4FF01023D3F80C32DB072E
:1037B00029D54A4B0122C3F80425D3F80024002A56
:1037C000FBD04FF010224549D2F80C3223F0010310
:1037D000C2F80C32D1F80024404B002AFAD0002263
:1037E000C3F80425D3F80024002AFBD0BFF34F8F81
:1037F00039493B4BCA6802F4E0621343CB60BFF324
:103800004F8F00BFFDE7374B374A1A6008BD4FF0B6
:103810008052364BD2F80414C3F82015D2F808149D
:10382000C3F82415D2F80C14C3F82815D2F81014D4
:10383000C3F82C15D2F81414C3F83015D2F81814A4
:10384000C3F83415D2F81C14C3F84015D2F820146C
:10385000C3F84415D2F82414C3F84815D2F8281434
:10386000C3F84C15D2F82C14C3F85015D2F8301404
:10387000C3F85415D2F83414C3F86015D2F83814CC
:10388000C3F86415D2F83C14C3F86815D2F8401494
:10389000C3F86C15D2F84424C3F870256FE700BF55
:1038A000240300104035014074C007400DF0ADBA4C
:1038B000440200103C050040F0ED00E0A00500408F
:1038C00010560040E00F00F0E40F00F0E80F00F0A9
:1038D00058020010E40E004000ED00E000E001405E
:1038E0000400FA052C2600200090D00300C0004000
:1038F00013B50093034B5C6913460A460021A047A9
:1039000002B010BD642B002038B5012017F070F80C
:10391000044638B917F082F8054617F083F8024BD1
:103920005D619861204638BD642B002000231A4653
:10393000FFF7DEBF13B502AC012344F8042D224685
:10394000FFF7D6FF02B010BD07B58DE80C000223CB
:103950006A46FFF7CDFF03B05DF804FB1FB5029385
:10396000069B0192039301AA0323FFF7C1FF05B051
:103970005DF804FB2DE9FF471C460B4F00238046F2
:10398000894616469A46CDF80CA0CDF808A00194B9
:1039900000964A4600214046BD69A8478442034636
:1039A000F1D804B0BDE8F087642B0020094A5378B1
:1039B00091780133DBB2994208BF00231178994214
:1039C0001FBF03705378182000FB032014BF04307E
:1039D00000207047882B002073B5054602A80024FC
:1039E00000F8014D0E4600F071FA0DF10600FFF7E8
:1039F000DDFF30B106700A4B9DF8062045605A7015
:103A000000E004249DF8070000F090FA24B9054B6B
:103A10004FF48012C3F80021204602B070BD00BFF1
:103A2000882B002000E100E0204B21491A682F2359
:103A300000BF00BF00BF00BF00BF00BF00BF00BF8E
:103A40008A422FD000BF00BF00BF00BF00BF00BF31
:103A500000BF00BF00BF00BF00BF00BF00BF00BF6E
:103A600000BF00BF00BF00BF00BF00BF00BF00BF5E
:103A700000BF00BF00BF00BF00BF00BF00BF00BF4E
:103A800000BF00BF00BF00BF00BF00BF00BF00BF3E
:103A900000BF00BF00BF00BF00BF00BF00BF00BF2E
:103AA00000BF00BF013BC3D1704700BF2C260020E0
:103AB0000024F4000C4B0D484FF4003210B5C3F84D
:103AC000802001244FF48033C0F84833C0F8083315
:103AD0004460FFF7A9FF064B846000201860FFF7E1
:103AE000A3FF044B187010BD00E100E0001001407E
:103AF000802B0020972C00202DE9F74F9248934A05
:103B000003781278924C9A421FD0924A0133DBB26A
:103B10001168022B08BF002321F07F410370116060
:103B20002368002215465BB1186848B9DA68D8697D
:103B30001AB1DD6159609A601D4603460122F2E721
:103B400002B123604FF0010901E00025A946824F30
:103B5000236800934FF0000ABB4655B12846ED6933
:103B60002DE0D4F8008046464146002E65D1002362
:103B700003743B78797899426DD0591CB878C9B2F2
:103B8000884239704FF0180101FB03B108BF3D7046
:103B90000B798868022BE4D0032B4AD0012BE8D1A3
:103BA000067C002EE5D1CB6843600B6983604B69CE
:103BB000C3608B698361694B1B7803B146606549BB
:103BC00043680968664A5E1A26F07F469642826814
:103BD00001D8164405E0C91A21F07F43934202D26E
:103BE000D61A066001E0002303600023436083606F
:103BF000C3612368564A0121017433B101681E680C
:103C0000B14204D8711A1960C3611060A5E79E46DD
:103C10001E68B14205D9891BDE699E462EB1334626
:103C2000F6E7761A1E601E4673460160C661D861CB
:103C300093E700212368084604E0B04263D0314690
:103C4000F66992E71BB118740121DB69FAE70029D4
:103C50008FD023608DE7BAF1000F06D12368009A58
:103C60009A4202D1B9F1000F47D02368002B42D00D
:103C7000D3F800903B4C374BD4F8046518683A4FA2
:103C8000351A3B7825F07F4503359BB94FF48032D8
:103C9000C4F84423C4F80423344A4FF400314FF0ED
:103CA0000108C2F880111160C4F80080FFF7BCFE63
:103CB00087F80080A9452CBF00EB0903431923F0C6
:103CC0007F40C4F84005D4F80435264A9B1B23F0F6
:103CD0007F43801B033320F07F4083420DD9D2F80D
:103CE0000435C2F84035FFF79FFE204B4FF40032F9
:103CF000C3F8002101E0FFF7DDFE184B00221A7027
:103D000003B0BDE8F08F884210D1D8F81C30236092
:103D100063B90191DFF83CC0124901228A60CCF8F6
:103D200000300E4B1A70FFF77FFE01993368F66979
:103D3000CE6116B13268134433602368984518BFCA
:103D40004FF0010A13E700BF952C0020942C0020AF
:103D5000842B0020802B0020882B0020962C002014
:103D6000FEFF7F0000100140972C002000E100E0E2
:103D700008B5FFF79FFE114B00200B2218709A70B8
:103D800058700F4B18600F4B18700F4B18700F4B7B
:103D90004FF48012E021C3F8802183F814131A60D5
:103DA00002F18042A2F56F22C2F8080583F81113D0
:103DB000074BD2F804251A6008BD00BF882B0020ED
:103DC000842B0020952C0020942C002000E100E0A2
:103DD000802B0020074B9B784BB132B128B1036890
:103DE000187C20B959745A61704707207047082021
:103DF000704700BF882B00202DE9F7431E4FBB788A
:103E000005460E4690469BB390B304292ED94369CC
:103E100073B3437C02A80024012B00F8014D0CBFB2
:103E20008946A14600F052F80DF10600FFF7BEFDED
:103E300078B101230370114B4560D3F804358360DA
:103E40009DF80630C660C0F81090C0F814807B70F2
:103E500000E004249DF8070000F068F824B9084B3E
:103E60004FF48012C3F80021204602E0072000E052
:103E7000082003B0BDE8F083882B0020001001402B
:103E800000E100E0064A92783AB130B1426922B1CD
:103E9000002202740221FFF79FBD0820704700BF77
:103EA000882B0020014BD3F8040570470010014017
:103EB000EFF30583C3F3080333B9EFF3148000F085
:103EC000010080F0010070470120704770B5044682
:103ED000FFF7EEFF012803D01049432018F076F9D0
:103EE000EFF3108572B60E4A9068012390B9936083
:103EF0000C4B0D49D3F88060314011600A49C3F87A
:103F00008010D3F8841051604FF0FF32C3F8842042
:103F1000207000E0237005B962B670BD610506002F
:103F2000982C002000E100E0FC06FFBD10B504461F
:103F3000FFF7BEFF012803D00949512018F046F9C8
:103F4000084B9A685AB154B9EFF3108272B6064919
:103F500018680860586848609C6002B962B610BD75
:103F600061050600982C002000E100E0094B1EF0DE
:103F7000040F1CBFEFF309801847EFF308800649D0
:103F8000064A884201D8904202D88D464FF0000080
:103F9000184700BF9980030080FF002080FB0020AD
:103FA00038B50D46044620B901221B21074802F00E
:103FB000A1F925B901221C21044802F09BF92946E8
:103FC0002046BDE8384032F0A1BC00BF75050600B0
:103FD000F8B5134C01F0F6FD2568E5B9114F124E06
:103FE000384601F024FD304601F021FD0F4B1F60E3
:103FF0000F4B2A4610210A201E6001F01DFA206096
:1040000020B940F21A310B4816F021F9206810B19E
:10401000094901F0B5FCBDE8F84001F0EDBD00BF75
:10402000D42C0020A82C0020BC2C0020A42C002084
:10403000D82C00207E050600C2050600914208B576
:104040004160006106D8D21A83699A420DD2011DDF
:10405000074B05E09A4201D2994206D2054B011D59
:10406000186801F0FEFC002008BD012008BD00BF5B
:10407000D82C0020A42C00201FB5FFF7A9FF0D4B62
:104080001B6833B90C484FF4877116F0E0F8002034
:104090000DE00A4A01920023042200920393029346
:1040A0005A220749074800F03DFA0028EAD005B037
:1040B0005DF804FBD42C00207E050600DC2C0020DB
:1040C000C7050600E94102002DE9F0418046174688
:1040D0001E460D4689B1282001F0E4FE044690B149
:1040E000FFF776FF069BC4F80080A561E7612662B2
:1040F0006362201D01F0A6FC05E04FF49B710348AC
:1041000016F0A5F82C462046BDE8F0817E05060095
:104110002DE9FF410D4690461F46064620B940F264
:104120004111104816F093F80F4C2068B0B1052DDE
:104130008DE8200102960CDC00F000FF002302282D
:1041400008BF0A9A206818BF1A46694601F0C0F9EC
:1041500004E000233A46694601F0A8FA04B0BDE83D
:10416000F08100BF7E050600D42C00202DE9F3412C
:104170001A4E374633681A683AB3DB68DC681D6844
:1041800004F10408404601F084FC636A2046984725
:10419000E369012BEED1A3692B449D4206D26360F3
:1041A00024614146386801F05CFCE3E7002300939A
:1041B0002A4619462046FFF7ABFF0028DAD14FF414
:1041C0003F71074816F043F8D4E7064A03491068E0
:1041D0000860136002B0BDE8F08100BFA42C00208D
:1041E0007E050600D82C00202DE9F04786B0DFF8C8
:1041F000A4A1DAF800301D681DB1DB68D3F8008097
:1042000000E0A8465E4E00F00DFB00F013FB3368A3
:1042100098428146374603D2FFF7A8FF012400E009
:104220000024C6F80090574E002C42D13DB3C14542
:104230002CD300F0C3FBDAF80030DB68DD68281D02
:1042400001F027FCEB69012B15D1A96943464A46C9
:1042500041442846FFF7F2FE01280CD10094234682
:10426000424621462846FFF753FF20B940F29311FA
:10427000454815F0ECFF6B6A2846984726E0434B0B
:104280001B681A68B2FA82F2520900E02246C9EBB2
:104290000801306801F0ACFB00F090FBB0B93C4B7A
:1042A0004FF080525A6040BFBFF34F8FBFF36F8F04
:1042B0000CE000F083FB09E0029B002B03DA059978
:1042C0000498039B9847029B002B08DA00231A46A8
:1042D00002A9306801F07CFA0028EDD187E7049C40
:1042E000636913B1201D01F0D4FB00F0A3FA3B6811
:1042F0009842054601D2FFF739FF029A3D60092A2C
:10430000E4D80123934013F4047829D113F0C70FA4
:1043100005D19B06DAD5204601F05AFED6E7A16901
:10432000039B2A4619442046FFF788FE0128CDD179
:10433000636A20469847E369012BC7D1A2690399B4
:10434000CDF800800A44434641462046FFF7E0FE90
:104350000028BBD14FF428710B4815F078FFB5E762
:10436000039BA36123B940F2B721074815F06FFF03
:10437000A1692B462A4629442046FFF75FFEA5E7A0
:10438000D02C0020D42C00207E050600D82C002044
:1043900000ED00E0A42C0020054B1A6810B51C4667
:1043A00022B940F26D11034815F051FF206810BD8D
:1043B000DC2C00207E05060010B5044620B94FF421
:1043C0005371054815F043FF01F0FCFB246A01F02E
:1043D00013FC204610BD00BF7E050600074B1B687E
:1043E000D86A48B9064B1B68012B06D8054A064B0C
:1043F0001B681068181A704700207047802D002035
:10440000182D00208C2D0020842D0020064A1368D2
:104410001968064B11B94FF0FF3203E01268D268F9
:10442000D26852681A607047F42C0020842D002056
:104430000E4B1A6810B550600D4A1268904204463F
:1044400007D20C4A10681968BDE81040043101F029
:1044500008BB094A10681968043101F002FB074BD8
:104460001A68944238BF1C6010BD00BF802D002028
:104470008C2D0020902D0020F42C0020842D002075
:104480002DE9F0470C68002C49D04B685C684C6003
:1044900001F10807BC4204BF7B684B604B68D3F84E
:1044A0000CE000F11C0300204FF0020C05464C68A4
:1044B00064684C60A74204BFCC684C604C68E468F8
:1044C00043F81C4C04F1340643F8186C266C43F88E
:1044D000146CE66A03F8102C032A43F80C6C03D121
:1044E000A66A0EB103F810CC666CD4F8309043F88D
:1044F000086C43F8045CC846C9EB080618F801AB21
:10450000BAF1A50FF8D0B608A6451E805D609D6083
:1045100000F1010003F12803C9D1BDE8F08720466E
:10452000BDE8F0872DE9F84F0A9E0C9C0F46154612
:104530009A46814620B940F23521644815F087FE3D
:10454000042E04D940F23621604815F080FE3CB9B3
:10455000A80001F0A7FC8346002800F0B38000E02B
:10456000A346582001F09EFC044688B1AD002A46BF
:10457000C0F830B0A521584632F06DFB236B043DE6
:104580001D4425F007057B1E04F13302093705E0C1
:10459000584601F01DFD95E0BB4206D013F8011FFF
:1045A00002F8011F19780029F6D1042E4FF0000BF4
:1045B000B04604F1040728BF4FF00408384684F8D9
:1045C0003DB0C4F82C80C4F84480C4F848B001F071
:1045D00039FA04F1180001F035FAC8F10503A361B6
:1045E000C4F850B024616462C4F84CB084F854B08C
:1045F00052464946284601F06FFA0B9B206003B1F2
:104600001C6001F0DFFA324A324D1368DFF8EC909B
:10461000013313602B683BBB2C601268012A2BD13D
:10462000984609EB080008F1140801F000FAB8F107
:10463000640FF6D1DFF8C8A0DFF8C880504601F05B
:10464000F6F9404601F0F3F9234801F0F0F9234868
:1046500001F0EDF9224801F0EAF9224BC3F800A07D
:10466000214BC3F8008007E0204B1B6823B92B685F
:10467000DB6A9E4228BF2C601D4A13680133136019
:104680001C4A23641168E36A14208B4200FB0390E8
:10469000394688BF136001F0D8F901F0ADFA134B29
:1046A0001B6863B12B68DB6A9E4208D9124B4FF03E
:1046B00080525A6040BFBFF34F8FBFF36F8F01200E
:1046C000BDE8F88F4FF0FF30BDE8F88FCF0506004A
:1046D000AC2D0020802D0020942D0020E02C002007
:1046E000C82D0020F42C0020902D0020F82C002054
:1046F000A82D0020DC2D002000ED00E0182D00206A
:10470000002D0020B02D002038B5044601F05AFAE3
:104710000CB91E4B1C68251D284601F0BAF9A36A86
:104720001BB104F1180001F0B4F92946184801F052
:104730008CF9184A136801331360174A1368013360
:10474000136001F059FA154B1B68EBB10F4B1B6856
:104750009C4211D1124B1B6823B140F22631114803
:1047600015F075FD104B4FF080525A6040BFBFF3FB
:104770004F8FBFF36F8F38BD01F024FAFFF746FE6D
:10478000BDE8384001F038BA38BD00BF802D0020A8
:10479000E02C0020FC2C0020A82D0020F82C00206C
:1047A000882D0020CF05060000ED00E01FB5002495
:1047B000154B0193039402940094234664221349F9
:1047C0001348FFF7AFFE012813D1FFF755FC01286E
:1047D0000FD1202383F311880E4B4FF0FF321A6064
:1047E0000D4B18600D4B1C6004B0BDE8104001F08B
:1047F00085B938B90A4840F2596104B0BDE81040A3
:1048000015F025BD04B010BDC42D00201206060011
:10481000094B0200842D0020F82C00208C2D002054
:10482000CF050600024A136801331360704700BFCA
:10483000882D0020014B1868704700BF8C2D002088
:1048400010B5044638B9054B1C6824B940F24A71CA
:10485000034815F0FCFC04F1340010BD802D00204D
:10486000CF05060038B5084C084A2368126803448F
:104870009342054604D940F2B371054815F0E7FCB0
:1048800020682844206038BD8C2D0020842D002015
:10489000CF0506003D4B1B682DE9F74F002B3ED19D
:1048A0003B4B1A6801321A601D689DB9394C236868
:1048B0001B6823B140F2D271374815F0C8FC374B62
:1048C0002268196821601A60354A13680133136041
:1048D000FFF79CFD334C01942368334E334F9D42C8
:1048E0004FF0000B11D3DFF8AC80DFF8CC90D8F894
:1048F00000201268002A39D0D8F80020D268D46885
:1049000061688D4212D2019B19603A68D16A142203
:104910004A43B258022A28BF4FF0010B2BE0244A29
:104920001368013313604FF0000B24E004F1040A14
:10493000504601F0AEF8A16A19B104F1180001F077
:10494000A8F8E06AD9F800101423884288BFC9F893
:104950000000514603FB006001F077F83868E16A17
:10496000C26A914228BF4FF0010BC0E7019B4FF094
:10497000FF321A60C9E70F4A1268002A18BF4FF0C9
:10498000010B584603B0BDE8F08F00BF882D002012
:104990008C2D0020F42C0020CF050600902D002047
:1049A0007C2D0020842D0020182D0020802D00203B
:1049B000142D0020E02D0020DC2D00202DE9F041F9
:1049C0002E4C236823B940F296612D4815F03FFC28
:1049D00001F0F8F82368013B236023680BB1002441
:1049E00046E0284B1B68002BF9D0274D274EDFF8F7
:1049F000B0802B68F3B1EB68DC68271D04F1180068
:104A000001F047F8384601F044F8E36A32681420B0
:104A1000934200FB0380394688BF336001F015F8EC
:104A20001B4BE26A1B68DB6A9A42E2D3194B0122F4
:104A30001A60DCE7184C23686BB9164B1C68012C14
:104A4000CDD1164B4FF080525A6040BFBFF34F8F0D
:104A5000BFF36F8F0CE00F4D01262368002BECD0C5
:104A6000FFF718FF00B12E602368013B2360F4E7D5
:104A700001F0C2F82046BDE8F08100BF882D00207B
:104A8000CF050600AC2D0020942D0020DC2D002049
:104A9000802D0020E02D0020142D002000ED00E0EE
:104AA000182D002010B5044648B9124B4FF0805223
:104AB0005A6040BFBFF34F8FBFF36F8F10BD0E4BD7
:104AC0001B6823B140F2AB310C4815F0C0FBFFF777
