:020000021000EC
:10F0000080FF0020153D02003D3D02004D460200FC
:10F01000413D0200433D0200453D0200000000006A
:10F020000000000000000000000000008525040032
:10F03000493D020000000000A52504004D3D0200EE
:10F04000D1AA03004F3D02004544050049C7030013
:10F050006DC703004F3D0200E9050500D909050011
:10F060004F3D02004F3D02004F3D02004F3D020068
:10F070004F3D02004F3D02004F3D02004F3D020058
:10F080004F3D0200616302004F3D02004F3D020010
:10F09000D94102004F3D020055AD03004F3D020033
:10F0A0004F3D02004F3D02004F3D02004F3D020028
:10F0B0004F3D02004F3D0200000000000000000034
:10F0C0004F3D02004F3D02004F3D020091C703003B
:10F0D0004F3D02004F3D02002D850300000000005F
:10F0E0000000000000000000000000000000000020
:10F0F0000000000000000000000000000000000010
:10F1000000000000000000000000000000000000FF
:10F1100000000000000000000000000000000000EF
:10F1200000000000000000000000000000000000DF
:10F1300000000000000000000000000000000000CF
:10F1400000000000000000000000000000000000BF
:10F1500000000000000000000000000000000000AF
:10F16000000000000000000000000000000000009F
:10F17000000000000000000000000000000000008F
:10F18000000000000000000000000000000000007F
:10F19000000000000000000000000000000000006F
:10F1A000000000000000000000000000000000005F
:10F1B000000000000000000000000000000000004F
:10F1C000000000000000000000000000000000003F
:10F1D000000000000000000000000000000000002F
:10F1E000000000000000000000000000000000001F
:10F1F000000000000000000000000000000000000F
:10F2000010B5054C237833B9044B13B10448AFF360
:10F2100000800123237010BD602900200000000041
:10F2200098CF060008B5034B1BB103490348AFF361
:10F23000008008BD000000006429002098CF06006F
:10F24000154B002B08BF134B9D46A3F5803A0021B8
:10F250008B460F461348144A121A38F064F80F4BC5
:10F26000002B00D098470E4B002B00D09847002071
:10F27000002104000D000D48002802D00C4837F092
:10F280008AFD37F057FE2000290007F00FFF37F006
:10F290008FFD00BF0000080080FF0020000000007C
:10F2A0000000000060290020C0FA0020976D0500D2
:10F2B00000000000044B054A1A60054B054A1A601D
:10F2C000054B064A1A6070473826002060920500F8
:10F2D0003C2600206A920500342600207492050026
:10F2E00008B5FFF7E7FFF82007F03CFB054A0649A1
:10F2F0001060064A0968116018B1BDE8084000F0C6
:10F30000FFBA08BD7C290020C09405008429002094
:10F31000012070470120704701207047012070478D
:10F32000012070470120704700207047002070477F
:10F330000020704701207047054A064900231360EA
:10F3400053600B604B60044B044A1A60704700BF67
:10F350007C2900208429002038DF0020E1F2010010
:10F36000704700000B4B10B503F10802026003F177
:10F370007002AC330446426240F82C3F02F020F9A0
:10F3800004F1240002F008FF204603F0EBF82046C9
:10F3900010BD00BF18960500A0F12400FFF7E2BFE2
:10F3A000A0F12C00FFF7DEBF10B50446FFF7DAFF2F
:10F3B000204636F02FFE204610BDA0F12C00FFF7AE
:10F3C000F3BFA0F12400FFF7EFBF10B5044636F0FD
:10F3D00021FE204610BD000010B5064A0446042157
:10F3E000243002F075FFC82806BF012084F83000E1
:10F3F000002010BDB4920500A0F12C00FFF7ECBF77
:10F4000010B5054A04460421243002F07FFF002392
:10F4100084F8303010BD00BFB4920500A0F12C007C
:10F42000FFF7EEBF002310B5C0F8F030022304460A
:10F4300080F83030012241F27071243002F0A2FFD6
:10F44000A4F8EA00012010BDA0F12C00FFF7EABFEC
:10F4500030B50D460749044603C985B002AB83E8C1
:10F46000030000932946044B204602F0BFFF05B07D
:10F4700030BD00BF98290020A029002020F0020301
:10F48000C82B04D0A0F164035842584170470120B2
:10F49000704700002DE9F04390F84C6091B00446AD
:10F4A0008946002E4AD12849012004F093F9636D62
:10F4B0000093264B264A1B68142106A838F02EF824
:10F4C000244B04F1480206A9204603F0F7F905464B
:10F4D000FFF7D4FF002832D01F4FA16C00970BAB71
:10F4E00004224FF003082046CDE90B968DF83480B6
:10F4F00003F02EFBD4F8D8300093184B144A1B6845
:10F50000054614210BA838F009F8124B04F1440207
:10F510000BA9204603F0D2F92846FFF7AFFF70B1E0
:10F5200003AB00970422616C8DF814802046CDE96E
:10F53000039603F00DFB012384F84C30C8252846C0
:10F5400011B0BDE8F08300BF2E9405001426002002
:10F5500054940500D4290020E4290020102600201E
:10F5600038B504460D460120094904F033F904F189
:10F5700040012046FFF78EFF0246C82A04F124000E
:10F58000294618BF40F2F712BDE83840FFF760BFC8
:10F590009994050038B50D4604461349012004F03E
:10F5A00019F96B68114A43F00F03934210D002F52A
:10F5B0000032934215D00E49012004F00BF9294680
:10F5C00004F124004FF4C872BDE83840FFF740BF93
:10F5D000002384F8C13029462046BDE83840FFF7B3
:10F5E000BFBF0123F5E700BFBC9205001F00006408
:10F5F000E0920500A0F12400FFF7CCBF70B590F8B1
:10F600004C3086B004469BB31B491C4D012004F0CE
:10F61000E1F80023CDE9033302238DF8143000957F
:10F6200003AB0522616C204603F092FA0646FFF711
:10F6300025FF20B932461249012004F0CBF80023FF
:10F64000CDE9033302238DF81430009503AB052276
:10F65000A16C204603F07CFA3046FFF70FFF20B97B
:10F6600032460749012004F0B5F8002384F84C30F5
:10F67000C82006B070BD00BFFB920500E429002041
:10F680001F93050010B5B0F8EA100446243002F0CC
:10F690009EFE032384F830304FF6FF73A4F8EA305F
:10F6A0002046BDE81040FFF7A9BFA0F12C00FFF7EE
:10F6B000E9BF000010B505490446012004F08AF8AE
:10F6C0002046BDE81040FFF799BF00BFF094050049
:10F6D000A0F12400FFF7EEBF10B505490446012054
:10F6E00004F078F82046BDE81040FFF787BF00BF60
:10F6F000C4940500A0F12400FFF7EEBF70B50C46DE
:10F7000006461349012004F065F86368114A43F086
:10F710000F03934206F1240503D002F50032934211
:10F7200009D128462146C822FFF792FE3046BDE89F
:10F730007040FFF763BF0849012004F04BF82146F1
:10F7400028464FF4C872BDE87040FFF781BE00BF85
:10F75000599405001F0000647F940500A0F1240067
:10F76000FFF7CCBF2DE9F0411546DFF830814A683C
:10F77000044643460E4642F00F024349012004F07E
:10F7800029F894F83030022B04F1240707D040F216
:10F79000F71231463846BDE8F041FFF759BE7368AD
:10F7A00043F00F03434505D0384A934239D040F225
:10F7B000F512EEE794F84C80B8F1000F02D0204625
:10F7C000FFF71CFF6B683BB9314B3249324881224D
:10F7D00003F08EFF03F09CFF083546F201412846F6
:10F7E00002F01EFC284602F075FC0368D0ED017A99
:10F7F00004F16C02616D8B4205D052F8041B8B4200
:10F80000F8D16365F6E767EEA77AC4ED147AB8F12C
:10F81000000F04D004F140012046FFF73BFEC82250
:10F82000B7E794F84C80B8F1000F02D02046FFF7FC
:10F83000E5FE6B683BB9164B16491748812203F069
:10F8400057FF03F065FF083546F20341284602F0F2
:10F85000E7FB284602F03EFC0368D0ED017A017A0E
:10F8600004F16C02D4F8D800834206D052F8040B9D
:10F870008342F7D1C4F8D830F4E767EEA77A84F86A
:10F88000E810C4ED347AC2E7749305001F000364E6
:10F89000B0930500CC930500129405001F0001648D
:10F8A000A0F12400FFF75EBF30B54FF07E52134D3C
:10F8B000C0F88C200023C0F8A02000240022C0F84B
:10F8C0009030C0F89430C0F89830C0F89C30C0E94F
:10F8D0002A45C0F8B030C0F8B430C0F8B830C0F82D
:10F8E000F020C0F8C430C0F8C830C0F8CC30C0F840
:10F8F000DC30C0F8E030C0F8E43030BD0000F03F4C
:10F90000F8B501220446002102F034FF0122002153
:10F9100004F1240002F082FC01223449344F04F146
:10F920002C0001F03DFE334B03F10802226003F18D
:10F930007002AC33E362304B626223650FCF002567
:10F940004FF0000C4FF0D00E04F1680684F84CC064
:10F95000C4F854E084F858C084F859C0E5652566B9
:10F9600065660FC697E80F0086E80F004FF07E53DC
:10F97000C4F88C30C4F888C0C4F89050C4F89450CF
:10F98000C4F89850C4F89C50C4F8A0301B4BC4F87D
:10F99000B0500022C4E92A23194BC4F8D030194BC7
:10F9A000C4F8D430012384F8E8304FF6FF732046C2
:10F9B000C4F8B450C4F8B85084F8C0C084F8C1C0CA
:10F9C000C4F8C450C4F8C850C4F8CC50C4F8D8E047
:10F9D000C4F8DC50C4F8E050C4F8E450A4F8EA30AD
:10F9E000A4F8EC30FFF760FFF8BD00BFAE9505004E
:10F9F0009492050018960500BD3786350000F03F4B
:10FA00006F12833AC3F51C4110B50123044680F8F8
:10FA1000583080F8C03000224FF47A71243002F060
:10FA2000B1FCA4F8EC0010BD38B503888B42054644
:10FA30000C4607D8064B074907485E2203F058FEDC
:10FA400003F066FE6B680C2000FB043038BD00BF7D
:10FA5000BA950500CD950500129405000000000040
:10FA60002DE9F04F2DED028B1546A9B043F602416A
:10FA70000446104602F0D4FA284602F02BFB838895
:10FA80000746002B00F0238194F8586000F1040A27
:10FA900096B30025F0EE088AB5EE008ABB889D4239
:10FAA00080F0158129465046FFF7BEFF94ED176A96
:10FAB000D0ED006A90ED017AD0ED027A26EE286A48
:10FAC00066EE886A27EE087AE6EE086A013567EE88
:10FAD000887AC4ED176AD4ED186A66EEA86AA6EEB5
:10FAE000887A84ED187A94ED197A27EE287AE7EE71
:10FAF000087AC4ED197AD1E7DFF8E8B1BB889E42F5
:10FB000080F0E58031465046FFF78EFFD0ED018A48
:10FB100090ED028A0546606D36F0D6FB6FA3D3E9FF
:10FB2000002336F04BFC95ED007AD4ED177A77EE92
:10FB3000677A8046894617EE900A36F0E7FB424620
:10FB40004B4636F065FD36F0FBFED4ED187A139087
:10FB500078EEE77A17EE900A36F0D8FB42464B462D
:10FB600036F056FD36F0ECFED4ED197A149078EEAE
:10FB7000677A17EE900A36F0C9FB42464B4636F0DC
:10FB800047FD36F0DDFE159013A800F0FFFBD4ED25
:10FB9000147A20EE007AB4EEE77AF1EE10FA40F330
:10FBA0008E8001230DF17008F1EE401A84F859306F
:10FBB0009DED130ADDED140A9DED151A404604F182
:10FBC000A80500F000FD0FCD0DF1100CACE80F0002
:10FBD00095E803008CE803001EAB0FCB8DE80F0007
:10FBE0000AA898E80C0000F0F4FB0DF1280CBCE822
:10FBF0000F0004F1A80EAEE80F009CE8030085E8B2
:10FC0000030094F8C190B9F1000F56D1D4F88830B0
:10FC1000626D042192FBF1F2934254DB04F1B808C7
:10FC200098E803008DE8030004F1A80595E80F00AB
:10FC300094ED230AD4ED240A94ED251A00F0F1FC8A
:10FC400098E803008DE803008DED160A95E80F0093
:10FC500094ED260ACDED170A8DED181AD4ED270A7A
:10FC600094ED281A00F0DDFC16A8CDED1A0A8DEDF2
:10FC70001B1A8DED190A00F089FB19A800F086FB0C
:10FC8000169B2293179B2393189B2493199B2593D0
:10FC90001A9B26931B9B27934FF45933119322AB46
:10FCA00012930D4B0093C4F8889011AB5A464FF451
:10FCB000B23104F1240002F0E3FB01361EE7002319
:10FCC00084F859309DE70133C4F88830F5E729B04E
:10FCD000BDEC028BBDE8F08FE4290020B694631AD6
:10FCE000DCA54C40A02900202DE9F04F2DED0E8B16
:10FCF000154689B043F602310446104602F090F9E9
:10FD0000284602F0E7F9838806467BB394F8C05092
:10FD1000071D85B300213846FFF786FE94ED265A6D
:10FD200090ED006AD0ED016A90ED027AF5EE007A6E
:10FD3000F0EE085A25EE255A26EE276A66EEA76AE7
:10FD4000A5EE276A27EE277A84ED266A94ED276AC6
:10FD500026EE256AE6EE276AC4ED276AD4ED286A06
:10FD600066EEA56AA6EEA77A84ED287A09B0BDEC06
:10FD70000E8BBDE8F08F9FEDA6ABDFF8ACA24FF085
:10FD8000000BB3889D42F1D229463846FFF74CFE5E
:10FD900094F8593023B994F8E830002B40F02B81C7
:10FDA00004F1B80990ED00CAD0ED018A90ED02BAD5
:10FDB00094ED230AD4ED240A94ED251A99E8030062
:10FDC0008DE8030004F1A80898E80F0000F029FC72
:10FDD00099E803008DE803008DED020A98E80F0012
:10FDE00094ED260ACDED030A8DED041AD4ED270A11
:10FDF00094ED281A00F015FC28EEA08A9DED039AD8
:10FE0000DDED02DA9DED04DACDED060AACEE008AF6
:10FE1000D4F8CC0069EE41BAA1EE0B8A60EEED9AFF
:10FE2000EDEE20BAD4ED350A8DED050A60EE4DCA2F
:10FE300038EE608A8DED071AE1EE2DCAE0EE099AE0
:10FE400036F064FA94ED34EAD4ED36EA68EE087AD6
:10FE50008046F4EECE7AF1EE10FA894640F3C28085
:10FE6000F8EE6E7AC8EE277A17EE900A36F04EFA60
:10FE700002460B4628EE899A4046ADEE8C9A4946DA
:10FE800036F0E6F836F05CFDADEE0B9AC4F8CC0027
:10FE9000D4F8C40036F03AFA69EE097A8046B4EE36
:10FEA000E7EAF1EE10FA8946F8EE6EEA40F19D803D
:10FEB000C9EE2E7A17EE900A36F028FA02460B4663
:10FEC00068EEAC8A4046ECEE2B8A494636F0C0F824
:10FED00036F036FDEBEE298AC4F8C400D4F8C80029
:10FEE00036F014FA68EEA87A8046B4EEE7EAF1EE4E
:10FEF00010FA89467CD5C8EEAE7A17EE900A36F035
:10FF000005FA02460B464046494636F0A1F836F05F
:10FF100017FDC4F8C800D4F8D820D4ED316A94F89D
:10FF2000C13007EE902AB8EE677AD4ED377A86EEC4
:10FF3000876A77EE867AC4ED377AD4ED327A87EE27
:10FF4000876AD4ED387A77EE867AC4ED387AD4EDC4
:10FF5000337A87EE876AD4ED397A77EE867AC4ED04
:10FF6000397A002B3CD0D4F88830B3EB920F49D3C8
:10FF7000FDEEE67A17EE900A36F009FFD4ED327AFC
:10FF8000FDEEE77A804617EE900A36F000FFD4EDDA
:10FF9000337AFDEEE77A814617EE900A36F0F7FEE7
:10FFA0004B46009042465146012003F013FC0023CB
:10FFB000C4F88830D4F8DC300593D4F8E0300693E8
:10FFC000D4F8E4300793144B029305AB0393134B1F
:10FFD0000093134A134902AB04F1240002F050FAD3
:10FFE0000135CEE653EC1A2B44E753EC1A2B67E7A6
:10FFF00053EC1A2B87E7C4F8CCB0C4F8C4B0C4F8EB
:020000022000DC
:10000000C8B088E70133C4F88830E9E7AFF300806F
:10001000000000000000000002640300E42900204A
:10002000A0290020026401006895050030B4084D45
:1000300041F00F04AC4206D005F18075AC4205D109
:1000400030BCFFF70DBD30BCFFF74EBE30BC704773
:100050001F00023B10B586B001240394054C0294A6
:10006000054C0494089C059402AC009402F070FDC9
:1000700006B010BD8C92050005000300F0B590F8A5
:100080003030022B8BB004460E4600F1240505D01B
:1000900040F2F7122846FFF7DBF940E04B68374A99
:1000A00043F00F03934206D002F50032934238D05A
:1000B00040F2F512EEE73249012003F08BFB0023FA
:1000C000C4F8F0302046FFF7EFFB94F84C300BB14A
:1000D000FFF79AFC0AAF012227F8182D294B009749
:1000E00029492046FFF7B6FFD4F88C300493D4F8A2
:1000F00090300593D4F894300693E36D0793236E04
:100100000893636E09934FF45933CDE9023702AB7C
:1001100000931E4BC8223146284602F067F90BB007
:10012000F0BD1B49012003F055FB94F84C301BB97E
:1001300040F2F7123146ADE7D4F8C4300493D4F856
:10014000C83005932046D4F8CC300693FFF7ACFBBB
:1001500094F84C300BB1FFF757FC0AAF012227F897
:10016000202D084B009708492046FFF773FF094BE5
:10017000029304AB03930097CBE700BF1F0000641A
:1001800049930500A42900200F000042A029002067
:100190005D93050002640300A0F12400FFF76EBF29
:1001A00010B586B001240394064C02944FF003145A
:1001B0000494089C059402AC009402F0C9FC06B0BB
:1001C00010BD00BF8C9205002DE9F043B0F8EA3075
:1001D0002DED048B8B4287B0044642D190F84C3011
:1001E0008BBBD0F8F03003F5BB531033C4F8F030BC
:1001F000D4F8F0205C4B9A420DF10C0825D906AEDC
:10020000012506F80D5D00274FF0030943462A46F5
:10021000564900962046CDE903778DF81490FFF7F4
:10022000BFFF009643462A4651498DF81490204658
:10023000CDE903778DF80B50FFF7B2FF07B0BDECA7
:10024000048BBDE8F0830023D0E70223ADF80C3027
:10025000CDF80080474B484901222046FFF7FAFEBF
:10026000ECE7B0F8EC308B42E8D190ED269A90EDB7
:10027000278AD0ED288A983000F088F869EE099A2C
:100280000025B0EE690AA8EE080A84F8585084F8F0
:10029000C050A8EEA80A35F069F806AB84ED350A1F
:1002A00023F80C5D012200933349324B2046FFF7BF
:1002B000D1FE19EE900A36F029F829A3D3E90023DC
:1002C00036F00CFB04F18C054FF07E530022E0B3B6
:1002D000B1EE487AC7EE097AC4F89030C4F8942099
:1002E000C4ED237ADFED259A284600F04FF829EE79
:1002F000299AFDEEC97A17EE900A36F048FD28EEED
:10030000298A0546FDEEC87A17EE900A36F03FFDC1
:1003100068EEA98A0646FDEEE87A17EE900A36F0F6
:1003200036FDD4ED357A67EEA99A0746FDEEE97AF7
:1003300017EE900A36F02BFD3346CDE900702A46C1
:100340000F49012003F046FA78E7B1EE687AC7EE6C
:10035000087AC4F88C20C4F89430C4ED247AC1E73C
:10036000FCA9F1D24D62503F1FBF02001F00030BDA
:100370001F000009A42900200F0000420000C8420D
:1003800027950500A0F12400FFF71EBF90ED010A9C
:1003900090ED007AD0ED027A20EE000A10B5A7EEBB
:1003A000070A0446A7EEA70A34F0E0FFD4ED006A7E
:1003B00086EE807AD4ED016A84ED007A86EE807A4A
:1003C000D4ED026A84ED017A86EE807A84ED027AB9
:1003D00010BD82B02DE9F0472DED068B0EA981E806
:1003E0000C00DDE91445DDE90E6782469DED10AA9B
:1003F000DDED168A9DED119ADDED179A9DED128ABD
:10040000DDED18AA22462B463046394635F0D6FF98
:100410006AEE287A804617EE900A894635F076FF14
:1004200002460B464046494635F010FE69EE297AF1
:10043000804617EE900A894635F068FF02460B4663
:100440004046494635F002FE68EE2A7A804617EEAD
:10045000900A894635F05AFF02460B464046494607
:1004600035F0F4FDCAE9000118EE900A35F04EFFB0
:1004700032463B4635F0A2FF80461AEE100A894606
:1004800035F044FF22462B4635F098FF02460B46D6
:100490004046494635F0DCFD69EE2A7A804617EE83
:1004A000900A894635F032FF02460B4640464946DF
:1004B00035F0CEFD68EE297A804617EE900A89461F
:1004C00035F024FF02460B464046494635F0BEFD56
:1004D00036F036FACAF8080019EE900A35F016FF21
:1004E00032463B4635F06AFF6AEE2A7A804617EEBE
:1004F000900A894635F00AFF02460B4640464946B7
:1005000035F0A4FD804619EE100A894635F0FEFE4E
:1005100022462B4635F052FF02460B4640464946DE
:1005200035F096FD68EE287A804617EE900A8946E7
:1005300035F0ECFE02460B464046494635F088FD54
:1005400036F0FEF9CAF80C001AEE900A35F0DEFE1D
:1005500032463B4635F032FF6AEE297A064617EE00
:10056000900A0F4635F0D2FE02460B463046394619
:1005700035F06EFD69EE287A064617EE900A0F46B2
:1005800035F0C4FE02460B463046394635F05EFD76
:10059000064618EE100A0F4635F0B8FE22462B46E6
:1005A00035F00CFF02460B463046394635F050FD1B
:1005B00036F0C6F9BDEC068BCAF810005046BDE80F
:1005C000F04702B0704710B52DED048BB6EE008AEF
:1005D00021EE888A84B0F0EE409AB0EE480A0446D4
:1005E000B0EE609AF0EE418A34F026FE10EE100A6A
:1005F00035F08CFEB0EE480AC4E9000134F06CFE20
:1006000020EE099A60EE288A69EE809A2046C4EDB1
:10061000029A84ED039AC4ED048A04B0BDEC048B05
:1006200010BD84B070B5AEB032AC84E80F000022CB
:1006300000238DED0F0ACDED100A8DED111ACDE9D5
:100640001C230FAA07CA1EAB83E807001CAD0FCD01
:1006500004AC0FC495E8030084E8030034AB0FCB6F
:100660008DE80F0022AE32AB30460CCBFFF7B1FE67
:10067000DDE932239DED357ADDED367ADDED346A44
:10068000CDE92823B1EE477AF1EE677AF1EE666A9A
:10069000CDED2C7ACDED2A6A8DED2B7A28AD0FCDDC
:1006A00004AC0FC495E8030084E8030024AB0FCB2F
:1006B0008DE80F0016A896E80C00FFF78AFE18AA2E
:1006C00007CA13AB83E807009DED130ADDED140A9A
:1006D0009DED151A2EB0BDE8704004B07047F7B517
:1006E00002AE0546186846F8040D00200446A242F2
:1006F00004D8814282BFA75D2F5401300134042CFD
:10070000F5D102AE5F6846F8047DA24206D8814268
:1007100081BF371917F8047C2F5401300134082C9D
:10072000F3D102AE9F6846F8047DA24206D881420A
:1007300081BF371917F8087C2F54013001340C2C75
:10074000F3D102AEDF6846F8047DA24206D88142AA
:1007500081BF371917F80C7C2F5401300134102C4D
:10076000F3D102AE1F6946F8047DA24206D8814249
:1007700081BF371917F8107C2F5401300134142C25
:10078000F3D15E6902AB43F8046DA24206D8814200
:1007900081BF1E1916F8146C2E5401300134182C28
:1007A000F3D103B0F0BDF7B502AE0546186846F8C0
:1007B000040D00200446A24204D8814282BFA75DF6
:1007C0002F5401300134042CF5D102AE5F6846F895
:1007D000047DA24206D8814281BF371917F8047CF4
:1007E0002F5401300134082CF3D19E6802AB43F83A
:1007F000046DA24206D8814281BF1E1916F8086C0A
:100800002E54013001340C2CF3D103B0F0BDF7B5F8
:10081000002407460DF1040C20461D88AC424FEA27
:10082000840614D25D6855F824500195002506EB26
:10083000050E724506D8814282BF15F80CE007F814
:1008400000E001300135042DF1D10134E5E702ACBF
:100850009B6844F8043D0023F518AA4204D881425D
:1008600082BF1D5D3D5401300133042BF4D103B030
:10087000F0BDF7B502AD0746186845F8040D002035
:100880000446944204D3814282BF665D3E540130E7
:100890000134042CF5D100259E88B54215D29E68FE
:1008A000944236F8156003D388423CBF3E54013071
:1008B00004F1010C944505D3814282BFC6F307269B
:1008C0003E54013002340135E6E703B0F0BDF7B520
:1008D00002AD0646586845F8040D00200446A242C1
:1008E00004D8814282BF675D375401300134042C43
:1008F000F5D11D6802AB43F8045DA24206D88142DF
:1009000081BF1D1915F8045C355401300134082CE1
:10091000F3D103B0F0BDF7B5D3E9006702AD65E9E7
:10092000026700231C46A24204D8994282BF665D3A
:10093000C65401330134082CF5D1184603B0F0BD7C
:10094000F7B502AD0646586845F8040D0020044688
:10095000A24204D8814282BF675D3754013001341E
:10096000042CF5D11D6802AB43F8045DA24206D801
:10097000814281BF1D1915F8045C355401300134E2
:10098000082CF3D103B0F0BD8389808803440C2088
:100990005843043070478389808803440C205843AF
:1009A0000430704783898288808A134418440C235A
:1009B000584304307047B0F5785F13D009D840F23F
:1009C000091398420ED0B0F5E06F0BD04FF0FF3016
:1009D0007047B0F5C84F07D046F202439842F5D1B0
:1009E0000C2070470820704718207047B0F5E06F62
:1009F00070B513D00A4C00220C2505FB02F31E5BD8
:100A0000864206D123445E688E4202D19B681888D4
:100A100070BD0132442AF0D10020F9E70420F7E745
:100A200068A305003C2070474E2070473C2070476B
:100A300013B50446082101F0F3FA616808226846FC
:100A400036F04DFCDDE9000102B010BDB0F5804F7D
:100A500010B502460C4676D02AD843F602339842A7
:100A60001AD00ED840F20913984200F09280B0F5E7
:100A7000E06F00F089800120474902F0ABFE0020C2
:100A80004CE043F60253984206D0B0F5785F72D03E
:100A900043F602439842EED11146204601F0C0FAD7
:100AA000204601F017FB83880C205843043035E0C2
:100AB00044F20361884252D011D844F20133984283
:100AC00036D044F202639842D5D1204601F0A8FA0C
:100AD000204601F0FFFABDE81040FFF755BFB0F522
:100AE000C84F13D046F20243984218D044F2046330
:100AF0009842C0D1204644F2026101F091FA2046AA
:100B000001F0E8FABDE81040FFF74CBF014620466F
:100B100001F086FA204601F0DDFA182010BD0146EA
:100B2000204601F07DFA204601F0D4FA0C20F5E7CA
:100B30000146204601F074FA204601F0CBFA008805
:100B400001308000EAE740F20321204601F068FA14
:100B5000204601F0BFFA808802304000DEE72046E0
:100B600044F2046101F05CFA204601F0B3FABDE8FA
:100B70001040FFF710BF43F60161204601F050FA24
:100B8000204601F0A7FA02E00846FFF751FF0820CF
:100B9000C4E740F20111F0E7149905002DE9F04F88
:100BA00085B091469A461A6804AB002443F8042D98
:100BB000074688462546A94504D8A04582BFEA5C79
:100BC0003A5501340135042DF5D10AF1040300260C
:100BD00000930DF10C0BBAF804309E4246D2314618
:100BE0000098FEF721FF036803930023EA184A45A3
:100BF00005D3A04582BF13F80B203A5501340133C9
:100C0000042BF3D12A1D314600980192FEF70CFF08
:100C1000019A43680393ABEB050105F10803914585
:100C200006D8A04581BF881810F8040C3855013447
:100C300001329A42F3D1314600980193FEF7F4FE57
:100C4000019B8268039205F10C02ABEB0505994507
:100C500006D8A04581BFE91811F8081C39550134A0
:100C600001339A42F3D101361546B4E7204605B068
:100C7000BDE8F08F2DE9F04F85B091469A461A688D
:100C800004AB002443F8042D074688462546A945B1
:100C900004D8A04582BFEA5C3A5501340135042DE1
:100CA000F5D10AF10403002600930DF10C0BBAF8FC
:100CB00004309E4246D231460098FEF7B5FE0368E6
:100CC00003930023EA184A4505D3A04582BF13F8D1
:100CD0000B203A5501340133042BF3D12A1D314640
:100CE00000980192FEF7A0FE019A43680393ABEBD4
:100CF000050105F10803914506D8A04581BF881874
:100D000010F8040C3855013401329A42F3D13146BF
:100D100000980193FEF788FE019B8268039205F11B
:100D20000C02ABEB0505994506D8A04581BFE91833
:100D300011F8081C3955013401339A42F3D10136B8
:100D40001546B4E7204605B0BDE8F08F2DE9F04F19
:100D500087B0904601931A6806AB002443F8042D2F
:100D600006460F462546A84504D8A74282BFEA5C3E
:100D7000325501340135042DF5D1019B04334FF078
:100D8000000A02930DF1140B019B9A88924559D3E6
:100D90000C3305F108094FF0000B6D4202930DF181
:100DA000140AA9F108030393019B9A89934580F0E3
:100DB000918059460298FEF737FE039B0268059220
:100DC00000229918884505D8A74282BF12F80A1058
:100DD000315501340132042AF3D1A9F104035946F3
:100DE00002980393FEF720FE039B426805920AEBEC
:100DF0000502984506D8A74281BFD11811F8041CF6
:100E00003155013401334B45F3D159460298FEF771
:100E10000BFE8368059309F104024B460AEB0501BA
:100E2000984506D8A74281BFC81810F8080C30555D
:100E3000013401339342F3D10BF1010B09F10C0999
:100E40000C3DAEE751460298FEF7EEFD02680592B2
:100E50000022A918884505D8A74282BF12F80B10B6
:100E6000315501340132042AF3D12A1D514602982A
:100E70000392FEF7D9FD039A4168059105F108092F
:100E8000ABEB0501904506D8A74281BF881810F842
:100E9000040C3055013401329145F3D1514602988A
:100EA000FEF7C2FD8268059205F10C02ABEB050569
:100EB000C84507D8A74281BF05EB090111F8081CF6
:100EC0003155013409F101099145F1D10AF1010AC5
:100ED0004D4659E7204607B0BDE8F08F2DE9F04FA9
:100EE00087B0904601931A6806AB002443F8042D9E
:100EF00006460F462546A84504D8A74282BFEA5CAD
:100F0000325501340135042DF5D1019B04334FF0E6
:100F1000000A02930DF1140B019B9A88924559D354
:100F20000C3305F108094FF0000B6D4202930DF1EF
:100F3000140AA9F108030393019B9A89934580F051
:100F4000918059460298FEF76FFD039B0268059257
:100F500000229918884505D8A74282BF12F80A10C6
:100F6000315501340132042AF3D1A9F10403594661
:100F700002980393FEF758FD039B426805920AEB23
:100F80000502984506D8A74281BFD11811F8041C64
:100F90003155013401334B45F3D159460298FEF7E0
:100FA00043FD8368059309F104024B460AEB0501F2
:100FB000984506D8A74281BFC81810F8080C3055CC
:100FC000013401339342F3D10BF1010B09F10C0908
:100FD0000C3DAEE751460298FEF726FD02680592E9
:100FE0000022A918884505D8A74282BF12F80B1025
:100FF000315501340132042AF3D12A1D5146029899
:101000000392FEF711FD039A4168059105F1080965
:10101000ABEB0501904506D8A74281BF881810F8B0
:10102000040C3055013401329145F3D151460298F8
:10103000FEF7FAFC8268059205F10C02ABEB0505A0
:10104000C84507D8A74281BF05EB090111F8081C64
:101050003155013409F101099145F1D10AF1010A33
:101060004D4659E7204607B0BDE8F08F2DE9F04F17
:1010700087B0904601931A6806AB002443F8042D0C
:1010800006460F462546A84504D8A74282BFEA5C1B
:10109000325501340135042DF5D1019B4FF0000983
:1010A00003F1040A0DF1140B019B9B8899456AD347
:1010B000019B0C3305F108094FF0000B6D420293C0
:1010C0000DF1140A019A92899345A9F10803C0F021
:1010D000A280019B1433C9F108054FF0000B029365
:1010E0000DF1140AA9F108030393019B9A8A934511
:1010F00080F0DB8059460298FEF796FC039B02685D
:10110000059200229918884505D8A74282BF12F897
:101110000A10315501340132042AF3D1A9F1040334
:10112000594602980393FEF77FFC039B42680592A1
:101130000AEB0502984506D8A74281BFD11811F8DD
:10114000041C3155013401334B45F3D15946029803
:10115000FEF76AFC8368059309F104024B460AEB2B
:101160000501984506D8A74281BFC81810F8080C99
:101170003055013401339A42F3D10BF1010B09F1DF
:101180000C090C3DAEE749465046FEF74DFC03689E
:1011900005930023EA18424505D3A74282BF13F8FE
:1011A0000B20325501340133042BF3D12A1D49465B
:1011B00050460292FEF738FC029A43680593ABEB67
:1011C000050105F10803904506D8A74281BF88189C
:1011D00010F8040C3055013401329A42F3D14946DB
:1011E00050460293FEF720FC029B8268059205F1AF
:1011F0000C02ABEB0505984506D8A74281BFE9185C
:1012000011F8081C3155013401339A42F3D109F128
:101210000109154648E7594602980393FEF704FC76
:10122000039B0268059200229918414505D3A74205
:1012300082BF12F80A10315501340132042AF3D169
:10124000A9F10403594602980393FEF7EDFB039BB3
:10125000426805920AEB0502984506D8A74281BF6D
:10126000D11811F8041C3155013401339945F3D1DB
:1012700059460298FEF7D8FB8368059309F10402EA
:101280004B460AEB0501984506D8A74281BFC8180E
:1012900010F8080C3055013401339A42F3D10BF1A8
:1012A000010B09F10C090C3D0CE7204607B0BDE825
:1012B000F08F2DE9F04F85B091469A461A6804AB3D
:1012C000002443F8042D074688462546A94504D83E
:1012D000A04582BFEA5C3A5501340135042DF5D1B1
:1012E0000AF10403002600930DF10C0BBAF8043048
:1012F0009E4246D231460098FEF796FB0368039360
:101300000023EA184A4505D3A04582BF13F80B20F5
:101310003A5501340133042BF3D12A1D314600988C
:101320000192FEF781FB019A43680393ABEB050141
:1013300005F10803914506D8A04581BF881810F82B
:10134000040C3855013401329A42F3D131460098E9
:101350000193FEF769FB019B8268039205F10C0281
:10136000ABEB0505994506D8A04581BFE91811F8F2
:10137000081C3955013401339A42F3D10136154620
:10138000B4E7204605B0BDE8F08F0000F7B5B3F52F
:10139000804F0E46054617461946089C00F09A8075
:1013A0002ED843F6023399427AD00FD840F209136F
:1013B000994200F0D580B1F5E06F00F0C5800A4693
:1013C00001206F4902F006FA00205AE043F602536A
:1013D000994200F09D80B1F5785F00F0A68043F659
:1013E00002439942EBD1204600F01AFE204600F05D
:1013F00071FE3A46034631462846FFF73BFC40E083
:1014000044F20363994274D015D844F201329142F8
:1014100053D044F202629142D1D11946204600F0E5
:10142000FFFD204600F056FE3A4603463146284668
:10143000FFF78CFC25E0B1F5C84F16D046F2024309
:10144000994220D044F204639942B8D144F2026137
:10145000204600F0E5FD204600F03CFE3A460346FB
:1014600031462846FFF702FE0BE0204600F0D8FD8B
:10147000204600F02FFE3A46034631462846FFF745
:101480002EF903B0F0BD204600F0CAFD204600F062
:1014900021FE3A46034631462846FFF784F9F0E735
:1014A000204600F0BDFD204600F014FE3A460346FB
:1014B00031462846FFF772FBE3E7204600F0B0FD17
:1014C000204600F007FE3A46034631462846FFF71D
:1014D0009EF9D6E740F20321204600F0A1FD204608
:1014E00000F0F8FD3A46034631462846FFF7C1F9B9
:1014F000C7E744F20461204600F092FD204600F068
:10150000E9FD3A46034631462846FFF7E7FCB8E7CF
:10151000204600F085FD204600F0DCFD3A460346FB
:1015200031462846FFF7C5FEABE743F6016120468A
:1015300000F076FD204600F0CDFD3A4603463146E8
:101540002846FFF7C4F99CE72046FFF771FA02AB83
:1015500063E902013A4631462846FFF7DCF990E795
:1015600040F20111204600F05BFD204600F0B2FD84
:101570003A46034631462846FFF7E2F981E700BFC5
:10158000459905000149024800F0A4BB84B005005C
:101590008C290020014800F095BB00BF8C29002059
:1015A00010B5064B0360002304460371816002738B
:1015B000036100F071F9204610BD00BF3804060039
:1015C00010B5034B0360044600F0A8F9204610BD97
:1015D00038040600407970470223037301207047E6
:1015E000A0F10800FFF7F8BF032303737047A0F1D1
:1015F0000800FFF7F9BF70477047C268836840680A
:1016000012F0010F4FEA620218BF8158104418BF50
:10161000CB581847C2688368406812F0010F4FEA40
:10162000620218BF8158104418BFCB58184713B531
:1016300002AA40F2111322F8023D0121044600F0F3
:1016400047FEC8280BBF0120002001230423237379
:1016500002B010BDA0F10800FFF7E9BF13B502AA60
:1016600040F2111322F8023D0121044600F04EFE23
:101670000023237302B010BDA0F10800FFF7EEBFF6
:1016800010B503790446D80709D5206803689B681C
:101690009847A07118B9237923F0020323712379A5
:1016A000990704D5206803681B699847A0712379BE
:1016B0005A0705D5206803685B6998470123A37121
:1016C00023791B0705D520680368DB689847012349
:1016D000A3710123637123681B7B23B10020BDE844
:1016E000104001F018BE10BD10B5044601F0D8FF3F
:1016F000204610BD10B5044601F0D2FF204610BDB3
:1017000038B543688B4204460D4607D8054B064959
:101710000648812201F0ECFF01F0FAFF04EBC5005E
:10172000083038BDB0930500780406001294050017
:1017300013B500210068FFF7E3FF0446052100F020
:101740006FFC022261680DF1060035F0C8FDBDF89E
:10175000060002B010BD00002DE9F0433A4BC9B0BD
:101760001C685368039206460F469BB10021104641
:10177000FFF7C6FF03880E2B02D813F0FF0F09D026
:1017800003A8FFF7D5FF002C45D018B10138246914
:1017900080B2F8E700230DF120081A4648F83320FC
:1017A0000133202BFAD100254FF040099CB1202DA8
:1017B00011D0A06835F094FF09308144B9F5EB7F72
:1017C00009D8A36848F8353008EBC50322791A71A7
:1017D00024690135EAE74FF48A72ADF818209DF8C4
:1017E0001A20ADF8105042F0030202F0C3026FF36A
:1017F0008712002C06AB04A98DF81A204FF00002C6
:101800008DF81B200093CDF8148007910F4B14BF67
:101810006422C82210E003A8FFF78AFF01460C48A3
:1018200001F066FF0B4A92E8030008AB83E803006F
:101830000093064B4FF4D0723946304600F0D6FD87
:1018400049B0BDE8F08300BF94290020A029002002
:101850008C0406009829002010B500210068FFF7CD
:101860004FFF0C21044600F0DBFB2046BDE8104092
:1018700000F0FCBB38B50B46044601211868FFF7A1
:101880003FFF0546032100F0CBFB0122696820469B
:1018900035F025FD204638BD70B5044681681848EE
:1018A00001F026FFA06835F01BFF202807D9154B53
:1018B000154916488E2201F01BFF01F029FF23690C
:1018C0003BB1134B10491148912201F011FF01F077
:1018D0001FFF104D2E6876B1A168B06835F0EEFE9E
:1018E00038B90D4B08490948992201F001FF01F070
:1018F0000FFF3669EFE72B6823612C6070BD00BFD6
:10190000B5040600C704060078040600129405001A
:10191000180506009429002036C4060010B5816819
:1019200004460F4801F0E4FE0E4B1A68944202D1BF
:1019300022691A6010BD13693BB1A34202D11B6931
:10194000136110BD1A461B69F6E7074B07490848A3
:10195000BC2201F0CDFEBDE8104001F0D9BE00BFB1
:10196000350506009429002036C4060078040600D8
:10197000129405000A780379032A1DD8DFE802F0E3
:1019800002080F1613F0FB0F0CBF01200020704758
:1019900003F0FD02012A11D0052B13D10EE0022B1A
:1019A0000ED0052B14BF00200420704703F0FD0269
:1019B000012A0DD108207047FF2070470220704790
:1019C0000420704713F0FB0F14BF00200320704762
:1019D000022B04D0052B14BF00200C2070470C20D4
:1019E00070470000F0B58BB000230646087B0193DA
:1019F0000D4600918DF8042001F06BFC044618B1EF
:101A00006846FFF73DFE3DE0214B02930590214BD8
:101A1000287BCDF80CD002A9049301F09EFC074668
:101A200038B91D4B1B787BB31C4A214601F014FECC
:101A30002AE0214601F0BEFC194B06932046194BC3
:101A4000CDF81CD00893099401F043FC18B106A806
:101A500001F049FC13E00836B54208D0124B134997
:101A6000134840F2131201F043FE01F051FE06A8A4
:101A7000FFF7C3FD18B9022001F0D6FDF7E738469D
:101A800001F080FC9DF8064020460BB0F0BD00BF81
:101A90006C04060081160200182600204A05060084
:101AA00058040600D51502006805060078040600F3
:101AB0001294050037B504460022114604F10805CA
:101AC00000F0ACFB002215492846FFF769FD144BD6
:101AD00023604C33A36020221249134801F008FE12
:101AE000124B1B689D4201D1A3693BB1104B1149B8
:101AF00011485A2201F0FCFD01F00AFE02A901235F
:101B000001F8043D2846FFF735FF294602462046E6
:101B1000FFF768FF204603B030BD00BF9D050600FB
:101B200084060600E8060600AD050600942900209C
:101B3000BD0506007804060012940500154B37B564
:101B4000054603604C3345F8083F134B1B689D4224
:101B5000044601D183693BB1104B114911486422FD
:101B600001F0C6FD01F0D4FD02A9032301F8043DF4
:101B70002846FFF7FFFE294602462046FFF732FFC0
:101B80002846FFF71DFD204600F006FB204603B067
:101B900030BD00BF8406060094290020BD05060064
:101BA0007804060012940500A0F10800FFF7C6BFF4
:101BB00010B50446FFF7C2FF204634F02BFA20464A
:101BC00010BDA0F10800FFF7F3BF000038B5084BC7
:101BD0001C680D4629462CB1A06835F06FFD20B178
:101BE0002469F7E7034801F083FD204638BD00BFB4
:101BF00094290020EE0506002DE9F04186B006ACE0
:101C0000064644F80C2D20468846FFF725FE01467F
:101C10003046FFF7DBFF04AD074648B92046FFF723
:101C20001BFE0146224801F063FD4FF4CA722CE00E
:101C300021462846FFF71EFE29463846FFF79AFE42
:101C4000FF28024616D080B339463046FFF7CAFE59
:101C500058BB21462846FFF70DFE20469DF8107020
:101C6000FFF7FAFD39460246124801F041FD4FF4F4
:101C7000FA720AE021462846FFF7FCFD9DF8101095
:101C80000D4801F035FD4FF4C8720C4B93E803008A
:101C900042F4803285E80300094B00954146304606
:101CA00000F0A4FB06B0BDE8F081C822EDE700BF5C
:101CB000090606004F06060029060600982900209E
:101CC000A0290020704710B5044634F0A3F920463F
:101CD00010BD0000014A0260416070470007060025
:101CE000406810B510B94FF4C87010BD8207FAD122
:101CF00002680A4B9A420ED14168B1F1807FF2D25C
:101D00008B07F0D184680C390C3001F086FB8442DB
:101D1000E9D1C82010BD40F2F91010BD5742523031
:101D20004FF6FF73994208D04268B2F854308B42A4
:101D300003D9D3680B44D0187047002070474FF682
:101D4000FF73994270B519D04268CEB2B2F86230D2
:101D500009120131994211D2946A14444D0034F8A9
:101D60001130B3420AD92C44516A34F8023C33444E
:101D70009BB2062000FB0310104470BD002070BD14
:101D800038B505460C4621882846FFF7D8FF28B10C
:101D90000378012B02D183882380F4E738BD4368A0
:101DA000B3F86000884270B515D9986A00241844C9
:101DB000E5B26E1C013430F81660B142F8D230F84A
:101DC000150001EB0524201A10805A6A062000FB3A
:101DD0000121581870BD002070BD4FF6FF73994265
:101DE0000AD04368B3F858208A4205D95A690620B8
:101DF00000FB012158187047002070474FF6FF7311
:101E0000994209D04268B2F85A308B4204D993699A
:101E100003EB4103D0187047002070474FF6FF7363
:101E20009A4217D04B68B3F85C108A4205D2D96940
:101E300001EB4202134401220AE0521AB3F85E1089
:101E400092B2914206D9196A01EBC20213440022F0
:101E5000027001E000230370436070474FF6FF7388
:101E600099420AD04368B3F864208A4205D9DA6AF5
:101E7000062000FB012158187047002070474FF6DC
:101E8000FF73994209D04268B2F866308B4204D998
:101E9000136B03EB4103D0187047002070474FF6D7
:101EA000FF73994209D04268B2F868308B4204D976
:101EB000536B03EB8103D0187047002070474FF637
:101EC000FF73994209D04268B2F86A308B4204D954
:101ED000936B03EB4103D0187047002070474FF617
:101EE000FF7399420AD04368B3F86C208A4205D93F
:101EF000DA6B0C2000FB0121581870470020704756
:101F00004FF6FF7399420AD04368B3F86E208A42B5
:101F100005D91A6C0C2000FB0121581870470020CD
:101F20007047FF2909D04268B2F870308B4204D95B
:101F3000536C03EB4103D018704700207047426890
:101F4000D368B2F85400D1180344134400209942D6
:101F500006D011F8012B002AF9D1013080B2F6E742
:101F6000704773B50B880380837803F0E00343F078
:101F7000140303F0DF036FF387138370044688783C
:101F8000E0704B6863600B88DBB102AD002305F89D
:101F9000013D8DF806300BF029FC03681B6998475A
:101FA000036861681E680DF106022B46B047A378EE
:101FB0009DF8072062F300039DF8062062F34103B9
:101FC000A370204602B070BD38B50D46044650B12E
:101FD000837843F0030303F0C3036FF38713837025
:101FE0000023C37043602B7823800C2B02D1AB6895
:101FF00063600DE003F0FD030D2B07D1054B06498F
:1020000006484E2201F074FB01F082FB0835656042
:10201000204638BD0807060069070600129405002F
:1020200008B503888B420FD00F2901D10F2B0BD895
:102030000F2B09D0054B06490648662201F058FBD4
:10204000BDE8084001F064BB08BD00BF730706008F
:1020500069070600129405004368187870474368C2
:1020600093F90000704743681878704740687047DC
:10207000406870470B880E2B37B505460C460DD9C6
:10208000A37803F00C03042B11D00E4B0E490F481C
:10209000962201F02DFB01F03BFB08E00C4B0A49B6
:1020A0000A48922201F024FB01F032FBE8E7636862
:1020B0000093E27821880023284614F0A5F92846E9
:1020C00003B030BD08080600690706001294050039
:1020D0003908060030B5837803F00C030C2B85B06B
:1020E000044607D11D4B1E491E48A62201F000FBE5
:1020F00001F00EFBA37803F00C03042B2BD1E07846
:102100000BF074FB05460BF04BFF03AA21882C3023
:102110000EF0B8F9B0B12B6828461B699847039AAE
:10212000036800925D68218862680023A8476060A8
:1021300040B1A37803F0F20343F009036FF30413F3
:10214000A37008E0084B06490648B32201F0D0FA14
:1021500001F0DEFAEDE7606805B030BD5F0806000B
:102160006907060012940500933D0600064A93781D
:1021700043F00303002103F0C30361F387131180CD
:102180009370D17051607047982900207047704754
:1021900070470BF005BF000010B5054B0360044607
:1021A0000BF0FEFE21460BF0C1FF204610BD00BF24
:1021B000A008060010B50446FFF7EEFF204633F0F6
:1021C00029FF204610BD0000036810B5044643B93E
:1021D000054B064906484FF4767201F089FA01F082
:1021E00097FA206810BD00BFD4080600EA08060070
:1021F0001294050038B5084B5B78044653B1038848
:1022000023F00205C82D05D0642B03D0CC2B01D0C0
:102210000DF0A8FD208838BD182600200F4B10B502
:10222000036000230371437903F0F00362F30713A3
:1022300043714FF6FF730446C3800BF0B1FE214695
:102240000BF038FFC82807D0054B0649064829225D
:1022500001F04EFA01F05CFA204610BDA00806001D
:10226000FF080600EA0806001294050000487047BF
:102270004F7606004379C28800201B096FF30300E4
:1022800063F307106FF30F2062F31F407047C0889D
:102290007047000038B581F4004247F6FE739A4259
:1022A00005460C4607D8054B054906484B2201F068
:1022B0001FFA01F02DFAEC8038BD00BF16090600A8
:1022C000EA080600129405004079000970470000F2
:1022D0000368F7B59B680E461746044698470546BF
:1022E0002046FFF7C7FF3A460346314628460CF022
:1022F0006DFE02AB5B2223F8020D03491846FFF77F
:1023000079FF03B0F0BD00BFEA080600F0B503682E
:1023100085B09B680E4617460446984705462046FA
:10232000FFF7A8FF012300933A46034631462846AB
:102330000CF0B6FD04AB602223F8020D02491846EA
:10234000FFF758FF05B0F0BDEA080600036873B553
:102350009B680E460446984705462046FFF78AFFCD
:102360003246014628460CF0FFFA02AB652223F8FC
:10237000020D03491846FFF73DFF02B070BD00BFD4
:10238000EA080600036873B59B68164604460D46C6
:1023900098472030FFF718FF6379E28800921B0905
:1023A000324629460DF0AAFD02B070BD036870B533
:1023B0009B680D461646044698472030FFF704FFF9
:1023C000E38832462946BDE870400DF0E7BD38B5D8
:1023D00003689B680D46044698472030FFF7F4FEDB
:1023E0002A46E188BDE838400DF034BEF0B585B02E
:1023F00014461F4605460E46FFF73CFFE3030390D5
:1024000008D503A800F054FF037843F001030370DC
:1024100024F480342B6828469B6898470A9B0193D4
:102420003246A3B2039900970CF054FB04AB86220A
:1024300023F8060D02491846FFF7DCFE05B0F0BD93
:10244000EA08060007B5054B009340F2F512044B6D
:10245000FFF7CCFF03B05DF804FB00BF9829002014
:10246000A029002007B5044B0093C822034BFFF7B7
:10247000BDFF03B05DF804FB98290020A0290020CF
:10248000F0B585B01F4605460C461646FFF7F2FE2E
:10249000CB03039006D503A800F00AFF037843F0AE
:1024A000010303702B6828469B6898470A9B019399
:1024B000A2B23346039900970CF066FB04AB92225C
:1024C00023F8060D02491846FFF794FE05B0F0BD4B
:1024D000EA0806002DE9F04105460F46164600249D
:1024E00073689C4218D221463046FFF709F90388E9
:1024F0000E2B01D80D2B01D00134F1E7072C0BD89E
:102500002B6821463046D3F81480FFF7F9F8394696
:1025100002464346284604E02B681B69324639468A
:102520002846BDE8F0411847014B00221A70704759
:10253000A029002070477047704770477047704768
:10254000704770477047C2688368406812F0010F97
:102550004FEA620218BF8158104418BFCB58184781
:102560000BF01EBD10B5054B036004460BF018FDC3
:1025700021460BF079FE204610BD00BFB4090600CD
:1025800010B50446FFF7EEFF204633F043FD20462A
:1025900010BD10B5044633F03DFD204610BD10B50A
:1025A000044633F037FD204610BD000030B5816988
:1025B00087B0044619B9214801F09AF83CE004AD0F
:1025C000CB8902690393103128460292FFF7FCFC85
:1025D000217B029A039B052924D8DFE801F0030838
:1025E0000F14191E206800952189456903E02068B1
:1025F0000095218985692046A8471BE02068009541
:102600002189C56AF7E7206800952189056BF2E703
:10261000206800952189C569EDE72068009521892A
:10262000056AE8E7064B07490748FD2201F060F814
:1026300001F06EF80023A36107B030BD31990600A8
:1026400036C40600F00906001294050010B50446D1
:1026500001F026F8204610BD10B5044B0360044677
:10266000406900F08FFE204610BD00BFA0090600A3
:10267000038813B15A1C92B201E0022201230280A6
:1026800001B10B8018467047036810B5044643B982
:10269000054B064906484FF4767201F029F801F01F
:1026A00037F8206810BD00BFD4080600F009060006
:1026B0001294050010B50446FFF7CEFF14B1204672
:1026C00000F0EEFF204610BD38B54569044600F025
:1026D0006CFF0146284600F04EFE40B9074B084902
:1026E00008484FF4957201F003F801F011F8201D2D
:1026F000FFF729FF2046FFF7DDFF38BD030A06007C
:10270000F0090600129405001FB504460078012860
:102710001DD0114BA2681B788BB16168C2F30723EF
:10272000120C090C029301920C4B0D4A00910021EE
:10273000022808BF13460B4A084600F08DFF0A4BDB
:102740000A490B48702200F0D3FF00F0E1FF02239A
:10275000237004B010BD00BF182600203D0A0600FB
:102760002D0A0600470A0600933D0600F009060000
:1027700012940500092110B501731349134B096820
:102780000360016100234FF6FF710446436003813B
:10279000C381838283618183C38380F8202080F892
:1027A000213080F822100BF0FBFB21460BF01CFDC2
:1027B000C82807D0064B07490748522200F098FF67
:1027C00000F0A6FF204610BD0C0C0600B409060060
:1027D000FF080600F0090600129405000048704743
:1027E0004F760600838B90F8202000206FF30300C3
:1027F00062F307106FF30F2063F31F407047808B65
:102800007047000038B50B0405460C4607D4054B4D
:1028100005490648732200F06BFF00F079FFAC8396
:1028200038BD00BF6C0A0600F009060012940500CE
:1028300090F8200070470000F7B5089E00249E46DF
:102840003460002933D01C4C246801948C89002CFE
:102850002FD00C78092C05D09EF800703C1B6742E5
:10286000674100E001270D891DB114880134A5429C
:1028700007DC4D893DB11488AC42ACBF0025012571
:1028800002E0002500E001254C68019BA34203D033
:10289000031B5C425C4100E0012437B12DB124B13F
:1028A000138831600133138001E02831CEE70846F8
:1028B00000E0204603B0F0BD0C0C06002DE9FF41FE
:1028C000984603689B6804460E461746984798F852
:1028D0000030054623B12046FFF784FF034601E0A0
:1028E0000A4B1B680122009231463A4628460BF0FB
:1028F0000BFD04AB40F2071223F8020D0449184601
:10290000FFF778FC04B0BDE8F08100BF140C0600AE
:10291000F00906002DE9F04385B004AE062306F861
:10292000023D00F1180300930446884617464168AB
:1029300000F108021F4833460068FFF77DFF054697
:10294000B8B13B680BB122891A802B7C43B11A4B7A
:102950001A491B4840F21B1200F0CAFE00F0D8FED4
:1029600023686A68DE682189EB892046B047A88918
:102970001DE0236820469B68984705462046FFF7E0
:1029800031FF3968814604F11E00FFF771FE7B6854
:1029900000934A460346414628460BF063FF40F247
:1029A0002512ADF80E0005493046FFF723FC05B0AF
:1029B000BDE8F0830C0C0600CC0A0600F009060006
:1029C000129405002DE9F04F9A4690F82230FF2B23
:1029D00097B004468946174640F0998003689B6883
:1029E0009847836A054643B9524B5349534840F2CE
:1029F000DF3200F07DFE00F08BFEAE6A06F11008BB
:102A00000021404613F0E8FAC0B2FF2884F8220003
:102A10007AD07B6800935D1E29463846FEF770FE2B
:102A20000D218346FFF7FCFA5846FFF721FB019082
:102A300040B9434B404941484FF4C97200F058FE39
:102A400000F066FE3F4B0795072D069307D93E4BD6
:102A500039493A48912200F04BFE00F059FE012519
:102A6000009BAB4205F1FF3B16D0079B9B4507D36C
:102A7000364B314931487A2200F03AFE00F048FEE8
:102A800059463846FEF73CFE03C806AB03EBC503C8
:102A900083E803000135E3E7B36994F822509B888B
:102AA000376A5D437E19B9F8023073807B53DAF8D8
:102AB00004307360019BB360DAF8043004939DF82E
:102AC000143043F003034FF0000A03F0F3036AF3FA
:102AD00007138DF814302368CDF80CA09B682046AE
:102AE000984703AB06AA49460DF01AF9ADF80A005B
:102AF00020F00200C8280DD14FF4D6720E490DF116
:102B00000A00FFF777FB12E040F2FB100FE040F203
:102B1000A7100CE0A6F802A027F805A0404694F8FC
:102B2000221013F065F9FF2384F82230E4E717B090
:102B3000BDE8F08FFC0A0600F009060012940500BB
:102B4000130B06007C0906001B0B0600B093050062
:102B50002DE9F0478CB088461D468DF80F200446BD
:102B6000149FFFF73FFE0CAB43F8200D184600F012
:102B70009EFB9DF80F301906064607D503F07F032C
:102B80008DF80F30037843F0020303702B7A9A0715
:102B900010D49DF80F30042B08D0584B5849594891
:102BA00040F2511200F0A4FD00F0B2FD337843F082
:102BB000010333702B7A5B0706D5337843F00403A7
:102BC0003370012384F8213029689DF80FA004F1A7
:102BD0001E00FFF74DFD814605A8049E00F0ECF9AC
:102BE00001238DF814309DF8153007966AF303031E
:102BF00003F08F036FF3C7138DF8153004F118033A
:102C0000009304F108020DF10F036168ADF816900E
:102C10004046CDF81880FFF70FFE9DF80F300646AE
:102C200000283DD02A680AB121891180F2892189C2
:102C30008DF82030CDF82480ADF82210ADF8282092
:102C40000B960CAB13E90F0004F10C0585E80F009F
:102C5000182094F8207000F021FD2B4B03602B4BC3
:102C600043602B4BC360002305468460036101462B
:102C7000384600F072FB686140B9264B2049214874
:102C80004FF48A7200F034FD00F042FD68690021C3
:102C9000017200F08FFB05A8FFF736FDB48926E02E
:102CA000012B11D1796879B101393846FEF728FD39
:102CB00003880E2B08D80D2B06D12B463A4605A9C2
:102CC0002046FFF77FFE11E0236820469B68984767
:102CD0002B463A4605A90DF023F80CAB4FF4BD7214
:102CE00023F8100D06491846FFF784FA044605A894
:102CF00000F066F920460CB0BDE8F087460B0600F0
:102D0000F009060012940500A00906008C090600CF
:102D1000AD250200670B0600036873B59B68164675
:102D200004460D4698472030FFF7AEFCA28B009278
:102D300094F82030324629460DF0E0F802B070BD1C
:102D400038B503689B680D46044698472030FFF766
:102D50009BFC2A46A18BBDE838400DF07BB90000F2
:102D60002DE9F04F9A4690F82230FF2B8FB00446A1
:102D70008B46914600F08B8003689B689847836A76
:102D8000054643B94A4B4B494B4840F2DF3200F00D
:102D9000AFFC00F0BDFCD5F8288094F82250D8F89C
:102DA0001830D8F820709B885D437E197B5B002B20
:102DB0006DD073885B456AD1BAF1640F59D13F4B2E
:102DC0000A930D23B268ADF830309DF832300D9281
:102DD00043F003034FF0000A03F0C3036FF38713BC
:102DE00051464FF0010B04F11E008DF832308DF882
:102DF00033A0CDF82CB0FFF73BFC70800390204649
:102E0000FFF7F0FC029004A800F0D6F89DF811300E
:102E1000029906916BF3030303F08F036AF3C71360
:102E2000CDF814908DF81130736808939DF8243014
:102E3000039AADF8122043F0030303F0F3036AF39F
:102E400007138DF824302368CDF81CA09B688DF8FB
:102E500010B02046984707AB0AAA04A90CF060FFFF
:102E600020F002039BB2C82B82461AD004A800F0BF
:102E7000A7F8002337F805B073807B5308F11000E2
:102E800094F8221012F0B4FFFF2384F82230236854
:102E9000189A00929D694A46534659462046A847CB
:102EA00002E004A800F08CF80FB0BDE8F08F00BF7E
:102EB000FC0A0600F0090600129405008C92050039
:102EC0002DE9FF41044604A81E468B6840F8043DE6
:102ED00015460F46D1F8048000F0E9F903785A0747
:102EE00007D4236879880096DF6942462B4620463E
:102EF000B84733880E2B00D833B1236832465F6A57
:102F0000074B41462046B84794F821302BB9A5F12C
:102F1000C8035D425D4184F8215004B0BDE8F081F2
:102F2000E42900201E491F4B01221A700A7A02F080
:102F3000FE0242F00202002302F0F30263F30712E2
:102F40000A720B604B6018490A7A0B6042F0030268
:102F500002F0F30263F307120A72144A4B60117A0B
:102F6000136001F0F00163F307111172104953600F
:102F70000A7A0B6002F0FE0242F0060202F0F7024B
:102F800063F307120A724B600A490A7A0B6002F077
:102F9000F00242F00A0263F307124B600A727047B4
:102FA000A4290020D4290020BC290020B029002019
:102FB000C8290020D8290020002202707047000094
:102FC0001FB50378012B044619D10E4A127872B14D
:102FD00042880392427802F00F02029242890192E3
:102FE000C28800920021084A084600F035FB074BD2
:102FF000074908481F2200F07BFB00F089FB2046B0
:1030000004B010BD18260020770B0600933D060083
:10301000BC0B06001294050038B50B78012B044652
:103020000D4607D01F4B204920482C2200F060FBA2
:1030300000F06EFB2378012B07D11D4B1A491B486A
:103040002F2200F055FB00F063FB2B7823706A7889
:10305000637862F3030363706B886380AB68A3607B
:103060006B6863606B786278C3F3001363F30412D8
:1030700062706B78D2B2C3F3401363F3451262708F
:103080006B78D2B2C3F3801363F3861262706B78ED
:10309000D2B2DB0963F3C712002362702B702046A3
:1030A00038BD00BFC80B0600BC0B0600129405001B
:1030B000E30B0600024B034A1A6000225A60704775
:1030C000E4290020000C060038B50A460C46002111
:1030D000054634F0A5F808B1401B38BD204638BD80
:1030E00008460C22002134F01EB910B501460446F2
:1030F000FFF7F6FF204610BDF8B508460E46154608
:1031000034F0EEFA033507463446A31B9F423ED9FE
:1031100004212046FFF7D8FF431E032B28D8DFE801
:1031200003F01E100702E3782F3B9B00DBB200E0A8
:103130000023A1782F3943EA21130901DBB2C9B278
:1031400001E00023194694F801E0AEF12F0E41EAA8
:10315000AE014FEA8E1EC9B25FFA8EFE02E0002376
:1031600019469E4622782F3A42EA0E02D2B202E077
:10317000002319461A46032805F8032C05F8021CFB
:1031800005F8013C04F1040405F10305BDD8F8BDC0
:10319000F0B5151D01F10C0691F801E00F78887863
:1031A0004FEA8E0404F03C04030144EA971417F03C
:1031B0003F0703F0300318BF2F3743EA1E13800880
:1031C00005F8047C04B12F3405F8034C0BB12F3300
:1031D000DBB205F8023C08B12F30C0B203318E4299
:1031E00005F8010C05F10405D6D100231374F0BDD8
:1031F0000A460146FFF7CCBF70B50C4609B900205E
:1032000070BD084634F06CFA431E0F2BF7D8251812
:1032100014F8016B304633F0BAFE20B9304633F073
:10322000BFFE0028EBD0A542F2D1012070BD10B541
:10323000037886B0044643B1014601AAFFF7A8FF10
:1032400001A92046FFF7D8FF00E0184606B010BDE0
:1032500038B504460D46FFF7EAFF38B10C2229467F
:10326000204634F02DF8B0FA80F0400938BD38B56A
:1032700004460D460146FFF733FF29462046FFF777
:10328000BBFF30B1224629462046BDE83840FFF753
:1032900033BF38BD10B50446FFF7E9FF204610BD27
:1032A00010B50446FFF7E3FF204610BD7047704796
:1032B00070470B4610B5014618460BF0A9F80446B6
:1032C00030B100F072F96469231A5842584110BDB8
:1032D00010BD10B504460AF063FE01462046BDE865
:1032E0001040FFF7E6BF38B505460AF059FE0BF06F
:1032F000FDFA0F28044601D1002038BD0AF050FE27
:1033000021460BF085F80028F6D029460C300FF046
:103310009BF9012038BD10B504460AF041FE214654
:103320000BF076F840B1036980699B7801219940E0
:10333000BDE8104000F0CAB810BD38B505460C46CF
:103340000AF02EFE29460BF063F828B121460C3016
:10335000BDE838400FF06CBA38BD38B505460C46AC
:103360000AF01EFE29460BF06DF821460C30BDE830
:1033700038400FF065B803689868431A58425841BE
:1033800070470000036810B504463BB9064B074977
:1033900007481D2200F0ACF900F0BAF92146206878
:1033A000BDE810400FF0BEB8180C0600330C060044
:1033B0001294050038B5036804460D463BB9074B27
:1033C00007490848232200F093F900F0A1F92A46A2
:1033D00021462068BDE838400FF06AB8180C060096
:1033E000330C06001294050030B5082380221142E8
:1033F000044614BF0125002545EA4000002CBFBF4C
:1034000080F0986080F48E3080F4DB7080F00100F2
:10341000013B4FEA6202EAD130BD38B50446451897
:103420000020A54204D014F8011BFFF7DDFFF8E7E8
:1034300038BD000030B50C4D0A44914212D011F84D
:10344000013B83EA000404F00F0455F8244084EAA9
:10345000101080EA131303F00F0355F8233083EAAA
:103460001010EAE730BD00BF3C0C060010B5002389
:1034700004460322194602F0BDF9204610BD7047EC
:1034800037B505460C4600F090F8854207D00C4B46
:103490000C490D48182200F02BF900F039F902AA66
:1034A0000020A4024FF47A7342F8040DB4FBF3F346
:1034B0004FF0FF3102F044F900B1019803B030BD84
:1034C0007C0C0600DB0C0600129405000023012290
:1034D00002F090B91FB504AA002342F8043D0092FF
:1034E000012202F0EBF90849039A0B6813430B60C1
:1034F0003AB1064B4FF080521A60BFF34F8FBFF3C3
:103500006F8F05B05DF804FBEC29002004ED00E0AE
:103510002DE9F041064686B00C200F461546984628
:1035200000F0BCF80C9B0F4983606A1C05AB0025BA
:1035300080E84001AE4218BF31468DE80C000446D9
:103540000346039502953A46074801F05BFB0128C4
:1035500003D0204600F0A4F80595059806B0BDE814
:10356000F08100BF4F760600C135020038B5044631
:1035700000F06EF80021204602F03CF8C5B2012DA3
:1035800004D102220021204602F028F800F062F85F
:10359000012D09D1012001F0F5FD0021204602F0A6
:1035A00029F8C0B20228F4E738BD08B502F036F8B1
:1035B000012803D0BDE8084002F02AB8002008BD69
:1035C00070B5044661C800F0B5F8204600F068F810
:1035D00000210846012202F001F83046A84700F019
:1035E00037F800210322084601F0F8FF00F032F816
:1035F000FFF7DBFFBDE8704001F0F6BB10B5FFF749
:10360000D4FF01220446002101F0E8FF204610BD4E
:1036100001F086BC002108B5084601F0EBFFC0B2FE
:10362000831E5842584108BD80024FF47A73B0FBA4
:10363000F3F001F0A7BD0000044B4FF080521A6078
:10364000BFF34F8FBFF36F8F704700BF04ED00E0F3
:1036500002F028BE02F040BE0CB430B50C4B0D4A4F
:1036600053F8213052F820200B4987B00AAC02A849
:1036700054F8045B33F086FF234601462A4602A82D
:10368000019400F023F807B0BDE8304002B0704765
:10369000380D0600F40C0600080D060002F072BF9B
:1036A00003F006B802460249042000F0B3BC00BF94
:1036B000480D0600034B08B118607047024A1A60B3
:1036C000704700BF2C260020A536020010B55021FF
:1036D000054834F06BFB054B1B681BB10248BDE885
:1036E0001040184710BD00BFF02900202C260020F4
:1036F0000FB407B504AB002153F8042B019308461F
:10370000FFF7E4FF03B05DF804EB04B0704700007E
:1037100000BEBFF34F8F0549054BCA6802F4E06253
:103720001343CB60BFF34F8F00BFFDE700ED00E018
:103730000400FA057047000010B5054C236813B962
:1037400000F03CFA2060206800F082FA012010BDF1
:103750002CE6002010B500208EB000F0F8F905A985
:10376000019001A800F08CFF07990A2291FBF2F367
:1037700003F130008DF8080002FB131306983A217C
:1037800030338DF809308DF80A1090FBF2F38DF884
:103790000D1003F1300405998DF80B4002FB130363
:1037A00030338DF80C3091FBF2F303F1300002FB63
:1037B000131330338DF80F3020238DF80E008DF861
:1037C000103002A800238DF8113000F0CDF90EB0B2
:1037D00010BD00000EB477B50646FFF7ADFF70B31D
:1037E000194D079A08AB4FF480712846019334F0C5
:1037F000DDFA002819DBFF284FF000041248C4BF8F
:1038000085F8FF40114C03F0A3F880B1FFF7A2FF49
:103810000D4800F0A9F916B10D4800F0A5F90D4BBF
:103820002BB1094820F044FE01E00B4C00E014B13C
:10383000204600F099F9094B186800F045FA03B0EA
:10384000BDE8704003B07047402A0020540D0600C8
:103850004D760600B14404007A0D06002CE60020E7
:10386000D0B5EFF305833BB9EFF3108472B6E4B241
:10387000B4FA84F4640900E0002400F083FE0C4BE9
:103880001A6890420B4A07D2D2E9006716F1807697
:1038900047F10007C2E90067186004B162B6D2E9D7
:1038A0000023161843F1000730463946D0BD00BF4B
:1038B000482B0020582B002037B5FFF7D1FF4FF4DD
:1038C0007A73A0FB034503FB0155164BD3E90001B6
:1038D000A20A42EA855280184FEA95235941124ABA
:1038E0004FF4B0738B4208BF824218D20F4BD3E91A
:1038F000004514F5FA7445F100058D4208BF844275
:103900000DD2C3E90001CDE90001002214461DF8E3
:1039100004500134082C82EA0502F8D11A7203B06F
:1039200030BD00BF402B0020009004AF80FF00207E
:103930002DE9F041DFF83C80D8E90067FFF790FF00
:103940004FF47A73A0FB034503FB0155A20A42EA38
:103950008552B21A4FEA9523054967EB0303C1E983
:10396000002300220023C8E90023BDE8F08100BF46
:10397000402B0020502B00200C4BD3E90023134395
:1039800010B501D0FFF7D4FFFFF796FF00234FF4E7
:103990007A7233F075F8064B1B68014623B1054A6D
:1039A000BDE810401068184710BD00BF502B002024
:1039B000682B0020642B0020024B1860024B19601A
:1039C000704700BF682B0020642B0020000000001F
:1039D00030B5394B394C002587B01D60384B00217C
:1039E0000020C3E9000100F033FD01223549364BC8
:1039F00000954FF47A7000F0BFF8344B186000F077
:103A0000CAF84FF47A720023D4E9000133F038F891
:103A100002460B4601202E49FFF7DCFED4E90023C5
:103A2000CDE902232A462B4602A9595C0133082B13
:103A300082EA0102F8D1237A26490120FFF7CAFE63
:103A4000D4E9002352EA03011ED0CDE90423002368
:103A50001A4604A9515C0132082A83EA0103F8D10D
:103A6000227A9A4210D11C490120FFF7B3FE134B72
:103A7000D3E9000140F6340212184FF000034B4125
:103A80001649C1E900230FE015490120FFF7A2FE06
:103A900000230022C4E9002305A1D1E900017B2312
:103AA00023720E4BC3E9000107B030BDAFF30080B5
:103AB00000B0CAA24A010000482B002080FF00206D
:103AC000582B0020A10D060079390200602B002040
:103AD000A60D0600C20D0600D60D0600402B0020E4
:103AE000EF0D060038B5054638B9FFF7E5FE4FF48F
:103AF0007A72002332F0C4FF38BDFFF7DDFE4FF4C9
:103B00007A720023044632F0BBFFC0EB401300EB97
:103B10008303A4EBC3042C8038BD0000044BC3E92D
:103B20000001D3E90023134301D0FFF701BF704721
:103B3000502B002010B5FFF793FE4FF47A74A0FBD2
:103B4000042304FB0133900A40EA835010BD10B5F2
:103B50000446FFF7B1FE4FF47A72002332F090FF73
:103B600004B1206010BD000002460249042000F0AC
:103B700051BA00BF166D060010B40C4601990193AE
:103B800080020B464FF47A71B0FBF1F120465DF8EC
:103B9000044B00F009BE13B5044601F0BBF94FF029
:103BA000FF330093024600230121204600F020FE4F
:103BB000431E5842584102B010BD000010B501200C
:103BC00002F0A4F8044620B901221721024802F0AD
:103BD00001FF204610BD00BF1D0E060010B50420D9
:103BE00002F094F8044620B901222721024802F08D
:103BF000F1FE204610BD00BF1D0E060010B50446A4
:103C000020B901223121044802F0E4FE2046BDE83B
:103C1000104002F04BBA00BF1D0E060038B50C462E
:103C2000054620B901224B21084802F0D3FE0023AB
:103C30001946A40228464FF47A72B4FBF2F202F05D
:103C400037F9431E5842584138BD00BF1D0E0600CB
:103C500010B5044620B901224321054802F0BAFEFE
:103C600042F210712046FFF7D9FF0028F8D010BDAE
:103C70001D0E060038B50C46054620B90122592113
:103C8000074802F0A7FEA40228464FF47A71B4FB5D
:103C9000F1F102F0C3F9431E5842584138BD00BF4C
:103CA0001D0E060010B5044620B901225121054819
:103CB00002F090FE42F210712046FFF7DBFF002871
:103CC000F8D010BD1D0E060010B5044620B9012223
:103CD0005F21064802F07EFE00231A461946204660
:103CE00001F066FF431E5842584110BD1D0E0600EC
:103CF00010B5044620B901226521054802F06AFE8C
:103D0000204602F025F8431E5842584110BD00BF1E
:103D10001D0E06000649074A074B9B1A03DD043BAC
:103D2000C858D050FBDC00F04DF8FBF789FA0000D2
:103D3000A4CF06000826002060290020FEE7FEE749
:103D4000FEE7FEE7FEE7FEE7FEE7FEE7FEE7FEE74B
:103D5000094B1B78062B0CD1084B1B681A0708D19E
:103D6000074B186800F0F000A0F1300358425841AA
:103D700070470020704700BFE00F00F0E40F00F034
:103D8000E80F00F00C4B1B78062B10D10B4B1B6877
:103D90001A070CD10A4B186800F0F003302B08D03A
:103DA00000F0E000A0F14003584258417047002065
:103DB00070470120704700BFE00F00F0E40F00F0F3
:103DC000E80F00F008B5FFF7DDFF28B16C4B6D4A36
:103DD0001B68C3F304231360FFF7BAFF10B16A4BEB
:103DE0006A4A1A60FFF7CEFF28B1694B694A1B681F
:103DF000C3F342331360FFF7ABFF20B1664AD368C9
:103E000023F08073D360FFF7BDFF40B14FF08043D4
:103E10000022C3F80C21C3F81021C3F83825FFF79E
:103E200097FF10B15D4B03221A60FFF791FF40B17D
:103E30005B4B05221A6001229A6700229A603F229A
:103E40005A60584B1B78062B09D1574B1B681A0731
:103E500005D1564B1B6803F0F003502B47D0FFF7FA
:103E600091FF28B1524B534A1B6803F04F03136074
:103E7000514AD2F8883043F47003C2F88830BFF357
:103E80004F8FBFF36F8F4FF01023D3F80C32DB0747
:103E900029D54A4B0122C3F80425D3F80024002A6F
:103EA000FBD04FF010224549D2F80C3223F0010329
:103EB000C2F80C32D1F80024404B002AFAD000227C
:103EC000C3F80425D3F80024002AFBD0BFF34F8F9A
:103ED00039493B4BCA6802F4E0621343CB60BFF33D
:103EE0004F8F00BFFDE7374B374A1A6008BD4FF0D0
:103EF0008052364BD2F80414C3F82015D2F80814B7
:103F0000C3F82415D2F80C14C3F82815D2F81014ED
:103F1000C3F82C15D2F81414C3F83015D2F81814BD
:103F2000C3F83415D2F81C14C3F84015D2F8201485
:103F3000C3F84415D2F82414C3F84815D2F828144D
:103F4000C3F84C15D2F82C14C3F85015D2F830141D
:103F5000C3F85415D2F83414C3F86015D2F83814E5
:103F6000C3F86415D2F83C14C3F86815D2F84014AD
:103F7000C3F86C15D2F84424C3F870256FE700BF6E
:103F8000240300104035014074C007400DF0ADBA65
:103F9000440200103C050040F0ED00E0A0050040A8
:103FA00010560040E00F00F0E40F00F0E80F00F0C2
:103FB00058020010E40E004000ED00E000E0014077
:103FC0000400FA05302600200090D00300C0004015
:103FD00013B50093034B5C6913460A460021A047C2
:103FE00002B010BD6C2B002038B5012017F064F82A
:103FF000044638B917F076F8054617F077F8024B03
:104000005D619861204638BD6C2B002000231A4664
:10401000FFF7DEBF13B502AC012344F8042D22469E
:10402000FFF7D6FF02B010BD07B58DE80C000223E4
:104030006A46FFF7CDFF03B05DF804FB1FB502939E
:10404000069B0192039301AA0323FFF7C1FF05B06A
:104050005DF804FB2DE9FF471C460B4F002380460B
:10406000894616469A46CDF80CA0CDF808A00194D2
:1040700000964A4600214046BD69A847844203464F
:10408000F1D804B0BDE8F0876C2B0020094A5378C2
:1040900091780133DBB2994208BF0023117899422D
:1040A0001FBF03705378182000FB032014BF043097
:1040B00000207047902B002073B5054602A800240D
:1040C00000F8014D0E4600F071FA0DF10600FFF701
:1040D000DDFF30B106700A4B9DF8062045605A702E
:1040E00000E004249DF8070000F090FA24B9054B85
:1040F0004FF48012C3F80021204602B070BD00BF0B
:10410000902B002000E100E0204B21491A682F236A
:1041100000BF00BF00BF00BF00BF00BF00BF00BFA7
:104120008A422FD000BF00BF00BF00BF00BF00BF4A
:1041300000BF00BF00BF00BF00BF00BF00BF00BF87
:1041400000BF00BF00BF00BF00BF00BF00BF00BF77
:1041500000BF00BF00BF00BF00BF00BF00BF00BF67
:1041600000BF00BF00BF00BF00BF00BF00BF00BF57
:1041700000BF00BF00BF00BF00BF00BF00BF00BF47
:1041800000BF00BF013BC3D1704700BF30260020F5
:104190000024F4000C4B0D484FF4003210B5C3F866
:1041A000802001244FF48033C0F84833C0F808332E
:1041B0004460FFF7A9FF064B846000201860FFF7FA
:1041C000A3FF044B187010BD00E100E00010014097
:1041D000882B00209F2C00202DE9F74F9248934A0E
:1041E00003781278924C9A421FD0924A0133DBB284
:1041F0001168022B08BF002321F07F41037011607A
:104200002368002215465BB1186848B9DA68D86996
:104210001AB1DD6159609A601D4603460122F2E73A
:1042200002B123604FF0010901E00025A946824F49
:10423000236800934FF0000ABB4655B12846ED694C
:104240002DE0D4F8008046464146002E65D100237B
:1042500003743B78797899426DD0591CB878C9B20B
:10426000884239704FF0180101FB03B108BF3D705F
:104270000B798868022BE4D0032B4AD0012BE8D1BC
:10428000067C002EE5D1CB6843600B6983604B69E7
:10429000C3608B698361694B1B7803B146606549D4
:1042A00043680968664A5E1A26F07F46964282682D
:1042B00001D8164405E0C91A21F07F43934202D287
:1042C000D61A066001E00023036000234360836088
:1042D000C3612368564A0121017433B101681E6825
:1042E000B14204D8711A1960C3611060A5E79E46F7
:1042F0001E68B14205D9891BDE699E462EB1334640
:10430000F6E7761A1E601E4673460160C661D861E4
:1043100093E700212368084604E0B04263D03146A9
:10432000F66992E71BB118740121DB69FAE70029ED
:104330008FD023608DE7BAF1000F06D12368009A71
:104340009A4202D1B9F1000F47D02368002B42D026
:10435000D3F800903B4C374BD4F8046518683A4FBB
:10436000351A3B7825F07F4503359BB94FF48032F1
:10437000C4F84423C4F80423344A4FF400314FF006
:104380000108C2F880111160C4F80080FFF7BCFE7C
:1043900087F80080A9452CBF00EB0903431923F0DF
:1043A0007F40C4F84005D4F80435264A9B1B23F00F
:1043B0007F43801B033320F07F4083420DD9D2F826
:1043C0000435C2F84035FFF79FFE204B4FF4003212
:1043D000C3F8002101E0FFF7DDFE184B00221A7040
:1043E00003B0BDE8F08F884210D1D8F81C302360AC
:1043F00063B90191DFF83CC0124901228A60CCF810
:1044000000300E4B1A70FFF77FFE01993368F66992
:10441000CE6116B13268134433602368984518BFE3
:104420004FF0010A13E700BF9D2C00209C2C0020B8
:104430008C2B0020882B0020902B00209E2C00200D
:10444000FEFF7F00001001409F2C002000E100E0F3
:1044500008B5FFF79FFE114B00200B2218709A70D1
:1044600058700F4B18600F4B18700F4B18700F4B94
:104470004FF48012E021C3F8802183F814131A60EE
:1044800002F18042A2F56F22C2F8080583F81113E9
:10449000074BD2F804251A6008BD00BF902B0020FE
:1044A0008C2B00209D2C00209C2C002000E100E0A3
:1044B000882B0020074B9B784BB132B128B10368A1
:1044C000187C20B959745A6170470720704708203A
:1044D000704700BF902B00202DE9F7431E4FBB789B
:1044E00005460E4690469BB390B304292ED94369E6
:1044F00073B3437C02A80024012B00F8014D0CBFCC
:104500008946A14600F052F80DF10600FFF7BEFD06
:1045100078B101230370114B4560D3F804358360F3
:104520009DF80630C660C0F81090C0F814807B700B
:1045300000E004249DF8070000F068F824B9084B57
:104540004FF48012C3F80021204602E0072000E06B
:10455000082003B0BDE8F083902B0020001001403C
:1045600000E100E0064A92783AB130B1426922B1E6
:10457000002202740221FFF79FBD0820704700BF90
:10458000902B0020014BD3F8040570470010014028
:10459000EFF30583C3F3080333B9EFF3148000F09E
:1045A000010080F0010070470120704770B504469B
:1045B000FFF7EEFF012803D01049432018F06AF9F5
:1045C000EFF3108572B60E4A9068012390B993609C
:1045D0000C4B0D49D3F88060314011600A49C3F893
:1045E0008010D3F8841051604FF0FF32C3F884205C
:1045F000207000E0237005B962B670BD2D0E060074
:10460000A02C002000E100E0FC06FFBD10B5044630
:10461000FFF7BEFF012803D00949512018F03AF9ED
:10462000084B9A685AB154B9EFF3108272B6064932
:1046300018680860586848609C6002B962B610BD8E
:104640002D0E0600A02C002000E100E0094B1EF01A
:10465000040F1CBFEFF309801847EFF308800649E9
:10466000064A884201D8904202D88D464FF0000099
:10467000184700BF6187030080FF002080FB0020F7
:1046800038B50D46044620B901221B21074802F027
:10469000A1F925B901221C21044802F09BF9294601
:1046A0002046BDE8384032F095BC00BF410E060000
:1046B000F8B5134C01F0F6FD2568E5B9114F124E1F
:1046C000384601F024FD304601F021FD0F4B1F60FC
:1046D0000F4B2A4610210A201E6001F01DFA2060AF
:1046E00020B940F21A310B4816F015F9206810B1C4
:1046F000094901F0B5FCBDE8F84001F0EDBD00BF8F
:10470000DC2C0020B02C0020C42C0020AC2C00207D
:10471000E02C00204A0E06008E0E0600914208B5DD
:104720004160006106D8D21A83699A420DD2011DF8
:10473000074B05E09A4201D2994206D2054B011D72
:10474000186801F0FEFC002008BD012008BD00BF74
:10475000E02C0020AC2C00201FB5FFF7A9FF0D4B6B
:104760001B6833B90C484FF4877116F0D4F8002059
:104770000DE00A4A0192002304220092039302935F
:104780005A220749074800F03DFA0028EAD005B050
:104790005DF804FBDC2C00204A0E0600E42C00200F
:1047A000930E0600C94802002DE9F04180461746E5
:1047B0001E460D4689B1282001F0E4FE044690B162
:1047C000FFF776FF069BC4F80080A561E7612662CB
:1047D0006362201D01F0A6FC05E04FF49B710348C5
:1047E00016F099F82C462046BDE8F0814A0E0600E6
:1047F0002DE9FF410D4690461F46064620B940F27E
:104800004111104816F087F80F4C2068B0B1052D03
:104810008DE8200102960CDC00F000FF0023022846
:1048200008BF0A9A206818BF1A46694601F0C0F905
:1048300004E000233A46694601F0A8FA04B0BDE856
:10484000F08100BF4A0E0600DC2C00202DE9F34168
:104850001A4E374633681A683AB3DB68DC681D685D
:1048600004F10408404601F084FC636A204698473E
:10487000E369012BEED1A3692B449D4206D263600C
:1048800024614146386801F05CFCE3E700230093B3
:104890002A4619462046FFF7ABFF0028DAD14FF42D
:1048A0003F71074816F037F8D4E7064A0349106805
:1048B0000860136002B0BDE8F08100BFAC2C00209E
:1048C0004A0E0600E02C00202DE9F04786B0DFF804
:1048D000A4A1DAF800301D681DB1DB68D3F80080B0
:1048E00000E0A8465E4E00F00DFB00F013FB3368BD
:1048F00098428146374603D2FFF7A8FF012400E023
:104900000024C6F80090574E002C42D13DB3C1455B
:104910002CD300F0C3FBDAF80030DB68DD68281D1B
:1049200001F027FCEB69012B15D1A96943464A46E2
:1049300041442846FFF7F2FE01280CD1009423469B
:10494000424621462846FFF753FF20B940F2931113
:10495000454815F0E0FF6B6A2846984726E0434B30
:104960001B681A68B2FA82F2520900E02246C9EBCB
:104970000801306801F0ACFB00F090FBB0B93C4B93
:104980004FF080525A6040BFBFF34F8FBFF36F8F1D
:104990000CE000F083FB09E0029B002B03DA059991
:1049A0000498039B9847029B002B08DA00231A46C1
:1049B00002A9306801F07CFA0028EDD187E7049C59
:1049C000636913B1201D01F0D4FB00F0A3FA3B682A
:1049D0009842054601D2FFF739FF029A3D60092A45
:1049E000E4D80123934013F4047829D113F0C70FBE
:1049F00005D19B06DAD5204601F05AFED6E7A1691B
:104A0000039B2A4619442046FFF788FE0128CDD192
:104A1000636A20469847E369012BC7D1A2690399CD
:104A2000CDF800800A44434641462046FFF7E0FEA9
:104A30000028BBD14FF428710B4815F06CFFB5E787
:104A4000039BA36123B940F2B721074815F063FF28
:104A5000A1692B462A4629442046FFF75FFEA5E7B9
:104A6000D82C0020DC2C00204A0E0600E02C002070
:104A700000ED00E0AC2C0020054B1A6810B51C4678
:104A800022B940F26D11034815F045FF206810BDB2
:104A9000E42C00204A0E060010B5044620B94FF45D
:104AA0005371054815F037FF01F0FCFB246A01F053
:104AB00013FC204610BD00BF4A0E0600074B1B68C2
:104AC000D86A48B9064B1B68012B06D8054A064B25
