:020000021000EC
:10F0000080FF0020653902008D3902009D42020018
:10F010009139020093390200953902000000000086
:10F02000000000000000000000000000491504007E
:10F030009939020000000000691504009D390200A2
:10F04000599903009F39020035260500D1B5030008
:10F05000F5B503009F390200FDD70400ADD90400C7
:10F060009F3902009F3902009F3902009F39020038
:10F070009F3902009F3902009F3902009F39020028
:10F080009F390200B15F02009F3902009F390200E0
:10F09000293E02009F390200DD9B03009F390200D8
:10F0A0009F3902009F3902009F3902009F390200F8
:10F0B0009F3902009F39020000000000000000009C
:10F0C0009F3902009F3902009F39020019B60300E0
:10F0D0009F3902009F3902007D6E0300000000008E
:10F0E0000000000000000000000000000000000020
:10F0F0000000000000000000000000000000000010
:10F1000000000000000000000000000000000000FF
:10F1100000000000000000000000000000000000EF
:10F1200000000000000000000000000000000000DF
:10F1300000000000000000000000000000000000CF
:10F1400000000000000000000000000000000000BF
:10F1500000000000000000000000000000000000AF
:10F16000000000000000000000000000000000009F
:10F17000000000000000000000000000000000008F
:10F18000000000000000000000000000000000007F
:10F19000000000000000000000000000000000006F
:10F1A000000000000000000000000000000000005F
:10F1B000000000000000000000000000000000004F
:10F1C000000000000000000000000000000000003F
:10F1D000000000000000000000000000000000002F
:10F1E000000000000000000000000000000000001F
:10F1F000000000000000000000000000000000000F
:10F2000010B5054C237833B9044B13B10448AFF360
:10F2100000800123237010BD482900200000000059
:10F220006884060008B5034B1BB103490348AFF3DC
:10F23000008008BD000000004C2900206884060002
:10F24000154B002B08BF134B9D46A3F5803A0021B8
:10F250008B460F461348144A121A35F0BCFB0F4B6D
:10F26000002B00D098470E4B002B00D09847002071
:10F27000002104000D000D48002802D00C4835F094
:10F28000E4F835F0B1F92000290009F0DDFD35F092
:10F29000E9F800BF0000080080FF00200000000027
:10F2A000000000004829002080FA00204B4405009F
:10F2B00000000000044B054A1A60054B054A1A601D
:10F2C000054B064A1A607047202600201069050089
:10F2D000242600201A6905001C2600202369050049
:10F2E00008B5FFF7E7FFF02007F064F9054A064983
:10F2F0001060064A0968116018B1BDE8084000F0C6
:10F3000075BE08BD64290020F46A05006C29002040
:10F31000012070470120704701207047012070478D
:10F32000012070470120704700207047002070477F
:10F330000020704701207047054A064900231360EA
:10F3400053600B604B60044B044A1A60704700BF67
:10F35000642900206C290020CCDE0020E1F20100AD
:10F36000704710B5044634F0A8F9204610BD0000DF
:10F3700010B5064A04460421243002F085FFC8284F
:10F3800006BF012084F83000002010BD646905002C
:10F39000A0F12C00FFF7ECBF10B5054A044604218C
:10F3A000243002F08FFF002384F8303010BD00BFFE
:10F3B00064690500A0F12C00FFF7EEBF002310B533
:10F3C000C0F8EC300223044680F83030012241F2CC
:10F3D0007071243002F0D0FFA4F8E800012010BDC5
:10F3E000A0F12C00FFF7EABF30B50D4607490446EF
:10F3F00003C985B002AB83E8030000932946044BA0
:10F40000204602F0E7FF05B030BD00BF8029002094
:10F41000882900200D4B10B503F168020360A43366
:10F4200004464262C362D0F8DC0008B134F045F90A
:10F4300004F12C0002F07EF904F1240002F0C4FE75
:10F44000204603F073F8204610BD00BF2C6C050069
:10F45000A0F12400FFF7DEBFA0F12C00FFF7DABF18
:10F4600010B50446FFF7D6FF204634F026F92046B3
:10F4700010BDA0F12C00FFF7F3BFA0F12400FFF7AF
:10F48000EFBF20F00203C82B04D0A0F16403584260
:10F4900058417047012070472DE9F04390F84C70B7
:10F4A00091B004468946002F59D12E49012003F01E
:10F4B000B9FF636D00932C4B2C4A1B68142106A8DE
:10F4C00035F084FB2A4B04F1480206A9204603F0DC
:10F4D00055F90546FFF7D5FF78B3264EA16C009687
:10F4E0000BAB04224FF003082046CDE90B978DF8B3
:10F4F000348003F057FAD4F8D83000931E4B1B4ADF
:10F500001B68054614210BA835F060FB184B04F16D
:10F5100044020BA9204603F031F92846FFF7B1FF5A
:10F5200078B90223CDE903008DF81430009603ABBF
:10F530000522A16C204603F035FA284611B0BDE83B
:10F54000F08303AB00960422616C8DF81480204692
:10F55000CDE9039703F026FA012384F84C30C8253F
:10F56000EBE700BF616A050014260020876A0500EA
:10F57000BC290020CC2900201026002038B50446E4
:10F580000D460120094903F04DFF04F140012046DA
:10F59000FFF782FF0246C82A04F12400294618BF5B
:10F5A00040F2F712BDE83840FFF71EBFCC6A0500F5
:10F5B00038B50D4604461349012003F033FF6B684C
:10F5C000114A43F00F03934210D002F500329342E8
:10F5D00015D00E49012003F025FF294604F124002F
:10F5E0004FF4C872BDE83840FFF7FEBE002384F830
:10F5F000C13029462046BDE83840FFF7BFBF012390
:10F60000F5E700BF6C6905001F0000649069050004
:10F61000A0F12400FFF7CCBF70B590F84C3086B055
:10F6200004469BB31B491C4D012003F0FBFE002345
:10F63000CDE9033302238DF81430009503AB052286
:10F64000616C204603F0AEF90646FFF71AFF20B9B9
:10F6500032461249012003F0E5FE0023CDE90333D1
:10F6600002238DF81430009503AB0522A16C2046CF
:10F6700003F098F93046FFF704FF20B932460749F6
:10F68000012003F0CFFE002384F84C30C82006B0E0
:10F6900070BD00BFAB690500CC290020CF69050013
:10F6A00010B5B0F8E8100446243002F086FE0323BB
:10F6B00084F830304FF6FF73A4F8E8302046BDE8F8
:10F6C0001040FFF7A9BFA0F12C00FFF7E9BF000031
:10F6D00010B505490446012003F0A4FE2046BDE80C
:10F6E0001040FFF799BF00BF246B0500A0F1240074
:10F6F000FFF7EEBF10B505490446012003F092FE66
:10F700002046BDE81040FFF787BF00BFF86A05003C
:10F71000A0F12400FFF7EEBF70B50C460646134972
:10F72000012003F07FFE6368114A43F00F03934208
:10F7300006F1240503D002F50032934209D1284690
:10F740002146C822FFF750FE3046BDE87040FFF763
:10F7500063BF0849012003F065FE214628464FF4A7
:10F76000C872BDE87040FFF73FBE00BF8C6A05005D
:10F770001F000064B26A0500A0F12400FFF7CCBFAF
:10F780002DE9F0411546DFF8F8804A680446434603
:10F790000E4642F00F023849012003F043FE94F870
:10F7A0003030022B04F1240707D040F2F712314623
:10F7B0003846BDE8F041FFF717BE736843F00F030A
:10F7C000434505D02D4A93422FD040F2F512EEE783
:10F7D00094F84C80B8F1000F02D02046FFF71CFFD0
:10F7E000083546F20141284602F064FC284602F042
:10F7F00095FC0368D0ED017A04F16C02616D8B42D7
:10F8000005D052F8041B8B42F8D16365F6E767EE2A
:10F81000A77AC4ED147AB8F1000F04D004F14001C6
:10F820002046FFF739FEC822C1E794F84C80B8F1B2
:10F83000000F02D02046FFF7EFFE083546F20441E4
:10F84000284602F037FC284602F068FC0368D0ED39
:10F85000017A04F16C02D4F8D8108B4206D052F829
:10F86000041B8B42F7D1C4F8D830F4E767EEA77ACF
:10F87000C4ED347ACFE700BF256A05001F0003649A
:10F880001F000164A0F12400FFF77ABF10B5012327
:10F89000044680F8583080F8C03000224FF47A7166
:10F8A000243002F069FDA4F8EA0010BD38B50388E1
:10F8B0008B4205460C4604D801225E21034806F01F
:10F8C000B5FE6B680C2000FB043038BDD76B05001B
:10F8D0002DE9F04F2DED028B1546A9B043F60241FC
:10F8E0000446104602F0E6FB284602F017FC838827
:10F8F0000746002B00F0238194F8586000F1040AB9
:10F9000096B30025F0EE088AB5EE008ABB889D42CA
:10F9100080F0158129465046FFF7C8FF94ED176A1D
:10F92000D0ED006A90ED017AD0ED027A26EE286AD9
:10F9300066EE886A27EE087AE6EE086A013567EE19
:10F94000887AC4ED176AD4ED186A66EEA86AA6EE46
:10F95000887A84ED187A94ED197A27EE287AE7EE02
:10F96000087AC4ED197AD1E7DFF8E8B1BB889E4286
:10F9700080F0E58031465046FFF798FFD0ED018AD0
:10F9800090ED028A0546606D33F0F8FF6FA3D3E96E
:10F99000002334F06DF895ED007AD4ED177A77EE08
:10F9A000677A8046894617EE900A34F009F8424695
:10F9B0004B4634F087F934F01DFBD4ED187A1390E0
:10F9C00078EEE77A17EE900A33F0FAFF42464B469C
:10F9D00034F078F934F00EFBD4ED197A149078EE07
:10F9E000677A17EE900A33F0EBFF42464B4634F04D
:10F9F00069F934F0FFFA159013A800F029FDD4ED51
:10FA0000147A20EE007AB4EEE77AF1EE10FA40F3C1
:10FA10008E8001230DF17008F1EE401A84F8593000
:10FA20009DED130ADDED140A9DED151A404604F113
:10FA3000A80500F04AFE0FCD0DF1100CACE80F0048
:10FA400095E803008CE803001EAB0FCB8DE80F0098
:10FA50000AA898E80C0000F01EFD0DF1280CBCE887
:10FA60000F0004F1A80EAEE80F009CE8030085E843
:10FA7000030094F8C190B9F1000F56D1D4F8883042
:10FA8000626D042192FBF1F2934254DB04F1B80859
:10FA900098E803008DE8030004F1A80595E80F003D
:10FAA00094ED230AD4ED240A94ED251A00F03BFED0
:10FAB00098E803008DE803008DED160A95E80F0025
:10FAC00094ED260ACDED170A8DED181AD4ED270A0C
:10FAD00094ED281A00F027FE16A8CDED1A0A8DED38
:10FAE0001B1A8DED190A00F0B3FC19A800F0B0FC48
:10FAF000169B2293179B2393189B2493199B259362
:10FB00001A9B26931B9B27934FF45933119322ABD7
:10FB100012930D4B0093C4F8889011AB5A464FF4E2
:10FB2000B23104F1240002F09FFC01361EE70023ED
:10FB300084F859309DE70133C4F88830F5E729B0DF
:10FB4000BDEC028BBDE8F08FCC290020B694631A7F
:10FB5000DCA54C408829002010B586B00124039410
:10FB6000054C0294054C0494089C059402AC009446
:10FB700002F018FF06B010BD3C6905000500030047
:10FB8000914270B506460D4614460DD04268944227
:10FB900006D0A24204D0121B2146284634F002FFB0
:10FBA00073681C1B2C447460284670BD38B54FF038
:10FBB0007E5200231449C0F88C200446C0F8A020CF
:10FBC000C0F89030C0F89430C0F89830C0F89C303D
:10FBD0000020C4E92A0120460025C4F8B030C4F84A
:10FBE000B430C4F8B830C4F8EC50C4F8C430C4F829
:10FBF000C830C4F8CC30D4F8E02050F8DC1FFFF750
:10FC0000BFFF84F85A5038BD0000F03FF0B590F8BF
:10FC10003030022B8BB004460E4600F1240505D08F
:10FC200040F2F7122846FFF7DFFB41E04B68384A05
:10FC300043F00F03934206D002F50032934239D0CD
:10FC400040F2F512EEE73349012003F0EBFB00230D
:10FC5000C4F8EC302046FFF7A9FF94F84C3013B1FC
:10FC60002046FFF713FE0AAF012227F8182D2A4B72
:10FC700000972A492046FFF76FFFD4F88C30049391
:10FC8000D4F890300593D4F894300693E36D07933D
:10FC9000236E0893636E09934FF45933CDE902370D
:10FCA00002AB00931E4BC8223146284602F092FB5D
:10FCB0000BB0F0BD1B49012003F0B4FB94F84C30AD
:10FCC0001BB940F2F7123146ACE7D4F8C4300493C4
:10FCD000D4F8C83005932046D4F8CC300693FFF70B
:10FCE00065FF94F84C3013B12046FFF7CFFD0AAF03
:10FCF000012227F8202D084B009708492046FFF7DE
:10FD00002BFF094B029304AB03930097CAE700BF94
:10FD10001F000064F96905008C2900200F000042D3
:10FD2000882900200D6A050002640300A0F1240068
:10FD3000FFF76CBF10B586B001240394064C029403
:10FD40004FF003140494089C059402AC009402F054
:10FD500029FE06B010BD00BF3C6905000000000090
:10FD60002DE9F043B0F8E8302DED048B8B4287B0DD
:10FD7000044642D190F84C308BBBD0F8EC3003F500
:10FD8000BB531033C4F8EC30D4F8EC205C4B9A42EF
:10FD90000DF10C0825D906AE012506F80D5D0027EA
:10FDA0004FF0030943462A46564900962046CDE9BE
:10FDB00003778DF81490FFF7BDFF009643462A465F
:10FDC00051498DF814902046CDE903778DF80B50FA
:10FDD000FFF7B0FF07B0BDEC048BBDE8F083002354
:10FDE000D0E70223ADF80C30CDF80080474B4849EE
:10FDF00001222046FFF7B0FEECE7B0F8EA308B4274
:10FE0000E8D190ED269A90ED278AD0ED288A983097
:10FE100000F01EFB69EE099A0025B0EE690AA8EE13
:10FE2000080A84F8585084F8C050A8EEA80A32F0A6
:10FE3000DFFD06AB84ED350A23F80C5D012200934B
:10FE40003349324B2046FFF787FE19EE900A33F014
:10FE5000B7FD29A3D3E9002334F09AF804F18C0507
:10FE60004FF07E530022E0B3B1EE487AC7EE097A34
:10FE7000C4F89030C4F89420C4ED237ADFED259ABD
:10FE8000284600F0E5FA29EE299AFDEEC97A17EE28
:10FE9000900A34F0D6FA28EE298A0546FDEEC87A93
:10FEA00017EE900A34F0CDFA68EEA98A0646FDEE08
:10FEB000E87A17EE900A34F0C4FAD4ED357A67EE9A
:10FEC000A99A0746FDEEE97A17EE900A34F0B9FADE
:10FED0003346CDE900702A460F49012003F0A2FA0B
:10FEE00078E7B1EE687AC7EE087AC4F88C20C4F8D7
:10FEF0009430C4ED247AC1E7FCA9F1D24D62503FA1
:10FF00001FBF02001F00030B1F0000098C290020E7
:10FF10000F0000420000C8425B6B0500A0F1240006
:10FF2000FFF71EBF2DE9F843D0E90054641B91464A
:10FF3000A210234C234B544314BF22460122A41881
:10FF400007468846A1EB050532D29C4230D884BBD7
:10FF50002646731918BF99E80700D7F8009018BF14
:10FF600083E80700C145A8EB090504D02A464946A5
:10FF7000304634F017FD7A6805F10C0342453344EE
:10FF8000A2EB080505D018462A46414634F0FFFC8E
:10FF900003461D44B9F1000F02D0484633F08DFBF3
:10FFA0000C2303FB0464C7E90065BC60BDE8F8836B
:10FFB0001C460C20604333F06FFB0646C9E700BFC8
:10FFC000ABAAAAAA555555150A46D0E901318B426C
:10FFD00010B5044606D013B107CA83E807000C33F6
:10FFE000636010BD1946FFF79DFFFAE7F0B50122E7
:10FFF000044685B0002102F039FB0122002104F102
:020000022000DC
:10000000240002F007F901223549364F04F12C0093
:1000100001F080FB344B03F10802226003F170020F
:10002000AC33E362314B23650123626284F85A30BA
:100030000FCF00254FF0000C4FF0D00E04F16806F2
:1000400084F84CC0C4F854E084F858C084F859C00F
:10005000E565256665660FC697E80F0086E80F0020
:100060004FF07E53C4F888C0C4F88C30C4F8905068
:10007000C4F89450C4F89850C4F8A0301C4B84F8CD
:10008000C0C00022C4E92A231A4BC4F8D0301A4B4E
:1000900084F8C1C0C4F8D430C4E936ECC4E938CC23
:1000A00001A904F1DC00C4F89C50C4F8B050C4F8B5
:1000B000B450C4F8B850C4F8C450C4F8C850C4F818
:1000C000CC50019502950395FFF77EFF4FF0FF336B
:1000D0002046C4F8E830FFF769FD204605B0F0BDC2
:1000E000CB6B050044690500246C0500BD378635DF
:1000F0000000F03F6F12833AC3F51C41000000007E
:100100002DE9F04F2DED048B154693B043F60231E7
:100110000446104601F0CEFF284601F0FFFF838819
:10012000064683B394F8C05000F1040A85B3002159
:100130005046FFF7BBFB94ED265A90ED006AD0EDD8
:10014000016A90ED027AF5EE007AF0EE085A25EE9B
:10015000255A26EE276A66EEA76AA5EE276A27EEDD
:10016000277A84ED266A94ED276A26EE256AE6EE64
:10017000276AC4ED276AD4ED286A66EEA56AA6EE62
:10018000A77A84ED287A13B0BDEC048BBDE8F08F1C
:100190009FED9D9BDFED9E8ADFF888B2B3889D427C
:1001A000F1D229465046FFF781FB8368059394F806
:1001B00059304268016803910492002B00F01A81C3
:1001C00094F85A3004F1DC074BB394F8C130E3B132
:1001D0005946012003F026F9D4F8DC308D491A681D
:1001E0005B68109311930123ADF824300FAB0A9391
:1001F000894B0C9309AB0D93884B0F920093884A5F
:100200000CAB04F1240002F02FF9D4E93712384680
:10021000FFF7B6FC002384F85A300135BEE704F13D
:10022000B80999E803008DE8030004F1A80898E8EC
:100230000F0094ED230AD4ED240A94ED251A00F062
:1002400072FA99E803008DE803008DED060A98E83C
:100250000F0094ED260ACDED070A8DED081AD4EDB6
:10026000270A94ED281A00F05EFADDED061A9DEDDE
:10027000072ADDED082A8DED090ACDED0A0A8DED7C
:100280000B1A00F00DFADDED091A8DED0C0ACDED1B
:100290000D0A8DED0E1A9DED0A2ADDED0B2ADDED1E
:1002A000040A9DED051A9DED030A00F0EEF994EDA8
:1002B000358AD4F8CC0030EE488A33F081FB28EE42
:1002C000087AD4ED347AB4EEE77AF1EE10FA80468B
:1002D000894640F38680D4ED367AF8EE677AC8EE28
:1002E000277A17EE900A33F06BFB02460B46404626
:1002F000494633F007FA33F07DFEDDED061AC4F807
:10030000CC009DED072ADDED082ADDED040A9DED08
:10031000051A9DED030A00F0B8F9D4F8C400B0EE58
:10032000408A33F04DFB28EE087AD4ED347AB4EEEF
:10033000E77AF1EE10FA8046894655DDD4ED367A3B
:10034000F8EE677AC8EE277A17EE900A33F038FB9A
:1003500002460B464046494633F0D4F933F04AFE94
:10036000DDED0C1AC4F8C4009DED0D2ADDED0E2A5A
:10037000DDED040A9DED051A9DED030A00F085F9F7
:10038000D4F8C800B0EE408A33F01AFB28EE087AA1
:10039000D4ED347AB4EEE77AF1EE10FA804689466D
:1003A00025DDD4ED367AF8EE677AC8EE277A17EEB7
:1003B000900A33F005FB02460B464046494633F0AF
:1003C000A1F933F017FED4F8C430C4F8C8000F9375
:1003D0001090D4F8CC3011930FA93846FFF7F4FDF4
:1003E0001BE753EC192B82E753EC192BB2E753ECC4
:1003F000192BE2E7C4ED338AC4ED318AC4ED328AA9
:100400000BE700BFAFF30080000000000000000019
:10041000000000000264010003640300CC290020F6
:10042000882900209C6B050030B4084D41F00F0472
:10043000AC4206D005F18075AC4205D130BCFFF767
:1004400047BA30BCFFF75CBE30BC70471F00023BB0
:1004500090ED010A90ED007AD0ED027A20EE000ACC
:1004600010B5A7EE070A0446A7EEA70A32F0C0FAB5
:10047000D4ED006A86EE807AD4ED016A84ED007ACC
:1004800086EE807AD4ED026A84ED017A86EE807A77
:1004900084ED027A10BD82B02DE9F0472DED068B78
:1004A0000EA981E80C00DDE91445DDE90E678246FE
:1004B0009DED10AADDED168A9DED119ADDED179ADE
:1004C0009DED128ADDED18AA22462B4630463946AC
:1004D00033F0CEFA6AEE287A804617EE900A894603
:1004E00033F06EFA02460B464046494633F008F9AF
:1004F00069EE297A804617EE900A894633F060FA51
:1005000002460B464046494633F0FAF868EE2A7A2E
:10051000804617EE900A894633F052FA02460B469F
:100520004046494633F0ECF8CAE9000118EE900A5B
:1005300033F046FA32463B4633F09AFA80461AEEDA
:10054000100A894633F03CFA22462B4633F090FAE3
:1005500002460B464046494633F0D4F869EE2A7A03
:10056000804617EE900A894633F02AFA02460B4677
:100570004046494633F0C6F868EE297A804617EEC1
:10058000900A894633F01CFA02460B46404649461B
:1005900033F0B6F833F02EFDCAF8080019EE900AD1
:1005A00033F00EFA32463B4633F062FA6AEE2A7AAC
:1005B000804617EE900A894633F002FA02460B464F
:1005C0004046494633F09CF8804619EE100A8946A9
:1005D00033F0F6F922462B4633F04AFA02460B4630
:1005E0004046494633F08EF868EE287A804617EE8A
:1005F000900A894633F0E4F902460B4640464946E4
:1006000033F080F833F0F6FCCAF80C001AEE900ACA
:1006100033F0D6F932463B4633F02AFA6AEE297AAD
:10062000064617EE900A0F4633F0CAF902460B460B
:100630003046394633F066F869EE287A064617EEFA
:10064000900A0F4633F0BCF902460B463046394655
:1006500033F056F8064618EE100A0F4633F0B0F99C
:1006600022462B4633F004FA02460B463046394602
:1006700033F048F833F0BEFCBDEC068BCAF810002E
:100680005046BDE8F04702B0704720EE822A86B09F
:10069000A0EE212AA1EE222AB0EE420A06B070474F
:1006A000F0EE407A21EEE07A62EEE76A22EE410A4D
:1006B000E1EE216A8EB0A7EE827AA0EEA20AF0EEF9
:1006C000660AB0EE471A0EB0704710B52DED048BD8
:1006D000B6EE008A21EE888A84B0F0EE409AB0EE41
:1006E000480A0446B0EE609AF0EE418A32F0E6F82D
:1006F00010EE100A33F064F9B0EE480AC4E90001C4
:1007000032F02CF920EE099A60EE288A69EE809A80
:100710002046C4ED029A84ED039AC4ED048A04B025
:10072000BDEC048B10BD84B070B5AEB032AC84E8C3
:100730000F00002200238DED0F0ACDED100A8DED84
:10074000111ACDE91C230FAA07CA1EAB83E80700C4
:100750001CAD0FCD04AC0FC495E8030084E8030082
:1007600034AB0FCB8DE80F0022AE32AB30460CCB52
:10077000FFF791FEDDE932239DED357ADDED367A26
:10078000DDED346ACDE92823B1EE477AF1EE677AE0
:10079000F1EE666ACDED2C7ACDED2A6A8DED2B7ADD
:1007A00028AD0FCD04AC0FC495E8030084E8030026
:1007B00024AB0FCB8DE80F0016A896E80C00FFF7CE
:1007C0006AFE18AA07CA13AB83E807009DED130A57
:1007D000DDED140A9DED151A2EB0BDE8704004B091
:1007E0007047F7B502AE0546186846F8040D0020BC
:1007F0000446A24204D8814282BFA75D2F54013033
:100800000134042CF5D102AE5F6846F8047DA242A3
:1008100006D8814281BF371917F8047C2F54013064
:100820000134082CF3D102AE9F6846F8047DA24241
:1008300006D8814281BF371917F8087C2F54013040
:1008400001340C2CF3D102AEDF6846F8047DA242DD
:1008500006D8814281BF371917F80C7C2F5401301C
:100860000134102CF3D102AE1F6946F8047DA24278
:1008700006D8814281BF371917F8107C2F540130F8
:100880000134142CF3D15E6902AB43F8046DA2422B
:1008900006D8814281BF1E1916F8146C2E540130FF
:1008A0000134182CF3D103B0F0BDF7B5002407468E
:1008B0000DF1040C20461D88AC424FEA840614D288
:1008C0005D6855F824500195002506EB050E72452C
:1008D00006D8814282BF15F80CE007F800E001302D
:1008E0000135042DF1D10134E5E702AC9B6844F8F1
:1008F000043D0023F518AA4204D8814282BF1D5D41
:100900003D5401300133042BF4D103B0F0BDF7B5F1
:1009100002AD0746186845F8040D00200446A242BF
:1009200004D8814282BF665D3E5401300134042CFC
:10093000F5D100259E88B54215D29E68944236F8BE
:10094000156003D388423CBF3E54013004F1010CD2
:10095000944505D3814282BFC6F307263E54013039
:1009600002340135E6E703B0F0BDF7B502AD064647
:10097000586845F8040D00200446A24204D881427C
:1009800082BF675D375401300134042CF5D11D68F6
:1009900002AB43F8045DA24206D8814281BF1D1913
:1009A00015F8045C355401300134082CF3D103B040
:1009B000F0BDF7B5D3E9006702AD65E90267002332
:1009C0001C46A24204D8994282BF665DC6540133D8
:1009D0000134082CF5D1184603B0F0BDF7B502ADCF
:1009E0000646586845F8040D00200446A24204D883
:1009F000814282BF675D375401300134042CF5D148
:100A00001D6802AB43F8045DA24206D8814281BF53
:100A10001D1915F8045C355401300134082CF3D14C
:100A200003B0F0BD8389808803440C205843043010
:100A300070478389808803440C20584304307047F2
:100A400083898288808A134418440C2358430430D5
:100A50007047B0F5E06F0FD006D840F20913984206
:100A60000AD04FF0FF307047B0F5785F04D0B0F592
:100A7000C84FF6D11820704708207047B0F5E06FD6
:100A800070B513D00A4C00220C2505FB02F31E5B47
:100A9000864206D123445E688E4202D19B68188844
:100AA00070BD01324B2AF0D10020F9E70420F7E7AE
:100AB000547A05003C207047562070473C20704710
:100AC00013B50446082101F0F5FA6168082268466A
:100AD00033F05DFFDDE9000102B010BDB0F5804FDD
:100AE00010B502460C4679D02AD843F60233984214
:100AF0001AD00ED840F20913984200F09580B0F554
:100B0000E06F00F08C800120494902F08BFC00204E
:100B10004CE043F60253984206D0B0F5785F75D0AA
:100B200043F602439842EED11146204601F0C2FA44
:100B3000204601F0F3FA83880C205843043035E056
:100B400044F20361884255D011D844F201339842EF
:100B500039D044F202639842D5D1204601F0AAFA76
:100B6000204601F0DBFABDE81040FFF75BBFB0F5AF
:100B7000C84F13D046F20243984218D044F204639F
:100B80009842C0D1204644F2026101F093FA204617
:100B900001F0C4FABDE81040FFF752BF01462046FD
:100BA00001F088FA204601F0B9FA182010BD46F28B
:100BB0000341204601F07EFA204601F0AFFA038897
:100BC0000C205843F2E70146204601F073FA204614
:100BD00001F0A4FA008801308000E7E740F2032129
:100BE000204601F067FA204601F098FA808802302A
:100BF0004000DBE7204644F2046101F05BFA204646
:100C000001F08CFABDE81040FFF713BF43F6016115
:100C1000204601F04FFA204601F080FA02E0084633
:100C2000FFF74EFF0820C1E740F20111F0E700BFD7
:100C3000586F050038B503888B4205460C4604D82A
:100C400001225E21034805F0F1FC6B680C2000FBDB
:100C5000043038BDD76B05002DE9F04F85B04FF05B
:100C600000080190894692461F46444646460DF1CB
:100C70000C0B3A88904546D241463846FFF7DAFFDA
:100C8000026803920022B1188A4506D8A14581BFA7
:100C9000019B12F80B10195501340132042AF2D1CC
:100CA00041463846FFF7C6FF42680392351D06F1FC
:100CB0000802ABEB0601AA4507D8A14505D948199A
:100CC000019B10F8040C185501340135AA42F2D1E9
:100CD00041463846FFF7AEFF8268039206F10C02E8
:100CE000ABEB0606AA4507D8A14505D97119019BAA
:100CF00011F8081C1955013401359542F2D108F15B
:100D000001082E46B5E7204605B0BDE8F08F2DE975
:100D1000F04F85B091469A461A6804AB002443F818
:100D2000042D074688462546A94504D8A04582BF1C
:100D3000EA5C3A5501340135042DF5D10AF104037A
:100D4000002600930DF10C0BBAF804309E4246D2F7
:100D500031460098FEF7AAFD036803930023EA18C2
:100D60004A4505D3A04582BF13F80B203A550134FC
:100D70000133042BF3D12A1D314600980192FEF76E
:100D800095FD019A43680393ABEB050105F1080358
:100D9000914506D8A04581BF881810F8040C385535
:100DA000013401329A42F3D1314600980193FEF7A3
:100DB0007DFD019B8268039205F10C02ABEB0505FA
:100DC000994506D8A04581BFE91811F8081C395586
:100DD000013401339A42F3D101361546B4E7204677
:100DE00005B0BDE8F08F2DE9F04F85B091469A46E9
:100DF0001A6804AB002443F8042D074688462546AC
:100E0000A94504D8A04582BFEA5C3A5501340135B2
:100E1000042DF5D10AF10403002600930DF10C0B0B
:100E2000BAF804309E4246D231460098FEF73EFDA5
:100E3000036803930023EA184A4505D3A04582BFFF
:100E400013F80B203A5501340133042BF3D12A1D3A
:100E5000314600980192FEF729FD019A43680393F9
:100E6000ABEB050105F10803914506D8A04581BF0C
:100E7000881810F8040C3855013401329A42F3D125
:100E8000314600980193FEF711FD019B82680392A1
:100E900005F10C02ABEB0505994506D8A04581BFCD
:100EA000E91811F8081C3955013401339A42F3D17D
:100EB00001361546B4E7204605B0BDE8F08F2DE9B0
:100EC000F04F87B0904601931A6806AB002443F8B0
:100ED000042D06460F462546A84504D8A74282BFE2
:100EE000EA5C325501340135042DF5D1019B043300
:100EF0004FF0000A02930DF1140B019B9A88924562
:100F000059D30C3305F108094FF0000B6D420293E1
:100F10000DF1140AA9F108030393019B9A899345E3
:100F200080F0918059460298FEF7C0FC039B02684E
:100F3000059200229918884505D8A74282BF12F869
:100F40000A10315501340132042AF3D1A9F1040306
:100F5000594602980393FEF7A9FC039B4268059249
:100F60000AEB0502984506D8A74281BFD11811F8AF
:100F7000041C3155013401334B45F3D159460298D5
:100F8000FEF794FC8368059309F104024B460AEBD3
:100F90000501984506D8A74281BFC81810F8080C6B
:100FA0003055013401339342F3D10BF1010B09F1B8
:100FB0000C090C3DAEE751460298FEF777FC02683B
:100FC00005920022A918884505D8A74282BF12F8C9
:100FD0000B10315501340132042AF3D12A1D514638
:100FE00002980392FEF762FC039A4168059105F1AD
:100FF0000809ABEB0501904506D8A74281BF8818C8
:1010000010F8040C3055013401329145F3D15146AA
:101010000298FEF74BFC8268059205F10C02ABEBDF
:101020000505C84507D8A74281BF05EB090111F89E
:10103000081C3155013409F101099145F1D10AF13A
:10104000010A4D4659E7204607B0BDE8F08F2DE96B
:10105000F04F87B0904601931A6806AB002443F81E
:10106000042D06460F462546A84504D8A74282BF50
:10107000EA5C325501340135042DF5D1019B04336E
:101080004FF0000A02930DF1140B019B9A889245D0
:1010900059D30C3305F108094FF0000B6D42029350
:1010A0000DF1140AA9F108030393019B9A89934552
:1010B00080F0918059460298FEF7F8FB039B026886
:1010C000059200229918884505D8A74282BF12F8D8
:1010D0000A10315501340132042AF3D1A9F1040375
:1010E000594602980393FEF7E1FB039B4268059281
:1010F0000AEB0502984506D8A74281BFD11811F81E
:10110000041C3155013401334B45F3D15946029843
:10111000FEF7CCFB8368059309F104024B460AEB0A
:101120000501984506D8A74281BFC81810F8080CD9
:101130003055013401339342F3D10BF1010B09F126
:101140000C090C3DAEE751460298FEF7AFFB026872
:1011500005920022A918884505D8A74282BF12F837
:101160000B10315501340132042AF3D12A1D5146A6
:1011700002980392FEF79AFB039A4168059105F1E4
:101180000809ABEB0501904506D8A74281BF881836
:1011900010F8040C3055013401329145F3D1514619
:1011A0000298FEF783FB8268059205F10C02ABEB17
:1011B0000505C84507D8A74281BF05EB090111F80D
:1011C000081C3155013409F101099145F1D10AF1A9
:1011D000010A4D4659E7204607B0BDE8F08F2DE9DA
:1011E000F04F87B0904601931A6806AB002443F88D
:1011F000042D06460F462546A84504D8A74282BFBF
:10120000EA5C325501340135042DF5D1019B4FF0D4
:10121000000903F1040A0DF1140B019B9B88994509
:101220006AD3019B0C3305F108094FF0000B6D42A6
:1012300002930DF1140A019A92899345A9F10803CA
:10124000C0F0A280019B1433C9F108054FF0000BD8
:1012500002930DF1140AA9F108030393019B9A8AE2
:10126000934580F0DB8059460298FEF71FFB039BF5
:101270000268059200229918884505D8A74282BFC6
:1012800012F80A10315501340132042AF3D1A9F1C0
:101290000403594602980393FEF708FB039B426838
:1012A00005920AEB0502984506D8A74281BFD118DE
:1012B00011F8041C3155013401334B45F3D1594623
:1012C0000298FEF7F3FA8368059309F104024B468E
:1012D0000AEB0501984506D8A74281BFC81810F847
:1012E000080C3055013401339A42F3D10BF1010B54
:1012F00009F10C090C3DAEE749465046FEF7D6FA17
:10130000036805930023EA18424505D3A74282BF2C
:1013100013F80B20325501340133042BF3D12A1D6D
:10132000494650460292FEF7C1FA029A4368059375
:10133000ABEB050105F10803904506D8A74281BF34
:10134000881810F8040C3055013401329A42F3D158
:10135000494650460293FEF7A9FA029B826805921D
:1013600005F10C02ABEB0505984506D8A74281BFF5
:10137000E91811F8081C3155013401339A42F3D1B0
:1013800009F10109154648E7594602980393FEF70B
:101390008DFA039B0268059200229918414505D3F6
:1013A000A74282BF12F80A10315501340132042AD3
:1013B000F3D1A9F10403594602980393FEF776FA94
:1013C000039B426805920AEB0502984506D8A7429E
:1013D00081BFD11811F8041C3155013401339945EE
:1013E000F3D159460298FEF761FA8368059309F133
:1013F00004024B460AEB0501984506D8A74281BF77
:10140000C81810F8080C3055013401339A42F3D152
:101410000BF1010B09F10C090C3D0CE7204607B05C
:10142000BDE8F08F2DE9F04F85B091469A461A68D5
:1014300004AB002443F8042D074688462546A945F9
:1014400004D8A04582BFEA5C3A5501340135042D29
:10145000F5D10AF10403002600930DF10C0BBAF844
:1014600004309E4246D231460098FEF71FFA0368C8
:1014700003930023EA184A4505D3A04582BF13F819
:101480000B203A5501340133042BF3D12A1D314688
:1014900000980192FEF70AFA019A43680393ABEBB6
:1014A000050105F10803914506D8A04581BF8818BC
:1014B00010F8040C3855013401329A42F3D1314608
:1014C00000980193FEF7F2F9019B8268039205F1FF
:1014D0000C02ABEB0505994506D8A04581BFE9187C
:1014E00011F8081C3955013401339A42F3D1013601
:1014F0001546B4E7204605B0BDE8F08FF7B5B3F563
:10150000804F0E46054617461946089C00F09C8001
:101510002ED843F6023399427CD00FD840F20913FB
:10152000994200F0D780B1F5E06F00F0C7800A461D
:101530000120704901F076FF00205AE043F6025383
:10154000994200F09F80B1F5785F00F0A88043F6E3
:1015500002439942EBD1204600F0ACFD204600F05A
:10156000DDFD3A46034631462846FFF73CFC40E0A5
:1015700044F20363994276D015D844F20132914285
:1015800055D044F202629142D1D11946204600F072
:1015900091FD204600F0C2FD3A46034631462846FA
:1015A000FFF78DFC25E0B1F5C84F16D046F2024397
:1015B000994220D044F204639942B8D144F20261C6
:1015C000204600F077FD204600F0A8FD3A4603468D
:1015D00031462846FFF703FE0BE0204600F06AFD87
:1015E000204600F09BFD3A46034631462846FFF769
:1015F000F8F803B0F0BD46F20341204600F05AFD72
:10160000204600F08BFD3A46034631462846FFF758
:1016100023FBEEE7204600F04DFD204600F07EFD66
:101620003A46034631462846FFF771FBE1E720467C
:1016300000F040FD204600F071FD3A460346314679
:101640002846FFF732F9D4E740F20321204600F0A4
:1016500031FD204600F062FD3A46034631462846F9
:10166000FFF755F9C5E744F20461204600F022FD7A
:10167000204600F053FD3A46034631462846FFF720
:10168000E6FCB6E7204600F015FD204600F046FDDA
:101690003A46034631462846FFF7C4FEA9E743F61B
:1016A0000161204600F006FD204600F037FD3A4675
:1016B000034631462846FFF758F99AE72046FFF7D8
:1016C000FFF902AB63E902013A4631462846FFF7CB
:1016D00070F98EE740F20111204600F0EBFC204645
:1016E00000F01CFD3A46034631462846FFF776F9DE
:1016F0007FE700BF896F05000149024800F03ABB4F
:10170000E487050074290020014800F02BBB00BFCE
:101710007429002010B5064B0360002304460371B2
:1017200081600273036100F04FF9204610BD00BFD5
:101730005CDC050010B5034B0360044600F06CF957
:10174000204610BD5CDC050040797047022303731E
:1017500001207047A0F10800FFF7F8BF03230373CF
:101760007047A0F10800FFF7F9BF70477047C268E3
:101770008368406812F0010F4FEA620218BF815877
:10178000104418BFCB581847C2688368406812F0ED
:10179000010F4FEA620218BF8158104418BFCB589E
:1017A000184713B502AA40F2111322F8023D012195
:1017B000044600F069FDC8280BBF0120002001236A
:1017C0000423237302B010BDA0F10800FFF7E9BFA6
:1017D00013B502AA40F2111322F8023D012104467A
:1017E00000F070FD0023237302B010BDA0F10800CB
:1017F000FFF7EEBF10B503790446D80709D5206876
:1018000003689B689847A07118B9237923F00203F5
:1018100023712379990704D5206803681B699847C9
:10182000A07123795A0705D5206803685B6998473A
:101830000123A37123791B0705D520680368DB68A2
:1018400098470123A3710123637123681B7B23B194
:101850000020BDE8104001F032BC10BD10B50446B8
:1018600001F090FD204610BD10B5044601F08AFD40
:10187000204610BD13B50468052104F1080000F0EE
:1018800019FC0222E1680DF1060033F080F8BDF882
:10189000060002B010BD00002DE9F043384BC9B07E
:1018A0001C685368039206460F467BB113890E2BC2
:1018B00002D813F0FF0F09D003A8FFF7DBFF002CBD
:1018C00045D018B10138246980B2F8E700230DF142
:1018D00020081A4648F833200133202BFAD100257E
:1018E0004FF040099CB1202D11D0A06833F050FA80
:1018F00009308144B9F5EB7F09D8A36848F8353041
:1019000008EBC50322791A7124690135EAE74FF41F
:101910008A72ADF818209DF81A20ADF8105042F0E8
:10192000030202F0C3026FF38712002C06AB04A976
:101930008DF81A204FF000028DF81B200093CDF88F
:10194000148007910F4B14BF6422C82211E003A832
:10195000FFF790FF0C490246012001F063FD0B4A9E
:1019600092E8030008AB83E803000093054B4FF4B3
:10197000D0723946304600F02DFD49B0BDE8F08305
:101980007C290020882900209CDC0500802900207B
:1019900010B50468083420460C2100F08BFB20466B
:1019A000BDE8104000F091BB38B50D680446032136
:1019B00005F1100000F07EFB01226969204632F03B
:1019C000E6FF204638BD000070B5054682680F4925
:1019D000012001F027FD2B6923B1012291210C4840
:1019E00004F024FE0B4C26685EB1A968B06833F0A1
:1019F000BDF920B901229921054804F017FE366986
:101A0000F2E723682B61256070BD00BFC5DC0500CF
:101A1000D7DC05007C29002082680F4910B50446F8
:101A2000012001F0FFFC0D4B1A68944202D122699B
:101A30001A6010BD13693BB1A34202D11B69136147
:101A400010BD1A461B69F6E70122BC210448BDE817
:101A5000104004F0EBBD00BFEBDC05007C2900204A
:101A6000D7DC05000A780379032A1DD8DFE802F0E5
:101A700002080F1613F0FB0F0CBF01200020704767
:101A800003F0FD02012A11D0052B13D10EE0022B29
:101A90000ED0052B14BF00200420704703F0FD0278
:101AA000012A0DD108207047FF207047022070479F
:101AB0000420704713F0FB0F14BF00200320704771
:101AC000022B04D0052B14BF00200C2070470C20E3
:101AD0007047000070B58AB00023087B01930D4663
:101AE00000918DF8042001F0C8FA0446064618B1AA
:101AF0006846FFF77FFE29E0174B02930590174BCE
:101B0000287BCDF80CD002A9049301F0FAFA05461F
:101B1000F0B1214601F00DFB114B06932046114B0D
:101B2000CDF81CD00893099401F0A7FA18B106A8C3
:101B300001F0ADFA07E006A8FFF719FE18B9022078
:101B400001F007FCF7E7284601F0EFFA9DF8066080
:101B500030460AB070BD00BF90DC0500F5170200EA
:101B60007CDC05004917020037B504460022114607
:101B700004F1080500F04EFB002214492846FFF747
:101B8000C9FD134B23604C33A360124A1249202332
:101B9000012001F047FC114B1B689D4201D1A36954
:101BA00023B101225A210E4804F040FD02A901236D
:101BB00001F8043D2846FFF755FF29460246204616
:101BC000FFF788FF204603B030BD00BF00DD0500F1
:101BD000B8DD05001CDE050010DD05007C290020B5
:101BE000D7DC0500134B37B5054603604C3345F889
:101BF000083F114B1B689D42044601D1836923B104
:101C0000012264210D4804F011FD02A9032301F80B
:101C1000043D2846FFF726FF294602462046FFF7E7
:101C200059FF2846FFF786FD204600F0CDFA2046F2
:101C300003B030BDB8DD05007C290020D7DC0500ED
:101C4000A0F10800FFF7CEBF10B50446FFF7CAFFAA
:101C5000204631F032FD204610BDA0F10800FFF70C
:101C6000F3BF000038B5094B1C680D4634B1294656
:101C7000A06833F07BF830B12469F7E72A460449BD
:101C8000012001F0CFFB204638BD00BF7C29002099
:101C900020DD05002DE9F04186B006AC064644F88B
:101CA0000C2D20468846FFF773FE01463046FFF7AD
:101CB000D9FF04AD074650B92046FFF769FE244915
:101CC0000246012001F0AEFB4FF4CA722EE021461D
:101CD0002846FFF769FE29463846FFF7C3FEFF286E
:101CE000024617D090B339463046FFF7F3FE68BB83
:101CF00021462846FFF758FE20469DF81070FFF752
:101D000047FE3A4603461349012001F08BFB4FF48E
:101D1000FA720BE021462846FFF746FE9DF8102098
:101D20000D49012001F07EFB4FF4C8720B4B93E884
:101D3000030042F4803285E80300094B00954146D8
:101D4000304600F047FB06B0BDE8F081C822EDE761
:101D50003BDD050081DD05005BDD050080290020FD
:101D600088290020704710B5044631F0A6FC2046B3
:101D700010BD0000014A02604160704734DE05007A
:101D8000406810B510B94FF4C87010BD8207FAD181
:101D900002680A4B9A420ED14168B1F1807FF2D2BB
:101DA0008B07F0D184680C390C3001F0E0F98442E3
:101DB000E9D1C82010BD40F2F91010BD5742523091
:101DC0004FF6FF73994208D04268B2F854308B4204
:101DD00003D9D3680B44D0187047002070474FF6E2
:101DE000FF73994270B519D04268CEB2B2F8623032
:101DF00009120131994211D2946A14444D0034F809
:101E00001130B3420AD92C44516A34F8023C3344AD
:101E10009BB2062000FB0310104470BD002070BD73
:101E200038B505460C4621882846FFF7D8FF28B16B
:101E30000378012B02D183882380F4E738BD4368FF
:101E4000B3F86000884270B515D9986A0024184428
:101E5000E5B26E1C013430F81660B142F8D230F8A9
:101E6000150001EB0524201A10805A6A062000FB99
:101E70000121581870BD002070BD4FF6FF739942C4
:101E80000AD04368B3F858208A4205D95A69062017
:101E900000FB012158187047002070474FF6FF7370
:101EA000994209D04268B2F85A308B4204D99369FA
:101EB00003EB4103D0187047002070474FF6FF73C3
:101EC0009A4217D04B68B3F85C108A4205D2D969A0
:101ED00001EB4202134401220AE0521AB3F85E10E9
:101EE00092B2914206D9196A01EBC2021344002250
:101EF000027001E000230370436070474FF6FF73E8
:101F000099420AD04368B3F864208A4205D9DA6A54
:101F1000062000FB012158187047002070474FF63B
:101F2000FF73994209D04268B2F866308B4204D9F7
:101F3000136B03EB4103D0187047002070474FF636
:101F4000FF73994209D04268B2F868308B4204D9D5
:101F5000536B03EB8103D0187047002070474FF696
:101F6000FF73994209D04268B2F86A308B4204D9B3
:101F7000936B03EB4103D0187047002070474FF676
:101F8000FF7399420AD04368B3F86C208A4205D99E
:101F9000DA6B0C2000FB01215818704700207047B5
:101FA0004FF6FF7399420AD04368B3F86E208A4215
:101FB00005D91A6C0C2000FB01215818704700202D
:101FC0007047FF2909D04268B2F870308B4204D9BB
:101FD000536C03EB4103D0187047002070474268F0
:101FE000D368B2F85400D118034413440020994236
:101FF00006D011F8012B002AF9D1013080B2F6E7A2
:10200000704773B50B880380837803F0E00343F0D7
:10201000140303F0DF036FF387138370044688789B
:10202000E0704B6863600B88DBB102AD002305F8FC
:10203000013D8DF806300BF011FB03681B699847D2
:10204000036861681E680DF106022B46B047A3784D
:102050009DF8072062F300039DF8062062F3410318
:10206000A370204602B070BD38B50D46044650B18D
:10207000837843F0030303F0C3036FF38713837084
:102080000023C37043602B7823800C2B02D1AB68F4
:1020900063600AE003F0FD030D2B04D101224E2101
:1020A000034804F0C3FA08356560204638BD00BF18
:1020B0003CDE05007047436818787047436893F921
:1020C0000000704743681878704740687047406860
:1020D000704700000B880E2B37B505460C460AD911
:1020E000A37803F00C03042B0BD0012296210A489D
:1020F00004F09CFA05E001229221074804F096FAC8
:10210000EEE763680093E27821880023284613F005
:10211000A5F9284603B030BD3CDE050030B5837814
:1021200003F00C030C2B85B0044604D10122A62138
:10213000194804F07BFAA37803F00C03042B28D190
:10214000E0780BF08BFA05460BF074FD03AA2188AA
:102150002C300DF07DFDB0B12B6828461B699847E7
:10216000039A036800925D68218862680023A8478B
:10217000606040B1A37803F0F20343F009036FF30A
:102180000413A37005E00122B321034804F04EFAC2
:10219000F0E7606805B030BD3CDE0500064A937884
:1021A00043F00303002103F0C30361F3871311809D
:1021B0009370D1705160704780290020704770473C
:1021C00070470BF037BD000010B5054B03600446A7
:1021D0000BF030FD21460BF0D5FD204610BD00BFB1
:1021E00050DE050010B50446FFF7EEFF204631F043
:1021F00064FA204610BD38B5038823F00205C82DC7
:10220000044605D0642B03D0CC2B01D00DF05EFA30
:10221000208838BD0E4B10B503600023037143794D
:1022200003F0F00362F3071343714FF6FF730446A4
:10223000C3800BF0FFFC21460BF074FDC82804D0CE
:1022400001222921034804F0F1F9204610BD00BF06
:1022500050DE050084DE050000487047B9320600F4
:102260004379C28800201B096FF3030063F3071052
:102270006FF30F2062F31F407047C0887047C18022
:1022800070474079000970470368F7B59B680E46B0
:1022900017460446984705462046FFF7E1FF3A46B1
:1022A0000346314628460CF089FA02AB5B2223F83C
:1022B000020D03491846FFF79EFF03B0F0BD00BFB3
:1022C00084DE0500F0B5036885B09B680E461746AE
:1022D0000446984705462046FFF7C2FF01230093B6
:1022E0003A460346314628460CF0DAF904AB602240
:1022F00023F8020D02491846FFF77DFF05B0F0BD37
:1023000084DE0500036873B59B680E460446984753
:1023100005462046FFF7A4FF3246014628460CF04A
:1023200051FF02AB652223F8020D03491846FFF75F
:1023300062FF02B070BD00BF84DE05000368F7B520
:102340009B680E4617460446984705462046FFF709
:1023500087FF3B463246014628460CF057FF02AB4A
:102360006A2223F8020D03491846FFF744FF03B021
:10237000F0BD00BF84DE050073B5036804469B68AA
:1023800016460D469847E288637900921B0932464B
:102390002946006A0DF020FA02B070BD036870B5DE
:1023A0009B6804460D4616469847E388006A324605
:1023B0002946BDE870400DF04BBA38B503689B68FC
:1023C0000D46044698472A46E188006ABDE8384031
:1023D0000DF09CBAF0B585B014461F4605460E4672
:1023E000FFF73EFFE303039008D503A800F034FE97
:1023F000037843F00103037024F480342B682846EB
:102400009B6898470A9B01933246A3B203990097B1
:102410000CF09EFF04AB882223F8060D02491846F3
:10242000FFF7E9FE05B0F0BD84DE050007B5054BFA
:10243000009340F2F512044BFFF7CCFF03B05DF8B8
:1024400004FB00BF802900208829002007B5044B29
:102450000093C822034BFFF7BDFF03B05DF804FBF8
:102460008029002088290020F0B585B01F46054648
:102470000C461646FFF7F4FECB03039006D503A8DF
:1024800000F0EAFD037843F0010303702B6828464F
:102490009B6898470A9B0193A2B233460399009721
:1024A0000CF0C4FF04AB942223F8060D0249184631
:1024B000FFF7A1FE05B0F0BD84DE050070B45668DC
:1024C00002F108030024B4420ED01D880E2D01D85D
:1024D0000D2D02D001340833F5E7072C04D802682B
:1024E00054691A46234601E003681B6970BC18470B
:1024F000014B00221A7070478829002070477047EE
:102500007047704770477047704770477047C268A0
:102510008368406812F0010F4FEA620218BF8158C9
:10252000104418BFCB5818470BF084BB10B5054BAF
:10253000036004460BF07EFB21460BF09FFC204617
:1025400010BD00BFDCDE050010B50446FFF7EEFF4E
:10255000204631F0B2F8204610BD10B5044631F0E7
:10256000ACF8204610BD10B5044631F0A6F8204660
:1025700010BD000030B5816987B0044621B92049FB
:10258000012000F04FFF39E004ADCB8902690393CD
:10259000103128460292FFF767FD217B029A039BC8
:1025A000052924D8DFE801F003080F14191E20685C
:1025B00000952189456903E0206800952189856996
:1025C0002046A84718E0206800952189C56AF7E7EA
:1025D000206800952189056BF2E720680095218924
:1025E000C569EDE7206800952189056AE8E70122C1
:1025F000FD21044804F01AF80023A36107B030BDA0
:102600000555060018DF050010B5044600F0BAFEB7
:10261000204610BD10B5044B03600446406900F02D
:1026200084FD204610BD00BFC8DE0500038813B13D
:102630005A1C92B201E002220123028001B10B80F8
:102640001846704710B50446FFF7E4FF14B1204662
:1026500000F098FE204610BD10B504460430FFF788
:1026600056FF14B12046FFF7EDFF10BD092110B54C
:1026700001731249124B09680360016100234FF690
:10268000FF71044643600381C38183828361818338
:10269000C38380F8202080F8213080F822100BF0CE
:1026A000C9FA21460BF0B6FBC82804D001225221FA
:1026B000044803F0BBFF204610BD00BF80DF0500CB
:1026C000DCDE050018DF050000487047B93206005F
:1026D000838B90F8202000206FF3030062F3071033
:1026E0006FF30F2063F31F407047808B7047818327
:1026F000704790F820007047F7B5089E00249E466A
:102700003460002933D01C4C246801948C89002C3F
:102710002FD00C78092C05D09EF800703C1B674226
:10272000674100E001270D891DB114880134A542DD
:1027300007DC4D893DB11488AC42ACBF00250125B2
:1027400002E0002500E001254C68019BA34203D074
:10275000031B5C425C4100E0012437B12DB124B180
:10276000138831600133138001E02831CEE7084639
:1027700000E0204603B0F0BD80DF05002DE9FF41F9
:10278000984603689B6804460E461746984798F893
:102790000030054623B12046FFF79AFF034601E0CB
:1027A0000A4B1B680122009231463A4628460BF03C
:1027B0009FFB04AB40F2071223F8020D04491846B0
:1027C000FFF719FD04B0BDE8F08100BF88DF050008
:1027D00018DF05002DE9F04385B004AE062306F8A6
:1027E000023D00F1180300930446884617464168ED
:1027F00000F108021E4833460068FFF77DFF0546DA
:10280000A0B13B680BB122891A802B7C2BB101222D
:1028100040F21B11174803F009FF23686A68DE685D
:102820002189EB892046B047A8891DE0236820460E
:102830009B68984705462046FFF74AFF396881465E
:1028400004F11E00FFF7F2FE7B6800934A46034640
:10285000414628460BF0E4FE40F22512ADF80E008A
:1028600004493046FFF7C7FC05B0BDE8F08300BF60
:1028700080DF050018DF05002DE9F04F9B4690F83A
:102880002230FF2B97B004468A46154674D1036860
:102890009B689847866A06F110090021484612F0A5
:1028A000E6FBC0B2FF2884F8220062D0D5F804808D
:1028B00005EBC80318460D210193FFF7FBFB019BB5
:1028C0001846FFF704FC08F1FF37034638B90190BA
:1028D00001224FF4C971314803F0A8FE019B304931
:1028E000079716AA002742F8401D0137B84507D0C0
:1028F000F90002EB010E294403C98EE80300F4E756
:10290000B16994F822508988D6F8208001924D430D
:1029100008EB0507BAF80210798028F80510DBF8F3
:1029200004107960BB60DBF8043004939DF8143028
:1029300043F00303002603F0F30366F307138DF857
:102940001430236803969B682046984703AB019A8E
:1029500051460CF0F3FBADF80A0020F00200C82845
:102960000DD14FF4D6720D490DF10A00FFF743FC6B
:1029700011E040F2FB100EE040F2A7100BE07E8069
:1029800028F80560484694F8221012F0D3FAFF2385
:1029900084F82230E5E717B0BDE8F08F18DF0500B6
:1029A000A4DE05002DE9F0478CB088461D468DF861
:1029B0000F200446149EFFF78BFE0CAB43F8200D4E
:1029C000184600F048FB9DF80F301F0607D503F0AE
:1029D0007F038DF80F30037843F0020303702A7AE7
:1029E00091075EBF037843F001030370530706D5D8
:1029F000037843F004030370012384F8213029682D
:102A00009DF80FA004F11E00FFF710FE814605A8F7
:102A1000049F00F0D1F901238DF814309DF8153092
:102A200007976AF3030303F08F036FF3C7138DF85F
:102A3000153004F11803009304F108020DF10F039F
:102A40006168ADF816904046CDF81880FFF754FE47
:102A50009DF80F300746002843D02A680AB1218923
:102A60001180FA8921898DF82030CDF82480ADF8C5
:102A70002210ADF828200B970CAB13E90F0004F1DE
:102A80000C0585E80F00182094F8206000F078FC11
:102A9000294B0360294B4360294BC3600023054643
:102AA000846003610146304600F02BFB686128B961
:102AB00001224FF48A71234803F0B8FD68690021B0
:102AC000017200F036FB9DF81430012B04D0012276
:102AD00070211C4803F0AAFD02238DF81430BC8934
:102AE00023E0012B0ED1736863B136F833300E2B1F
:102AF00008D80D2B06D12B46324605A92046FFF7F4
:102B0000BBFE11E0236820469B6898472B4632465F
:102B100005A90CF013FB0CAB4FF4BD7223F8100D9C
:102B200008491846FFF767FB044605A800F048F976
:102B300020460CB0BDE8F087C8DE0500B4DE050015
:102B40007525020018DF050073B5036804469B680D
:102B500016460D469847A28B009294F82030006AE2
:102B6000324629460CF038FE02B070BD38B5036815
:102B70009B680D46044698472A46A18B006ABDE82B
:102B800038400CF0C3BE00002DE9F04F9A4690F893
:102B90002230FF2B8FB004468B4691467ED00368CF
:102BA0009B689847D0F8288094F82250D8F81830BD
:102BB000D8F820709B885D437E197B5B002B6DD01D
:102BC00073885B456AD1BAF1640F59D13B4B0A93C4
:102BD0000D23B268ADF830309DF832300D9243F0DD
:102BE00003034FF0000A03F0C3036FF3871351464A
:102BF0004FF0010B04F11E008DF832308DF833A038
:102C0000CDF82CB0FFF712FD708003902046FFF73F
:102C10005FFD029004A800F0CFF89DF811300299F2
:102C200006916BF3030303F08F036AF3C713CDF828
:102C300014908DF81130736808939DF82430039A2E
:102C4000ADF8122043F0030303F0F3036AF3071314
:102C50008DF824302368CDF81CA09B688DF810B047
:102C60002046984707AB0AAA04A90CF067FA20F09F
:102C700002039BB2C82B82461AD004A800F0A0F829
:102C8000002337F805B073807B5308F1100094F8E7
:102C9000221012F04FF9FF2384F822302368189A8B
:102CA00000929D694A46534659462046A84702E08D
:102CB00004A800F085F80FB0BDE8F08F3C6905006E
:102CC0002DE9FF41044604A81E468B6840F8043DE8
:102CD00015460F46D1F8048000F0BDF903785A0775
:102CE00007D4236879880096DF6942462B46204640
:102CF000B84733880E2B00D833B1236832465F6A59
:102D0000074B41462046B84794F821302BB9A5F12E
:102D1000C8035D425D4184F8215004B0BDE8F081F4
:102D2000CC2900201E491F4B01221A700A7A02F09A
:102D3000FE0242F00202002302F0F30263F30712E4
:102D40000A720B604B6018490A7A0B6042F003026A
:102D500002F0F30263F307120A72144A4B60117A0D
:102D6000136001F0F00163F3071111721049536011
:102D70000A7A0B6002F0FE0242F0060202F0F7024D
:102D800063F307120A724B600A490A7A0B6002F079
:102D9000F00242F00A0263F307124B600A727047B6
:102DA0008C290020BC290020A4290020982900207B
:102DB000B0290020C02900200022027070470000C6
:102DC00010B50278012A044603D11F21024803F0FE
:102DD0002DFC204610BD00BF60DF050038B50B7824
:102DE000012B04460D4604D001222C211A4803F081
:102DF0001DFC2278012A03D12F21174803F016FC6D
:102E00002B7823706A78637862F3030363706B88AE
:102E10006380AB68A3606B6863606B786278C3F3B0
:102E2000001363F3041262706B78D2B2C3F34013E1
:102E300063F3451262706B78D2B2C3F3801363F30D
:102E4000861262706B78D2B2DB0963F3C71200237B
:102E500062702B70204638BD60DF0500024B034ACC
:102E60001A6000225A607047CC29002074DF0500E8
:102E700038B50A460C460021054631F029FD08B157
:102E8000401B38BD204638BD08460C22002131F0D9
:102E9000A2BD10B501460446FFF7F6FF204610BD5F
:102EA000F8B508460E46154631F072FF0335074661
:102EB0003446A31B9F423ED904212046FFF7D8FF8A
:102EC000431E032B28D8DFE803F01E100702E37827
:102ED0002F3B9B00DBB200E00023A1782F3943EAAF
:102EE00021130901DBB2C9B201E00023194694F8AD
:102EF00001E0AEF12F0E41EAAE014FEA8E1EC9B2DB
:102F00005FFA8EFE02E0002319469E4622782F3A91
:102F100042EA0E02D2B202E0002319461A46032802
:102F200005F8032C05F8021C05F8013C04F1040423
:102F300005F10305BDD8F8BDF0B5151D01F10C066E
:102F400091F801E00F7888784FEA8E0404F03C0491
:102F5000030144EA971417F03F0703F0300318BF4A
:102F60002F3743EA1E13800805F8047C04B12F3480
:102F700005F8034C0BB12F33DBB205F8023C08B166
:102F80002F30C0B203318E4205F8010C05F1040563
:102F9000D6D100231374F0BD0A460146FFF7CCBF1B
:102FA00070B50C4609B9002070BD084631F0F0FE3E
:102FB000431E0F2BF7D8251814F8016B304631F05B
:102FC00040FB20B9304631F045FB0028EBD0A5424C
:102FD000F2D1012070BD10B5037886B0044643B12C
:102FE000014601AAFFF7A8FF01A92046FFF7D8FF75
:102FF00000E0184606B010BD38B504460D46FFF790
:10300000EAFF38B10C222946204631F0B1FCB0FA73
:1030100080F0400938BD38B504460D460146FFF73B
:1030200033FF29462046FFF7BBFF30B12246294631
:103030002046BDE83840FFF733BF38BD10B5044621
:10304000FFF7E9FF204610BD10B50446FFF7E3FF88
:10305000204610BD7047704770470B4610B50146BB
:1030600018460AF0BEFF044630B100F036F9646934
:10307000231A5842584110BD10BD10B504460AF03D
:10308000D9FD01462046BDE81040FFF7E6BF38B540
:1030900005460AF0CFFD0BF033FC0F28044601D1A2
:1030A000002038BD0AF0C6FD21460AF09AFF00282C
:1030B000F6D029460C300FF0E1F8012038BD10B5EC
:1030C00004460AF0B7FD21460AF08BFF40B10369C0
:1030D00080699B7801219940BDE8104000F08DB8CF
:1030E00010BD38B505460C460AF0A4FD29460AF085
:1030F00078FF28B121460C30BDE838400FF0B6B952
:1031000038BD38B505460C460AF094FD29460AF04C
:103110006BFF21460C30BDE838400EF05BBE036803
:103120009868431A584258417047014600680EF0AB
:1031300087BE0A46014600680EF072BE30B508230D
:1031400080221142044614BF0125002545EA4000B3
:10315000002CBFBF80F0986080F48E3080F4DB706C
:1031600080F00100013B4FEA6202EAD130BD38B580
:10317000044645180020A54204D014F8011BFFF7AF
:10318000DDFFF8E738BD000030B50C4D0A44914230
:1031900012D011F8013B83EA000404F00F0455F843
:1031A000244084EA101080EA131303F00F0355F84B
:1031B000233083EA1010EAE730BD00BF8CDF050042
:1031C00010B5002304460322194602F03BF92046BD
:1031D00010BD704707B502AA002089024FF47A7328
:1031E00042F8040DB1FBF3F34FF0FF3102F0D0F8D9
:1031F00000B1019803B05DF804FB0023012202F046
:1032000021B900001FB504AA002342F8043D009232
:10321000012202F07BF90849039A0B6813430B6003
:103220003AB1064B4FF080521A60BFF34F8FBFF395
:103230006F8F05B05DF804FBD429002004ED00E099
:103240002DE9F041064686B00C200F4615469846FB
:1032500000F096F80C9B0F4983606A1C05AB0025B3
:1032600080E84001AE4218BF31468DE80C000446AC
:103270000346039502953A46074801F0EBFA012808
:1032800003D0204600F07EF80595059806B0BDE80D
:10329000F08100BFB9320600F132020038B50446B1
:1032A00000F06AF80021204601F0CCFFC5B2012DE4
:1032B00004D102220021204601F0B8FF00F05EF8A0
:1032C000012D09D1012001F085FD0021204601F0EA
:1032D000B9FFC0B20228F4E738BD08B501F0C6FF57
:1032E000012803D0BDE8084001F0BABF002008BDA6
:1032F00038B54468856800F045F800210846012289
:1033000001F094FF2846A04700F036F80021032280
:10331000084601F08BFF00F031F8FFF7DEFFBDE853
:10332000384001F089BB10B5FFF7D7FF01220446F2
:10333000002101F07BFF204610BD01F019BC0021E7
:1033400008B5084601F07EFFC0B2831E58425841BE
:1033500008BD80024FF47A73B0FBF3F001F03ABD80
:10336000044B4FF080521A60BFF34F8FBFF36F8F43
:10337000704700BF04ED00E002F0BCBD02F0D4BD18
:1033800003F018B903F018B910B5054C236813B948
:1033900000F03CFA2060206800F082FA012010BDA5
:1033A000C4E5002010B500208EB000F0F8F905A9A2
:1033B000019001A800F08CFF07990A2291FBF2F31B
:1033C00003F130008DF8080002FB131306983A2130
:1033D00030338DF809308DF80A1090FBF2F38DF838
:1033E0000D1003F1300405998DF80B4002FB130317
:1033F00030338DF80C3091FBF2F303F1300002FB17
:10340000131330338DF80F3020238DF80E008DF814
:10341000103002A800238DF8113000F0CDF90EB065
:1034200010BD00000EB477B50646FFF7ADFF70B3D0
:10343000194D079A08AB4FF480712846019332F07A
:103440000DF8002819DBFF284FF000041248C4BF14
:1034500085F8FF40114C03F0A3F880B1FFF7A2FFFD
:103460000D4800F0A9F916B10D4800F0A5F90D4B73
:103470002BB1094821F048FF01E00B4C00E014B1EA
:10348000204600F099F9094B186800F045FA03B09E
:10349000BDE8704003B07047D8290020CCDF05009C
:1034A000B732060009530400F2DF0500C4E500202E
:1034B000D0B5EFF305833BB9EFF3108472B6E4B2F5
:1034C000B4FA84F4640900E0002400F083FE0C4B9D
:1034D0001A6890420B4A07D2D2E9006716F180764B
:1034E00047F10007C2E90067186004B162B6D2E98B
:1034F0000023161843F1000730463946D0BD00BFFF
:10350000E02A0020F02A002037B5FFF7D1FF4FF462
:103510007A73A0FB034503FB0155164BD3E9000169
:10352000A20A42EA855280184FEA95235941124A6D
:103530004FF4B0738B4208BF824218D20F4BD3E9CD
:10354000004514F5FA7445F100058D4208BF844228
:103550000DD2C3E90001CDE90001002214461DF897
:1035600004500134082C82EA0502F8D11A7203B023
:1035700030BD00BFD82A0020009004AF80FF00209B
:103580002DE9F041DFF83C80D8E90067FFF790FFB4
:103590004FF47A73A0FB034503FB0155A20A42EAEC
:1035A0008552B21A4FEA9523054967EB0303C1E937
:1035B000002300220023C8E90023BDE8F08100BFFA
:1035C000D82A0020E82A00200C4BD3E9002313431B
:1035D00010B501D0FFF7D4FFFFF796FF00234FF49B
:1035E0007A7230F0A7FD064B1B68014623B1054AED
:1035F000BDE810401068184710BD00BFE82A002041
:10360000002B0020FC2A0020024B1860024B19609E
:10361000704700BF002B0020FC2A002000000000A3
:1036200030B5394B394C002587B01D60384B00212F
:103630000020C3E9000100F033FD01223549364B7B
:1036400000954FF47A7000F0BFF8344B186000F02A
:10365000CAF84FF47A720023D4E9000130F06AFD11
:1036600002460B4601202E49FFF7DCFED4E9002379
:10367000CDE902232A462B4602A9595C0133082BC7
:1036800082EA0102F8D1237A26490120FFF7CAFE17
:10369000D4E9002352EA03011ED0CDE9042300231C
:1036A0001A4604A9515C0132082A83EA0103F8D1C1
:1036B000227A9A4210D11C490120FFF7B3FE134B26
:1036C000D3E9000140F6340212184FF000034B41D9
:1036D0001649C1E900230FE015490120FFF7A2FEBA
:1036E00000230022C4E9002305A1D1E900017B23C6
:1036F00023720E4BC3E9000107B030BDAFF3008069
:1037000000B0CAA24A010000E02A002080FF002089
:10371000F02A002019E00500C9350200F82A00202F
:103720001EE005003AE005004EE00500D82A002022
:1037300067E0050038B5054638B9FFF7E5FE4FF4F8
:103740007A72002330F0F6FC38BDFFF7DDFE4FF44F
:103750007A720023044630F0EDFCC0EB401300EB1E
:103760008303A4EBC3042C8038BD0000044BC3E9E1
:103770000001D3E90023134301D0FFF701BF7047D5
:10378000E82A002010B5FFF793FE4FF47A74A0FBEF
:10379000042304FB0133900A40EA835010BD10B5A6
:1037A0000446FFF7B1FE4FF47A72002330F0C2FCFA
:1037B00004B1206010BD000002460249042000F060
:1037C00051BA00BF6F29060010B40C46019901934D
:1037D00080020B464FF47A71B0FBF1F120465DF8A0
:1037E000044B00F009BE13B5044601F0BBF94FF0DD
:1037F000FF330093024600230121204600F020FE03
:10380000431E5842584102B010BD000010B50120BF
:1038100002F0A4F8044620B901221721024802F060
:1038200005FF204610BD00BF95E0050010B504203F
:1038300002F094F8044620B901222721024802F040
:10384000F5FE204610BD00BF95E0050010B504460A
:1038500020B901223121044802F0E8FE2046BDE8EB
:10386000104002F04BBA00BF95E0050038B50C4699
:10387000054620B901224B21084802F0D7FE00235B
:103880001946A40228464FF47A72B4FBF2F202F011
:1038900037F9431E5842584138BD00BF95E0050036
:1038A00010B5044620B901224321054802F0BEFEAE
:1038B00042F210712046FFF7D9FF0028F8D010BD62
:1038C00095E0050038B50C46054620B9012259217E
:1038D000074802F0ABFEA40228464FF47A71B4FB0D
:1038E000F1F102F0C3F9431E5842584138BD00BF00
:1038F00095E0050010B5044620B901225121054884
:1039000002F094FE42F210712046FFF7DBFF002820
:10391000F8D010BD95E0050010B5044620B901228D
:103920005F21064802F082FE00231A46194620460F
:1039300001F066FF431E5842584110BD95E0050056
:1039400010B5044620B901226521054802F06EFE3B
:10395000204602F025F8431E5842584110BD00BFD2
:1039600095E005000649074A074B9B1A03DD043B17
:10397000C858D050FBDC00F04DF8FBF761FC0000AC
:10398000748406000826002048290020FEE7FEE790
:10399000FEE7FEE7FEE7FEE7FEE7FEE7FEE7FEE7FF
:1039A000094B1B78062B0CD1084B1B681A0708D152
:1039B000074B186800F0F000A0F13003584258415E
:1039C00070470020704700BFE00F00F0E40F00F0E8
:1039D000E80F00F00C4B1B78062B10D10B4B1B682B
:1039E0001A070CD10A4B186800F0F003302B08D0EE
:1039F00000F0E000A0F14003584258417047002019
:103A000070470120704700BFE00F00F0E40F00F0A6
:103A1000E80F00F008B5FFF7DDFF28B16C4B6D4AE9
:103A20001B68C3F304231360FFF7BAFF10B16A4B9E
:103A30006A4A1A60FFF7CEFF28B1694B694A1B68D2
:103A4000C3F342331360FFF7ABFF20B1664AD3687C
:103A500023F08073D360FFF7BDFF40B14FF0804388
:103A60000022C3F80C21C3F81021C3F83825FFF752
:103A700097FF10B15D4B03221A60FFF791FF40B131
:103A80005B4B05221A6001229A6700229A603F224E
:103A90005A60584B1B78062B09D1574B1B681A07E5
:103AA00005D1564B1B6803F0F003502B47D0FFF7AE
:103AB00091FF28B1524B534A1B6803F04F03136028
:103AC000514AD2F8883043F47003C2F88830BFF30B
:103AD0004F8FBFF36F8F4FF01023D3F80C32DB07FB
:103AE00029D54A4B0122C3F80425D3F80024002A23
:103AF000FBD04FF010224549D2F80C3223F00103DD
:103B0000C2F80C32D1F80024404B002AFAD000222F
:103B1000C3F80425D3F80024002AFBD0BFF34F8F4D
:103B200039493B4BCA6802F4E0621343CB60BFF3F0
:103B30004F8F00BFFDE7374B374A1A6008BD4FF083
:103B40008052364BD2F80414C3F82015D2F808146A
:103B5000C3F82415D2F80C14C3F82815D2F81014A1
:103B6000C3F82C15D2F81414C3F83015D2F8181471
:103B7000C3F83415D2F81C14C3F84015D2F8201439
:103B8000C3F84415D2F82414C3F84815D2F8281401
:103B9000C3F84C15D2F82C14C3F85015D2F83014D1
:103BA000C3F85415D2F83414C3F86015D2F8381499
:103BB000C3F86415D2F83C14C3F86815D2F8401461
:103BC000C3F86C15D2F84424C3F870256FE700BF22
:103BD000240300104035014074C007400DF0ADBA19
:103BE000440200103C050040F0ED00E0A00500405C
:103BF00010560040E00F00F0E40F00F0E80F00F076
:103C000058020010E40E004000ED00E000E001402A
:103C10000400FA05182600200090D00300C00040E0
:103C200013B50093034B5C6913460A460021A04775
:103C300002B010BD042B002038B5012016F080F929
:103C4000044638B916F092F9054616F093F9024B7E
:103C50005D619861204638BD042B002000231A4680
:103C6000FFF7DEBF13B502AC012344F8042D224652
:103C7000FFF7D6FF02B010BD07B58DE80C00022398
:103C80006A46FFF7CDFF03B05DF804FB1FB5029352
:103C9000069B0192039301AA0323FFF7C1FF05B01E
:103CA0005DF804FB2DE9FF471C460B4F00238046BF
:103CB000894616469A46CDF80CA0CDF808A0019486
:103CC00000964A4600214046BD69A8478442034603
:103CD000F1D804B0BDE8F087042B0020094A5378DE
:103CE00091780133DBB2994208BF002311789942E1
:103CF0001FBF03705378182000FB032014BF04304B
:103D000000207047282B002073B5054602A8002428
:103D100000F8014D0E4600F071FA0DF10600FFF7B4
:103D2000DDFF30B106700A4B9DF8062045605A70E1
:103D300000E004249DF8070000F090FA24B9054B38
:103D40004FF48012C3F80021204602B070BD00BFBE
:103D5000282B002000E100E0204B21491A682F2386
:103D600000BF00BF00BF00BF00BF00BF00BF00BF5B
:103D70008A422FD000BF00BF00BF00BF00BF00BFFE
:103D800000BF00BF00BF00BF00BF00BF00BF00BF3B
:103D900000BF00BF00BF00BF00BF00BF00BF00BF2B
:103DA00000BF00BF00BF00BF00BF00BF00BF00BF1B
:103DB00000BF00BF00BF00BF00BF00BF00BF00BF0B
:103DC00000BF00BF00BF00BF00BF00BF00BF00BFFB
:103DD00000BF00BF013BC3D1704700BF18260020C1
:103DE0000024F4000C4B0D484FF4003210B5C3F81A
:103DF000802001244FF48033C0F84833C0F80833E2
:103E00004460FFF7A9FF064B846000201860FFF7AD
:103E1000A3FF044B187010BD00E100E0001001404A
:103E2000202B0020372C00202DE9F74F9248934A91
:103E300003781278924C9A421FD0924A0133DBB237
:103E40001168022B08BF002321F07F41037011602D
:103E50002368002215465BB1186848B9DA68D8694A
:103E60001AB1DD6159609A601D4603460122F2E7EE
:103E700002B123604FF0010901E00025A946824FFD
:103E8000236800934FF0000ABB4655B12846ED6900
:103E90002DE0D4F8008046464146002E65D100232F
:103EA00003743B78797899426DD0591CB878C9B2BF
:103EB000884239704FF0180101FB03B108BF3D7013
:103EC0000B798868022BE4D0032B4AD0012BE8D170
:103ED000067C002EE5D1CB6843600B6983604B699B
:103EE000C3608B698361694B1B7803B14660654988
:103EF00043680968664A5E1A26F07F4696428268E1
:103F000001D8164405E0C91A21F07F43934202D23A
:103F1000D61A066001E0002303600023436083603B
:103F2000C3612368564A0121017433B101681E68D8
:103F3000B14204D8711A1960C3611060A5E79E46AA
:103F40001E68B14205D9891BDE699E462EB13346F3
:103F5000F6E7761A1E601E4673460160C661D86198
:103F600093E700212368084604E0B04263D031465D
:103F7000F66992E71BB118740121DB69FAE70029A1
:103F80008FD023608DE7BAF1000F06D12368009A25
:103F90009A4202D1B9F1000F47D02368002B42D0DA
:103FA000D3F800903B4C374BD4F8046518683A4F6F
:103FB000351A3B7825F07F4503359BB94FF48032A5
:103FC000C4F84423C4F80423344A4FF400314FF0BA
:103FD0000108C2F880111160C4F80080FFF7BCFE30
:103FE00087F80080A9452CBF00EB0903431923F093
:103FF0007F40C4F84005D4F80435264A9B1B23F0C3
:104000007F43801B033320F07F4083420DD9D2F8D9
:104010000435C2F84035FFF79FFE204B4FF40032C5
:10402000C3F8002101E0FFF7DDFE184B00221A70F3
:1040300003B0BDE8F08F884210D1D8F81C3023605F
:1040400063B90191DFF83CC0124901228A60CCF8C3
:1040500000300E4B1A70FFF77FFE01993368F66946
:10406000CE6116B13268134433602368984518BF97
:104070004FF0010A13E700BF352C0020342C00203C
:10408000242B0020202B0020282B0020362C002061
:10409000FEFF7F0000100140372C002000E100E00F
:1040A00008B5FFF79FFE114B00200B2218709A7085
:1040B00058700F4B18600F4B18700F4B18700F4B48
:1040C0004FF48012E021C3F8802183F814131A60A2
:1040D00002F18042A2F56F22C2F8080583F811139D
:1040E000074BD2F804251A6008BD00BF282B00201A
:1040F000242B0020352C0020342C002000E100E08F
:10410000202B0020074B9B784BB132B128B10368BC
:10411000187C20B959745A617047072070470820ED
:10412000704700BF282B00202DE9F7431E4FBB78B6
:1041300005460E4690469BB390B304292ED9436999
:1041400073B3437C02A80024012B00F8014D0CBF7F
:104150008946A14600F052F80DF10600FFF7BEFDBA
:1041600078B101230370114B4560D3F804358360A7
:104170009DF80630C660C0F81090C0F814807B70BF
:1041800000E004249DF8070000F068F824B9084B0B
:104190004FF48012C3F80021204602E0072000E01F
:1041A000082003B0BDE8F083282B00200010014058
:1041B00000E100E0064A92783AB130B1426922B19A
:1041C000002202740221FFF79FBD0820704700BF44
:1041D000282B0020014BD3F8040570470010014044
:1041E000EFF30583C3F3080333B9EFF3148000F052
:1041F000010080F0010070470120704770B504464F
:10420000FFF7EEFF012803D01049432017F086FA8C
:10421000EFF3108572B60E4A9068012390B993604F
:104220000C4B0D49D3F88060314011600A49C3F846
:104230008010D3F8841051604FF0FF32C3F884200F
:10424000207000E0237005B962B670BDA5E00500DE
:10425000382C002000E100E0FC06FFBD10B504464C
:10426000FFF7BEFF012803D00949512017F056FA85
:10427000084B9A685AB154B9EFF3108272B60649E6
:1042800018680860586848609C6002B962B610BD42
:10429000A5E00500382C002000E100E0094B1EF0ED
:1042A000040F1CBFEFF309801847EFF3088006499D
:1042B000064A884201D8904202D88D464FF000004D
:1042C000184700BFB170030080FF002080FB002072
:1042D00038B50D46044620B901221B21074802F0DB
:1042E000A5F925B901221C21044802F09FF92946AD
:1042F0002046BDE8384030F0C7B900BFB9E005003E
:10430000F8B5134C01F0F6FD2568E5B9114F124ED2
:10431000384601F024FD304601F021FD0F4B1F60AF
:104320000F4B2A4610210A201E6001F01DFA206062
:1043300020B940F21A310B4815F0CFF8206810B1BF
:10434000094901F0B5FCBDE8F84001F0EDBD00BF42
:10435000742C0020482C00205C2C0020442C0020D1
:10436000782C0020C2E0050009E10500914208B563
:104370004160006106D8D21A83699A420DD2011DAC
:10438000074B05E09A4201D2994206D2054B011D26
:10439000186801F0FEFC002008BD012008BD00BF28
:1043A000782C0020442C00201FB5FFF7A9FF0D4BEF
:1043B0001B6833B90C484FF4877115F08EF8002054
:1043C0000DE00A4A01920023042200920393029313
:1043D0005A220749074800F03DFA0028EAD005B004
:1043E0005DF804FB742C0020C2E005007C2C00204A
:1043F0000EE10500194502002DE9F04180461746FF
:104400001E460D4689B1282001F0E4FE044690B115
:10441000FFF776FF069BC4F80080A561E76126627E
:104420006362201D01F0A6FC05E04FF49B71034878
:1044300015F053F82C462046BDE8F081C2E0050097
:104440002DE9FF410D4690461F46064620B940F231
:104450004111104815F041F80F4C2068B0B1052DFE
:104460008DE8200102960CDC00F000FF00230228FA
:1044700008BF0A9A206818BF1A46694601F0C0F9B9
:1044800004E000233A46694601F0A8FA04B0BDE80A
:10449000F08100BFC2E00500742C00202DE9F3413B
:1044A0001A4E374633681A683AB3DB68DC681D6811
:1044B00004F10408404601F084FC636A20469847F2
:1044C000E369012BEED1A3692B449D4206D26360C0
:1044D00024614146386801F05CFCE3E70023009367
:1044E0002A4619462046FFF7ABFF0028DAD14FF4E1
:1044F0003F71074814F0F1FFD4E7064A03491068FA
:104500000860136002B0BDE8F08100BF442C0020B9
:10451000C2E00500782C00202DE9F04786B0DFF8D6
:10452000A4A1DAF800301D681DB1DB68D3F8008063
:1045300000E0A8465E4E00F00DFB00F013FB336870
:1045400098428146374603D2FFF7A8FF012400E0D6
:104550000024C6F80090574E002C42D13DB3C1450F
:104560002CD300F0C3FBDAF80030DB68DD68281DCF
:1045700001F027FCEB69012B15D1A96943464A4696
:1045800041442846FFF7F2FE01280CD1009423464F
:10459000424621462846FFF753FF20B940F29311C7
:1045A000454814F09AFF6B6A2846984726E0434B2B
:1045B0001B681A68B2FA82F2520900E02246C9EB7F
:1045C0000801306801F0ACFB00F090FBB0B93C4B47
:1045D0004FF080525A6040BFBFF34F8FBFF36F8FD1
:1045E0000CE000F083FB09E0029B002B03DA059945
:1045F0000498039B9847029B002B08DA00231A4675
:1046000002A9306801F07CFA0028EDD187E7049C0C
:10461000636913B1201D01F0D4FB00F0A3FA3B68DD
:104620009842054601D2FFF739FF029A3D60092AF8
:10463000E4D80123934013F4047829D113F0C70F71
:1046400005D19B06DAD5204601F05AFED6E7A169CE
:10465000039B2A4619442046FFF788FE0128CDD146
:10466000636A20469847E369012BC7D1A269039981
:10467000CDF800800A44434641462046FFF7E0FE5D
:104680000028BBD14FF428710B4814F026FFB5E782
:10469000039BA36123B940F2B721074814F01DFF23
:1046A000A1692B462A4629442046FFF75FFEA5E76D
:1046B000702C0020742C0020C2E00500782C002013
:1046C00000ED00E0442C0020054B1A6810B51C4694
:1046D00022B940F26D11034814F0FFFE206810BDAE
:1046E0007C2C0020C2E0050010B5044620B94FF430
:1046F0005371054814F0F1FE01F0FCFB246A01F04F
:1047000013FC204610BD00BFC2E00500074B1B682C
:10471000D86A48B9064B1B68012B06D8054A064BD8
:104720001B681068181A704700207047202D002061
:10473000B82C00202C2D0020242D0020064A1368C0
:104740001968064B11B94FF0FF3203E01268D268C6
:10475000D26852681A607047942C0020242D0020E3
:104760000E4B1A6810B550600D4A1268904204460C
:1047700007D20C4A10681968BDE81040043101F0F6
:1047800008BB094A10681968043101F002FB074BA5
:104790001A68944238BF1C6010BD00BF202D002055
:1047A0002C2D0020302D0020942C0020242D0020C2
:1047B0002DE9F0470C68002C49D04B685C684C60D0
:1047C00001F10807BC4204BF7B684B604B68D3F81B
:1047D0000CE000F11C0300204FF0020C05464C6871
:1047E00064684C60A74204BFCC684C604C68E468C5
:1047F00043F81C4C04F1340643F8186C266C43F85B
:10480000146CE66A03F8102C032A43F80C6C03D1ED
:10481000A66A0EB103F810CC666CD4F8309043F859
:10482000086C43F8045CC846C9EB080618F801ABED
:10483000BAF1A50FF8D0B608A6451E805D609D6050
:1048400000F1010003F12803C9D1BDE8F08720463B
:10485000BDE8F0872DE9F84F0A9E0C9C0F461546DF
:104860009A46814620B940F23521644814F035FE5D
:10487000042E04D940F23621604814F02EFE3CB9D3
:10488000A80001F0A7FC8346002800F0B38000E0F8
:10489000A346582001F09EFC044688B1AD002A468C
:1048A000C0F830B0A521584630F095F8236B043D90
:1048B0001D4425F007057B1E04F13302093705E08E
:1048C000584601F01DFD95E0BB4206D013F8011FCC
:1048D00002F8011F19780029F6D1042E4FF0000BC1
:1048E000B04604F1040728BF4FF00408384684F8A6
:1048F0003DB0C4F82C80C4F84480C4F848B001F03E
:1049000039FA04F1180001F035FAC8F10503A36182
:10491000C4F850B024616462C4F84CB084F854B058
:1049200052464946284601F06FFA0B9B206003B1BE
:104930001C6001F0DFFA324A324D1368DFF8EC9068
:10494000013313602B683BBB2C601268012A2BD10A
:10495000984609EB080008F1140801F000FAB8F1D4
:10496000640FF6D1DFF8C8A0DFF8C880504601F028
:10497000F6F9404601F0F3F9234801F0F0F9234835
:1049800001F0EDF9224801F0EAF9224BC3F800A04A
:10499000214BC3F8008007E0204B1B6823B92B682C
:1049A000DB6A9E4228BF2C601D4A136801331360E6
:1049B0001C4A23641168E36A14208B4200FB0390B5
:1049C000394688BF136001F0D8F901F0ADFA134BF6
:1049D0001B6863B12B68DB6A9E4208D9124B4FF00B
:1049E00080525A6040BFBFF34F8FBFF36F8F0120DB
:1049F000BDE8F88F4FF0FF30BDE8F88F16E10500F5
:104A00004C2D0020202D0020342D0020802C002053
:104A1000682D0020942C0020302D0020982C0020A0
:104A2000482D00207C2D002000ED00E0B82C002057
:104A3000A02C0020502D002038B5044601F05AFA71
:104A40000CB91E4B1C68251D284601F0BAF9A36A53
:104A50001BB104F1180001F0B4F92946184801F01F
:104A60008CF9184A136801331360174A136801332D
:104A7000136001F059FA154B1B68EBB10F4B1B6823
:104A80009C4211D1124B1B6823B140F226311148D0
:104A900014F023FD104B4FF080525A6040BFBFF31B
:104AA0004F8FBFF36F8F38BD01F024FAFFF746FE3A
:104AB000BDE8384001F038BA38BD00BF202D0020D5
:104AC000802C00209C2C0020482D0020982C0020B9
